:020000040800F2
:10000000300B0020AD010008353C00085D2E0008D3
:10001000613A000861090008D143000800000000AF
:10002000000000000000000000000000013F000888
:100030006509000800000000053D000811400008A7
:10004000C7010008C7010008C7010008C701000870
:10005000C7010008C7010008C7010008C701000860
:10006000C7010008C7010008C7010008C701000850
:10007000C7010008C7010008C7010008C701000840
:10008000C7010008C7010008C70100080000000000
:10009000000000000000000000000000C701000890
:1000A000C7010008C7010008C7010008C701000810
:1000B000C7010008C7010008C7010008C701000800
:1000C000C7010008C7010008C7010008C7010008F0
:1000D000C7010008C7010008C701000800000000B0
:1000E000C7010008C7010008C701000800000000A0
:1000F000000000000000000000000000C701000830
:1001000000000000C7010008C7010008C70100087F
:1001100000000000000000000000000000000000DF
:10012000C7010008C7010008C7010008C70100088F
:10013000C7010008000000000000000000000000EF
:10014000000000000000000000000000C7010008DF
:10015000C7010008C7010008C7010008C70100085F
:10016000C7010008C70100080000000000000000EF
:10017000000000000000000000000000000000007F
:1001800000000000C701000800000000000000009F
:10019000C7010008C7010008DFF80CD000F034FBED
:1001A00000480047E9450008300B0020064880471A
:1001B00006480047FEE7FEE7FEE7FEE7FEE7FEE74C
:1001C000FEE7FEE7FEE7FEE7BD40000899010008F4
:1001D0002DE9F05F0546002092469B46884606467C
:1001E000814640241BE0284641464746224600F00F
:1001F000F2F953465A46C01A914110D31146184697
:10020000224600F0D9F92D1A67EB01084F46224625
:100210000120002100F0D0F917EB00094E41201E0B
:10022000A4F10104DFDC484631462A464346BDE8D6
:10023000F09FD2B201E000F8012B491EFBD27047BB
:100240000022F6E710B513460A4604461946FFF7A2
:10025000F0FF204610BD00002DE9FF4F087883B065
:100260009946FF2805D0491C2D2804D000240020E1
:1002700008E000200BE00124F9E700EB800003EB2D
:100280004000491C0B78FF2BF7D104B140420023FA
:100290000293147819461D462D2C01D02B2C04D125
:1002A000521C2D2C13D000240294AA461478FF2C43
:1002B0000FD00A25A3FB057801FB05814FF0000C48
:1002C00003FB0C11521CE3194AEB0101EEE7012478
:1002D000EAE7814453EA010002D019F5C87F06DA43
:1002E00003980021C0E9001107B0BDE8F08F002598
:1002F000AE4E2F46DFF8B882184600F05DFACDE921
:100300000001B9F1000002DAC9F1000400E004467E
:100310000023A74A1AEB030B42EB045A12E0E00752
:1003200007D02A4633463846414600F064F907466E
:1003300088462A4633461046194600F05CF90546C1
:100340000E466410002CEAD1DDE90001B9F1000F7E
:100350005A46534606DA00F0C0F93A46434600F0E2
:10036000BCF905E000F047F93A46434600F043F98E
:10037000029A0AB181F00041039AC2E90001B3E791
:100380002DE9FF4F1F468DB0D7E901464FF0FF38EA
:100390002E2045464FF000090B90B9696D1C0E9850
:1003A0008847396A824688470028F6D1BAF1FF3F6C
:1003B0000AD024F4D064002E11DDBAF12B0F08D03E
:1003C000BAF12D0F0BD102E0404611B08DE744F495
:1003D0008064B9696D1C0E9888478246761E69460E
:1003E000600501D52D2000E02B208DF8000001F1E3
:1003F000010B0DF1200809E0B9696D1C0E988847C2
:1004000082460F9844F40074761E0560002E02DDCB
:10041000BAF1300FF0D00B998A453ED144F08004F8
:1004200006E00F99681CA9F1010944F40074086002
:10043000B9696D1C761E0E98884782463028F0D028
:100440002BE00B998A4505D1200603D444F08004A3
:10045000761E18E0504604F068FB08B30DF1130255
:10046000761EAAF1300044F40074934506D20BF8CE
:10047000010B200607D5A9F1010003E0200602D4F4
:1004800009F101008146A00502D50F99681C08609A
:10049000B9696D1C0E9888478246002ED1DC53E066
:1004A000002E51DDBAF1650F02D0BAF1450F4BD1E4
:1004B000A00549D5B9696D1C24F44074761E0E98C8
:1004C00088478246002E0CDD2B2804D0BAF12D0F70
:1004D00007D144F48074B9696D1C0E988847824630
:1004E000761EE00501D52D2100E02B2108F8011B27
:1004F000CDF82C8021E00DF12901761E44F4007422
:1005000088450CD2AAF1300010F0FF0088F80000F6
:1005100002D10B99884509D908F1010806E0E005E8
:1005200001D5244801E042F20F708146B9696D1C83
:100530000E98884782460F980560002E04DD5046CD
:1005400004F0F3FA0028D6D1F9690E988847FF2005
:100550008BF8000088F800000020069007904B46BA
:100560006A4608A906A8FFF777FEA00502D46FF037
:1005700001002AE714F0240F0AD0E00714D1DDE9C6
:1005800006123868031D3B600068C0E900120BE0EA
:10059000DDE9060100F01CF90146E00704D13868E6
:1005A000021D3A600068016028460EE70000144012
:1005B0000000F03FF1D8FFFF202A04DB203A00FAC8
:1005C00002F1002070479140C2F1200320FA03F3AA
:1005D000194390407047202A04DB203A21FA02F0A8
:1005E0000021704721FA02F3D040C2F1200291406D
:1005F0000843194670472DE9FE4F81EA030404F0D1
:10060000004421F0004100944FF0000B23F0004320
:1006100050EA01045ED052EA03045BD0C3F30A54EB
:10062000C1F30A552C44A4F2F3340194A0FB025404
:10063000C1F3130141F48011C3F3130343F4801396
:1006400001FB024400FB034E840A970A44EA8154EA
:1006500047EA8357A4FB076802958D0A05FB0785C7
:100660004FEA932C04FB0C542705029D4FEA0658D1
:1006700047EA1637B5EB08056EEB070C870E920EAE
:1006800047EA811742EA8312A7FB0201B6EB0B018E
:1006900064EB00042B0D43EA0C335E1844EB1C5052
:1006A000DA465146E7FB0201C5F313044FEA0B3368
:1006B00043EA14534FEA0432019C43EA0603A4F1CF
:1006C0000C040294009CCDE900B400F0FBF803B0E8
:1006D000BDE8F08F00200146F9E72DE9F04D81EAF1
:1006E000030404F0004B21F0004514464FF0000ACB
:1006F00023F0004150EA050220D054EA01021DD047
:10070000C5F30A570246C5F31303C1F31300C1F33F
:100710000A5640F4801543F48013A7EB0608101B1B
:10072000D64608F2FD3873EB050002D308F1010844
:1007300001E092185B41B8F1000F03DA0020014696
:10074000BDE8F08D00204FF48011064684460EE08F
:10075000171B73EB050705D3121B63EB0503064359
:100760004CEA010C49084FEA300092185B4150EA0C
:100770000107EDD152EA030012D082EA040083EAB5
:100780000501084305D0101BAB4106D2012200230E
:1007900006E000224FF0004302E06FF00102531028
:1007A0001AEB06004CEB085110EB0A0041EB0B0171
:1007B000BDE8F04D00F077B80EB540F2334202923A
:1007C0000022CDE90022134600F07CF803B000BD02
:1007D00001F0004330B421F0004150EA010206D09C
:1007E0000A0DA2F56072C1F31301002A02DC30BCCD
:1007F00000207047440F44EAC104C100E01830BC37
:1008000000EBC25000F018B81CB509480090094828
:1008100001900546009C06E0E06840F0010394E882
:10082000070098471034AC42F6D3FFF7B9FC00003C
:10083000084C0008284C00080029A8BF7047401C3D
:10084000490008BF20F00100704710B4B0FA80FCE6
:1008500000FA0CF050EA010404BF10BC704749B123
:10086000CCF1200421FA04F411FA0CF118BF012193
:1008700021430843A3EB0C01CB1D4FEA00614FEA73
:10088000102042BF002010BC704700EBC350104442
:100890000029A4BF10BC7047401C490008BF20F0CD
:1008A000010010BC704710B5141E73F1000408DA83
:1008B000401C41F1000192185B411A4301D120F024
:1008C000010010BD2DE9F04D92469B4611B1B1FAE1
:1008D00081F202E0B0FA80F220329046FFF76CFE1F
:1008E00004460F4640EA0A0041EA0B0153465A46C5
:1008F000084313D0114653EA010019D0C8F1400251
:100900005046FFF768FE05460E4650465946424699
:10091000FFF752FE084305D0012004E02046394687
:10092000BDE8F08D0020054346EAE0762C433743CE
:100930000A986305E40AA0EB08000022FD0A44EAD5
:1009400047540A3002D500200146E9E70105101995
:100950006941DDE9084500196941BDE8F04DA2E7AC
:10096000FEE700007047000040F27C02C2F2000285
:10097000D2E900239FED0C1A1268526A1B6812B26A
:100980005B6A00EE102AB8EEC00A1BB220EE010A24
:1009900080ED000A00EE103AB8EEC00A20EE010A1F
:1009A00081ED000A704700BF35FA8E3D10B540F268
:1009B0007C04C2F20004C4E900013C2101F0E6FE1F
:1009C00060683C2101F0E2FED4E9000100220068E9
:1009D00042620868426210BD40F27C00C2F2000030
:1009E000D0E9000100220068426208684262704754
:1009F000F0B581B040F2F847044643F60C46C2F227
:100A000000070020C4F20206F86100F043FB3168E1
:100A1000C9031DD43068C0071CBF01203060306896
:100A200010F4F97F32D03068C00633D430688006C5
:100A300039D4306840063FD43068000645D4306869
:100A4000C0054BD43068800752D4012001B0F0BDFE
:100A5000C4B10546601C10D13068C003DAD53068D7
:100A6000C00344BF30685FEAC030D3D53068C003EC
:100A7000F2D4CFE73068C003CCD500F00BFB401BAD
:100A8000A042F7D9032001B0F0BD00BF002001B0A3
:100A9000F0BD00BFF86940F01000F8611020306030
:100AA00030688006C5D5F86940F00800F86120205C
:100AB000306030684006BFD5F86940F00400F86146
:100AC0004020306030680006B9D5F86940F0020077
:100AD000F861802030603068C005B3D5F86940F017
:100AE0000100F8614FF48070306030688007ACD549
:100AF000F86940F02000F86102203060012001B068
:100B0000F0BD0000002908BF704770B546F2010E25
:100B1000C0F2900E042901F0030C07D20021BCF1B1
:100B2000000F1CD1BDE87040704700BF21F00301E9
:100B30004942421C6FF003030EEB0304E578D6181C
:100B4000F57025790433357165797571A479CD18FF
:100B50000435B471F0D1191DBCF1000FE2D00EEBD9
:100B6000010212F8012CBCF1010F4254DAD04A1CE8
:100B70000EEB020313F8013CBCF1020F8354D1D0F9
:100B800002310EEB010212F8012C4254BDE8704014
:100B900070470000F0B587B00C46054600F086F9B6
:100BA000002002900220069007200490012602A84F
:100BB00001A9059600F03CF8074600F0FFF81FB1C8
:100BC000304607B0F0BD00BF00F070F984B146F2C6
:100BD0000006C0F2900600BF15F8012B0020314638
:100BE000002300F0F5F848B9013C06F10106F3D105
:100BF000002600F0E3F8304607B0F0BD012600F013
:100C0000DDF8304607B0F0BDB0B5044600F042FA5A
:100C1000054640F20400C2F200000078611C18BFD3
:100C2000044400BF00F036FA401BA042FAD3B0BD26
:100C30002DE9F04381B040F2F848C2F2000898F87C
:100C40001820012A04D1022001B0BDE8F08300BFC2
:100C50000546012088F818004CF250308946FFF70D
:100C6000C7FE28B1002188F8181001B0BDE8F08354
:100C70004FF0FF30C9F80000286843F610470128FC
:100C8000C4F202071CD128693968000221F44071BE
:100C90003960396880B241F004013960396808432D
:100CA00040F4803038604CF25030FFF7A1FE3968D4
:100CB00021F00401396057F8101C89053BD452E03B
:100CC000D5E902603044864230D2F000841C00BF77
:100CD00028694FF44072C1B2032939684FEA0020F5
:100CE00021F440713960396838BF82B241EA0200AC
:100CF0003860386820F0F800386038682043386081
:100D0000386840F4803038604CF25030FFF770FEA5
:100D10003968002821F0FA01396047D1D5E902018C
:100D200001360844864204F10804D1D3002057F864
:100D3000101C890517D557F8101C21F4007147F8CD
:100D4000101C57F8101C41F4006147F8101C57F8AC
:100D5000101C21F4006147F8101C57F8101C41F4D6
:100D6000007147F8101C57F8101C49057FF57AAF41
:100D700057F8101C21F4806147F8101C57F8101C1C
:100D800041F4805147F8101C57F8101C21F4805191
:100D900047F8101C57F8101C41F4806147F8101CEC
:100DA000002188F8181001B0BDE8F083C9F8006090
:100DB00057F8101C8905BED4D5E7000043F6104152
:100DC000C4F20201086840F0004200200A60704747
:100DD0002DE9F04140F2F844C2F20004277E012FD1
:100DE00004BF0220BDE8F0810546012020764CF2C8
:100DF000503098460F461646FFF7FAFD20B1002105
:100E00002176BDE8F08100BF2A46022D43F6104549
:100E1000C4F202051ED0012A314638460CD03ABB36
:100E20002A6822F440722A602A682A602A6842F0FE
:100E300001022A6001702CE02A6822F440722A60C4
:100E40002A6842F480722A602A6842F001022A600D
:100E500001801EE0286820F440702860286840F473
:100E600000702860286840F0010028603E6010E0B3
:100E70002A6822F440722A602A6842F440722A608A
:100E80002A6842F001022A600160BFF36F8FC0F848
:100E900004804CF25030FFF7ABFD296821F00101CE
:100EA000296000212176BDE8F081000043F604406E
:100EB000C4F20200C168B1F1FF3FC4BF0020704717
:100EC00040F22311C4F26751016048F6AB11CCF631
:100ED000EF510160C068C00F704700002DE9F04F6E
:100EE00083B000F1200200F13E4741F2000500927C
:100EF00007F1FF77C4F2020507224FEAB726A8429E
:100F000008BF042200254FF000084FF00009042E0E
:100F100038BF4FEAB72201920AE000BF09F1010988
:100F200008F10208B9F1100F05F1040500F0A280E4
:100F30000F68012202FA09FE17EA0E0AEED0D1F874
:100F400004C003220CF003077E1E02FA08F4012EEF
:100F50006FEA040B12D88468CE6804EA0B0406FA20
:100F600008F634438460446824EA0E06CCF3001487
:100F700004FA09F42643466004E000BF032F01D1C0
:100F800003271EE0C6688C6806EA0B0604FA08F41C
:100F90002643022FC66014D16FF00302009E02EABE
:100FA000590756F807C005F01C040F220B69A24030
:100FB0002CEA0202A3401A43F251D1F804C00CF00B
:100FC0000307026807FA08F302EA0B021A431CF44B
:100FD000403F0260A2D0002243F644030292C4F2D2
:100FE00002031A6843F6004442F480421A601A6809
:100FF000C4F2010402F480420292029A29F0030230
:101000004FF6084C2244CFF6FF7C52F80C3005F026
:101010000C070F26BE40B343019E06FA07F73B4379
:1010200042F80C30A2684B6842EA0A0743F60C4CBF
:10103000DE0258BF22EA0A07A760C4F2010CDCF8FE
:1010400000209E0242EA0A0758BF22EA0A07CCF8AB
:10105000007062689E0342EA0A0758BF22EA0A0744
:1010600067602268DB0342EA0A0758BF22EA0A07E0
:10107000276053E703B0BDE8F08F00000069084027
:1010800018BF012070470000002A08BF09048161D1
:101090007047000040F22C70C2F2000000687047F8
:1010A000002804BF01207047F0B581B0044690F8D5
:1010B0003D0028B9002084F83C00204600F0F8FCF0
:1010C000242084F83D002068016821F001010160BE
:1010D000016841F400410160016821F400410160B0
:1010E00000F0B8FE636848F2A16CC0F2010C40F653
:1010F0000011C0F23D0163453CBF48F28041C0F29F
:101100001E01884202D2012001B0F0BD4DF683617C
:10111000C4F21B31A0FB01122168970CD1F804E046
:101120004FF496762EF03F0545EA92454D607743A1
:1011300048F638160D6AC0F24106A7FB067625F080
:101140003F07634538BF960C721C3A430A62CA696E
:1011500048F2A0664CF6FF77C0F20106B34222EADD
:1011600007020BD801385B00B0FBF3F001306FF3DE
:101170001F30042898BF04201BE000BFA768013877
:1011800057B119277B43B0FBF3F001306FF31F30E9
:1011900070B100F5804007E003EB4303B0FBF3F0D0
:1011A00001306FF31F3018B100F5004001E000BFBF
:1011B00001201043C8610868D4E9072320F0C0006B
:1011C000104318430860886848F2FF3204F10C07A6
:1011D00090438CCF18431043A6698860C86820F0FC
:1011E000FF0038433043C860086840F001000860E1
:1011F00000202021206484F83D10206384F83E0004
:1012000001B0F0BD2DE9F04383B01F461646894674
:101210000446FFF73FFF94F83D10202924D10546EE
:10122000206800BF816989071AD5FFF733FF411B8A
:1012300020681A29F6D381698907F3D50020202177
:10124000206384F83D1084F83E00216C41F02001B9
:10125000216484F83C00022003B0BDE8F08300BFA5
:1012600094F83C10012903D1022003B0BDE8F083BB
:10127000012184F83C100168C90703D1016841F0DD
:1012800001010160016840F2040821F4006101607D
:10129000222184F83D10102184F83E1000212164A1
:1012A00066626785618DC0F201082185A8F500316D
:1012B0000439E162E16A02680A9F42F4806211F532
:1012C000803F026018BF012942D1016841F480715A
:1012D000016020464FF0011100223B46009501F0CD
:1012E0000BFF58B120680068C00544BF4FF4007080
:1012F0002064012003B0BDE8F08300BF2069B0F591
:10130000804F2BD149F00100C0B221683A460861F4
:10131000A8F1020120462B4601F0D4FF0028E8D1B5
:10132000208D00285AD002284ED001286ED1216885
:101330000A6822F480620A60002202924A690292DC
:101340008A690292029A0A6842F400720A6078E09E
:101350000829BAD0216B1129B7D0BAE7062000EAD4
:10136000D916206806F1F001016108F10401204658
:101370003A462B4601F0A6FF0028BAD120685FFA52
:1013800089F10161A8F1020120463A462B4601F09D
:1013900099FF0028ADD10020029020680022416909
:1013A0003B460291816902910299016841F4807182
:1013B000016020464FF00111009501F09DFE0028CC
:1013C00090D146F0F100A0E721680A6822F480621B
:1013D0000A600A6842F400621CE000BF002002902C
:1013E000206841690291816902910299016841F482
:1013F00000710160202084F83D00002084F83E0048
:1014000084F83C0003B0BDE8F08300BF21680A689F
:1014100042F480620A60002202924A69029289695B
:10142000029102990DE000BF10690870606A218D79
:1014300001306062481E2085618D0139618501049B
:10144000D8D080B203280FD802284AD001282DD145
:10145000204639462A4601F0A1FF00287FF449AF13
:101460002068616A0069E0E7204639462A4601F0B3
:1014700095FF00287FF43DAF2068616A006908701D
:10148000606A2268411C208D616201382085638D6D
:10149000013B638553695B07D1D580B20328C3D173
:1014A000106820F480601060BEE700BF204641460F
:1014B00000223B46009501F01FFE00287FF419AF83
:1014C0002068616A026822F4806202600069087024
:1014D000606A218D01306062481E2085608D013870
:1014E00060852046414600223B46009501F004FEFF
:1014F00000287FF4FEAE2068616A026842F4007240
:10150000026000690870606A2268411C6162218D76
:1015100001392185618D013961851169417085E746
:101520002DE9F04383B01E46174689460446FFF76F
:10153000B1FD94F83D10202924D10546206800BF54
:10154000816989071AD5FFF7A5FD411B20681A2973
:10155000F6D381698907F3D500202021206384F820
:101560003D1084F83E00216C41F02001216484F894
:101570003C00022003B0BDE8F08300BF94F83C10AB
:10158000012903D1022003B0BDE8F083012184F8D2
:101590003C100168C90703D1016841F001010160F5
:1015A000016840F2020821F400610160212184F801
:1015B0003D10102184F83E10002121646762668589
:1015C000618DC0F201082185A8F10211E162E16A92
:1015D0000A9E11F5803F18BF01291DD1016841F411
:1015E0008071016020464FF00111002233460095C2
:1015F00001F082FD50B120680068C00544BF4FF47F
:1016000000702064012003B0BDE8F0832069B0F5CC
:10161000804F07D1FE2015E00829DFD0216B122969
:10162000DCD0DFE7062000EAD9102168F03008613D
:1016300008F10601204632462B4601F043FE002801
:10164000E0D1FF20216800EA0900086120464146F8
:1016500032462B4601F036FE0028D3D100200290FE
:1016600020684169029180690290029806E000BFFB
:10167000204631462A4601F0E1FC18BB208D68B3B4
:10168000204631462A4601F0D1FED8B9606A216869
:10169000024612F8013B0B616262628D013A62857B
:1016A000228D531E23854F697F07E1D51B04DFD0B0
:1016B000437802300B616062608D01386085901E56
:1016C0002085D5E7206C04289CD12068016841F46E
:1016D00000710160012003B0BDE8F083206801685B
:1016E00041F400710160202084F83D00002084F85E
:1016F0003E0084F83C0003B0BDE8F0832DE9F047DC
:1017000084B0994616460F460446FFF7C3FC94F88A
:101710003D10202927D10546206800BF816989072F
:101720001CD5FFF7B7FC411B20681A29F6D3816945
:101730008907F3D500202021206384F83D1084F828
:101740003E00206C04F13C0A40F02000206402209E
:1017500000218AF8001004B0BDE8F087A2461AF80C
:101760003C1F012904D1022004B0BDE8F08700BF6E
:1017700001228AF800200368DDE90D180C9ADB07C6
:1017800003D1036843F001030360036823F400639B
:101790000360222084F83D00402084F83E000020B1
:1017A000206462626185608D394620850020CFF615
:1017B000FF70E062204632464B46CDE9008501F0DD
:1017C0004FFB18B1012004B0BDE8F087208D08B3AD
:1017D000022813D0012835D121680A6822F48062DA
:1017E0000A60002203924A6903928A690392039A6B
:1017F0000A6842F400720A602CE000BF21680A689F
:1018000022F480620A600A6842F400620A600022E0
:1018100003921AE0002003902068416903918169D6
:1018200003910399016841F400710160202084F85C
:101830003D00002084F83E0000218AF8001004B02A
:10184000BDE8F0870021039121684A690392896904
:10185000039103990427C0F201070CE01069087096
:10186000606A218D01306062481E2085618D0139DA
:1018700061850104DAD080B203280FD802284AD04B
:1018800001282DD1204641462A4601F087FD002837
:1018900098D12068616A0069E1E700BF20464146AF
:1018A0002A4601F07BFD00287FF48CAF2068616A36
:1018B00000690870606A2268411C208D61620138ED
:1018C0002085638D013B638553695B07D1D580B269
:1018D0000328C3D1106820F480601060BEE700BF09
:1018E0002046394600224346009501F005FC0028B9
:1018F0007FF468AF2068616A026822F48062026047
:1019000000690870606A218D01306062481E208580
:10191000608D013860852046394600224346009597
:1019200001F0EAFB00287FF44DAF2068616A02688D
:1019300042F40072026000690870606A2268411C0B
:101940006162218D01392185618D013961851169BE
:10195000417085E72DE9F04383B0994616460F465E
:101960000446FFF797FB94F83D10202924D1054643
:10197000206800BF816989071AD5FFF78BFB411BDF
:1019800020681A29F6D381698907F3D50020202120
:10199000206384F83D1084F83E00216C41F0200162
:1019A000216484F83C00022003B0BDE8F08300BF4E
:1019B00094F83C10012903D1022003B0BDE8F08364
:1019C000012284F83C200368DDE90B180A9ADB0742
:1019D00003D1036843F001030360036823F4006349
:1019E0000360212084F83D00402084F83E00002060
:1019F000206462626185608D394620850020CFF6C3
:101A0000FF70E062204632464B46CDE9008501F08A
:101A1000B1FA18B1012003B0BDE8F083208D98B968
:101A2000204641462A4601F009FB88B3206C042871
:101A3000F0D12068016841F400710160012003B019
:101A4000BDE8F0830004EBD0204641462A4601F071
:101A5000EDFC0028EAD1616A2268084610F8013BD3
:101A60001361238D6062581E2085678D013F678555
:101A700057697F07E6D50704E4D048781061881CD1
:101A80006062981E2085618D01396185DAE700BFAB
:101A90002068016841F400710160202084F83D0055
:101AA000002084F83E0084F83C0003B0BDE8F083D9
:101AB0002DE9F04387B0006845F60001C4F200014B
:101AC00000268842CDE90566CDE9036602962DD051
:101AD00045F20041C4F20001884260D1002443F67F
:101AE00030050194C4F20205286802A940F0020002
:101AF0002860286800F0020001900198C020029040
:101B00001220CDE90304032005900420069040F242
:101B10000040C4F20200FFF7E1F90194286940F4A3
:101B200000102861286900F4001036E043F6300701
:101B30000196C4F20207386840F2004440F0020007
:101B400038603868C4F2020400F002000190019885
:101B50004FF480600290042002AD4FF012084FF065
:101B60000309069020462946CDE90386CDF8149056
:101B7000FFF7B4F90820CDE90208092006902046B5
:101B80002946CDE90469FFF7A9F90196386940F4BF
:101B900080003861386900F480000190019807B036
:101BA000BDE8F08340F2040040F22C71C2F2000064
:101BB000C2F2000100780A68104408607047000013
:101BC00080B543F60040C4F20200016841F40071A0
:101BD0000160016841F480610160016841F4807135
:101BE0000160032000F074F80F2000F005F800F009
:101BF00027F8002080BD000070B540F20406C2F254
:101C0000000640F20C013278C2F200014FF47A7300
:101C10000968B3FBF2F20446B1FBF2F1084600F0AA
:101C20004FFB0F2C4FF0010508D838B94FF0FF30AB
:101C300021460022002500F01FF87460284670BD80
:101C400082B0002043F640010190C4F202014A68CC
:101C500042F480424A604A6802F480420192019A4A
:101C60000090086840F080500860086800F08050DC
:101C70000090009802B0704710B54EF60C5CCEF2A2
:101C8000000CDCF80030C3F3022E8EF00704042CA5
:101C900028BF0424BEF103034FF0FF3E0EFA04F404
:101CA00038BF0023A14399400EFA03F39A4311432E
:101CB00000F00F0200F160430901043A03F56443A8
:101CC0006244002848BF02F10C03197010BD0000E7
:101CD0004EF60C51CEF200010A684FF6FF031A408F
:101CE00060F30A2242F0806040F0FD7008607047A7
:101CF000002804BF012070472DE9F04143F6080891
:101D0000C4F202080446D8F8F8030D4600F00700B4
:101D1000814207D988F8F853D8F8F80300F0070093
:101D2000A84277D12068810717D5410705D5D8F893
:101D3000001041F4E051C8F80010010705D5D8F8AB
:101D4000001041F46041C8F80010D8F80010A268F3
:101D500021F0F0011143C8F80010C00740D1D8F8B5
:101D6000F80300F00700854207D288F8F853D8F846
:101D7000F80300F00700A8424CD12068410707D5BE
:101D8000D8F80010E26821F4E0511143C8F80010BF
:101D9000000708D5D8F80000216920F4604040EA27
:101DA000C100C8F8000000F07DF8D8F8001044F633
:101DB0005C32C1F30311C0F60002515C40F20C0228
:101DC00020FA01F140F20800C2F200000068C2F2FD
:101DD00000021160FFF710FF0020BDE8F08100BF96
:101DE0006068811E022907D258F8081C89015CBF6F
:101DF0000120BDE8F08111E0012807D158F8081C46
:101E000089035CBF0120BDE8F08107E058F8081C99
:101E1000890703D40120BDE8F08100BFD8F8001085
:101E200021F003010843C8F80000FFF733F9064624
:101E300041F28837D8F80000616800F00C00B0EB80
:101E4000810F8CD0FFF726F9801BB842F2D903200E
:101E5000BDE8F08140F20C0043F60801C2F2000038
:101E6000C4F202010068096844F66C32C1F38221B1
:101E7000C0F60002515CC8407047000040F20C0000
:101E800043F60801C2F20000C4F2020100680968CA
:101E900044F66C32C1F34231C0F60002515CC840D6
:101EA0007047000010B543F60404C4F202046168F0
:101EB000C1F3810142F20040C0F2F400DFE801F01A
:101EC00002040A0210BD00BF47F64000C0F27D10B8
:101ED00010BD00BF206821682368490247F6400111
:101EE000C0F27D1100F03F02C3F388105CBF42F2E4
:101EF0000041C0F2F401A1FB00010023FEF768F9E4
:101F000021680222C1F3014102EB4101B0FBF1F073
:101F100010BD0000002804BF012070472DE9F041EA
:101F200082B00446007843F60006C007C4F20206F9
:101F30000CD0B06800F00C00042840F081803068BC
:101F4000800303D56068002800F06881207880074E
:101F50001BD5B06810F00C0F09D0B06800F00C0071
:101F6000082840F087807068400200F18380306864
:101F7000800703D5E068012840F05081306821696E
:101F800020F0F80040EAC10030602078000713D448
:101F9000207840072AD4A569002D00F03A81B06866
:101FA00000F00C00082840F0A580012D40F00E81C3
:101FB000012002B0BDE8F0816069002800F0828055
:101FC0000020C4F247200121C0F8801EFFF762F80C
:101FD000054600BF706F8007DAD4FFF75BF8401B3F
:101FE0000228F7D9032002B0BDE8F081306C5FEA27
:101FF000C0080AD400200190306C40F0805030645A
:10200000306C00F080500190019847F20007C4F254
:1020100000073868C00547D4386840F480703860DD
:10202000FFF738F8054600BF3868C0053CD4FFF715
:1020300031F8401B0228F7D9032002B0BDE8F08137
:10204000B06800F00C00082803D1706840023FF52A
:1020500076AF61683068B1F5803F07D0B1F5A02F49
:1020600040F09A8040F480203060306840F4803046
:1020700030609AE0E068002840F20000C4F2472097
:102080005CD001210160FFF705F805463068800744
:102090003FF574AFFEF7FEFF401B0228F6D9032080
:1020A00002B0BDE8F08100BFA168306F012905D002
:1020B000052955D140F004003067306F40F0010031
:1020C000306756E00020C4F247200021C0F8801E8F
:1020D000FEF7E0FF054600BF706F80077FF558AF41
:1020E000FEF7D8FF401B0228F6D9032002B0BDE856
:1020F000F08100BF0027C4F2472700203866FEF7B2
:10210000C9FF022D05460DD13068800140F18A805B
:10211000FEF7C0FF401B02284FF00300F4D902B0C5
:10212000BDE8F0813068800173D5FEF7B3FF401B36
:1021300002284FF00300F5D9F1E700BF002101604C
:10214000FEF7A8FF054600BF306880077FF51DAF8A
:10215000FEF7A0FF401B02284FF00300F4D9DEE792
:1021600020F001003067306F002920F00400306754
:102170007AD0FEF78FFF054641F28837306F80072F
:1021800000F18480FEF786FF401BB842F6D9032099
:1021900002B0BDE8F08100BF20F4803030603068CC
:1021A000002920F4802030607AD0FEF773FF0546C6
:1021B000306880033FF5CAAEFEF76CFF401B642811
:1021C000F6D9032002B0BDE8F08100BF7068E16974
:1021D00000F480028A4221D1216A00F03F028A4243
:1021E0001CD147F6C071626A0140B1EB821F15D164
:1021F000A16A4FF6FF73C903994300F44032A1F579
:1022000080318A420AD1E16A00F07060B0EB016F60
:1022100004D1002002B0BDE8F08100BF012002B06F
:10222000BDE8F08104F11C052FCD084340EA82107F
:10223000D9034FF6FF729143A1F5803140EA056062
:102240000843706001203866FEF724FF044600BF93
:1022500030688001DDD4FEF71DFF001B02284FF01F
:102260000300F5D95BE700BFFEF714FF054641F216
:10227000883700BF306F800708D5FEF70BFF401B83
:10228000B8424FF00300F5D949E700BFB8F1000F9D
:102290003FF581AE306C20F0805030647BE600BFAB
:1022A000FEF7F8FE054600BF306880037FF54EAEAE
:1022B000FEF7F0FE401B64284FF00300F4D92EE730
:1022C000411E0020B0EB116F1CBF012070474EF281
:1022D0001002CEF2000251604EF62351CEF2000100
:1022E000F0230B70072190601160704790F83C203C
:1022F000012A04BF02207047B0B501F108053CCDAA
:10230000D1E900CE23F47C5322F470521A432EF408
:10231000F0431A432CF4E0431A4324F4C0431A4315
:102320002A43C96922F48042036811435964002199
:1023300080F83C100020B0BD90F83C20012A4FF0FE
:10234000020241D010B580F83D200268D2F804E0C6
:10235000D2F808C00C682EF07003234340F6FF3417
:10236000C4F20004A242536010DCB2F1804F1ED0D0
:1023700040F20043C4F200039A4218D040F6000332
:10238000C4F200039A4212D016E000BF40F60043A8
:10239000C4F200039A420AD044F20003C4F20103DB
:1023A0009A4204D00023C4F201039A4204D149683E
:1023B0002CF08003194391600121002280F83D1028
:1023C00080F83C20BDE8104010467047002804BF4C
:1023D0000120704710B5044690F83D0028B9002050
:1023E00084F83C00204600F01FF8022084F83D00ED
:1023F0002068211D01F0F8FE012084F8460084F8D1
:102400003E0084F83F0084F8400084F8410084F8DE
:10241000420084F8430084F8440084F8450084F8BE
:102420003D00002010BD000082B0006840F6004171
:10243000C4F20001884215D00021C4F20101884293
:102440001FD10020019043F64000C4F20200416811
:1024500041F001014160406800F0010001900198E5
:1024600002B070470020009043F64000C4F2020022
:10247000016841F008010160006800F00800009068
:10248000009802B07047000090F83C20012A4FF0FD
:1024900002026CD080B580F83D20D0F800C04FF625
:1024A0007772DCF8083023EA0202CCF808200B68C7
:1024B0004F2B29DC1F2B45DD202B46D0302B44D061
:1024C000402B40F0AF80D1F804E0C968DCF8203040
:1024D000DCF8202022F00102CCF82020DCF81820C3
:1024E00022F0F00242EA011123F00A0242EA0E024F
:1024F000CCF81810CCF82020DCF8081041F0470187
:1025000021F0300128E000BF6F2B33DDB3F5005F11
:1025100074D0B3F5805F21D0702B40F08380D1E977
:1025200001E3C968DCF8082043EA0E0322F47F4285
:1025300043EA01211143CCF80810DCF8081041F0FF
:10254000770109E00BB1102B6CD1DCF8081021F0F9
:102550007001194341F00701CCF808100022012155
:1025600080F83D10002180F83C10BDE88040104606
:10257000704700BF502B21D0602B53D1D1F804E01D
:10258000C968DCF82030DCF8202022F01002CCF8FA
:102590002020DCF8182022F4704242EA013123F0B6
:1025A000A00242EA0E12CCF81810CCF82020DCF879
:1025B000081041F0670121F01001CDE7D1F804E0E7
:1025C000C968DCF82030DCF8202022F00102CCF8C9
:1025D0002020DCF8182022F0F00242EA011123F05A
:1025E0000A0242EA0E02CCF81810CCF82020DCF8DF
:1025F000081041F0570121F02001ADE7D1E901E3D6
:10260000C968DCF8082043EA0E0322F47F4243EA5B
:1026100001211143CCF80810DCF8081041F4804186
:102620009AE700BF01229AE7002804BF0120704703
:102630002DE9F047044690F83D000D4628B90020EA
:1026400084F83C00204600F049F8022084F83D0060
:10265000206844F20702816891438160211D01F0E6
:10266000C3FD20684FF6FF7881688269D0F820C0EA
:10267000D5E9003ED5E9026A43EA0109AB6922EADD
:10268000080246EA03234FF6FC46B343D5E9076741
:1026900042EA0A0229691A4342EA062242EA011181
:1026A0002CF0AA026B6942EA0E0241EA073142EAC3
:1026B0000312C0F8089081610262012084F846008C
:1026C00084F83E0084F83F0084F8420084F8430018
:1026D00084F83D000020BDE8F087000080B586B09A
:1026E000006840F20042C4F2000200219042CDE9AD
:1026F0000411CDE9021101911ED0B0F1804F42D1F9
:10270000002043F630010090C4F202010A6942F051
:1027100001020A610A6902F001020092009A009027
:10272000086840F0010008600868032100F001001B
:1027300000900098012019E043F630000091C4F2A7
:102740000200026942F002020261026902F0020222
:102750000092009A0091016841F001010160006857
:10276000C02100F001000090009802200191022198
:102770000291002105900020CDE90311C4F202006E
:1027800001A9FEF7ABFB06B080BD000080B590F854
:102790003E2090F83F3090F842E090F843C0042982
:1027A0000AD0B9B9012A4FF0010208BFBEF1010FEA
:1027B00034D0104680BD00BF012B4FF0010208BF8E
:1027C000BCF1010FF5D1022180F83F1080F84310D1
:1027D00000681EE0012A4FF0010208BF012BE8D17A
:1027E000BEF1010FE5D1BCF1010FE2D1022280F868
:1027F0003E2080F83F2080F8422080F8432091B1AD
:102800000068016A21F001010162016A41F00101E1
:10281000016210216FF0100209E000BF022180F870
:102820003E1080F84210006801216FF00102036A37
:102830001A400262026A114301620168002241F0FB
:1028400001010160104680BD80B586B0002100689E
:10285000C4F20101002288420592CDE903220292CE
:10286000019201D006B080BD43F630000092C4F260
:102870000200036843F001030360006800F00100F8
:10288000009000984FF4407001900220CDE90202C0
:102890000120059001F5803001A90492FEF71EFB8E
:1028A00006B080BD90F83C30012B04BF0220704779
:1028B0004FEAB202032A00F2ED802DE9F043DFE88F
:1028C00002F003A3397300BF036800261D6A1A6A69
:1028D000C4F2010622F001021A621A465C6852F83C
:1028E00018CFB3428E68D1F800E025F0020545EA22
:1028F00006050CD1CE68D1E9057824F4407425F0A2
:102900000C0526F004063C43354344EA08042CF049
:10291000730747EA0E075C609F614F6809695F6350
:102920001D629F6947F008079F619F6927F00407B0
:102930009F61A4E0036800261D6A1A6AC4F20106BA
:1029400022F480721A621A46D3F804C052F81CEFBF
:10295000B3428E680C6825F4007545EA06250FD150
:10296000CE68D1E90598360240F2FF4725F440656C
:10297000BE4335432CF4405748EA090647EA061C93
:102980002EF073072743C3F804C0DF614F6809695D
:10299000DF631D62DF6947F00807DF61DF6927F049
:1029A0000407DF616BE000BF03680027D3F820C095
:1029B0001A6AC4F2010722F480521A621A465C684D
:1029C00052F81C5FD1F800E08E68BB4204D14F6919
:1029D00024F4804444EA87142CF4005747EA06376D
:1029E00025F4E64646EA0E265C60DE614E6809691B
:1029F0001E641F62DF6947F40067DF61DF6927F447
:102A00008067DF613AE000BF036800261D6A1A6A2A
:102A1000C4F2010622F010021A621A46D3F804C06A
:102A200052F8184FB3428E68D1F800E025F0200527
:102A300045EA06150FD1CE68D1E905986FF0400739
:102A400025F0C00507EA061635432CF4406748EA2E
:102A5000090647EA860C24F4E64444EA0E27C3F844
:102A600004C09F614F6809699F631D629F6947F4B5
:102A700000679F619F6927F480679F61090213685F
:102A8000194311600021BDE8F043002280F83C208A
:102A9000084670470121002280F83C200846704714
:102AA000002804BF0120704710B5044690F83D008F
:102AB00028B9002084F83C00204600F01FF80220CE
:102AC00084F83D002068211D01F08EFB012084F870
:102AD000460084F83E0084F83F0084F8400084F803
:102AE000410084F8420084F8430084F8440084F8EC
:102AF000450084F83D00002010BD00007047000034
:102B0000C1B1042908D0082914BF41224022825CA7
:102B1000012A05D016E000BF3F22825C012A11D1B4
:102B20000222082910D0042914BF80F8412080F81F
:102B30003F200BE090F83E20012A03D1022280F8CA
:102B40003E2003E00120704780F84020006801F03B
:102B50001F010122036A8A4023EA02010162036A1B
:102B60004421C4F201011A43A1F1440398420262D4
:102B700016D040F6FF31C4F2000188421ADCB0F1F1
:102B8000804F28D040F20041C4F20001884222D098
:102B900040F60001C4F2000188421CD022E000BFD0
:102BA0000A6842F400420A6040F6FF31C4F20001B4
:102BB0008842E4DD40F60041C4F2000188420AD0B8
:102BC00044F20001C4F20101884204D00021C4F2A1
:102BD0000101884206D1816801F00701062904BF7E
:102BE00000207047016841F001010160002070473A
:102BF000002804BF0120704710B5044690F841003A
:102C000028B9002084F84000204600F021F8242054
:102C100084F841002068C16821F40051C160204659
:102C200001F062FB2068016921F490410161416972
:102C300021F02A014161C16841F40051C1600020C6
:102C40002021606484F8411084F84210606310BD54
:102C500080B586B041F200410068C4F20101002253
:102C600088420592CDE903220292019202D006B079
:102C700080BD00BF43F630000092C4F202004369F9
:102C800043F020034361436903F020030093009B5A
:102C90000092036843F001030360006800F0010044
:102CA000009000984FF4C05001900220CDE902023C
:102CB000032004900820059001F56C4001A9FEF75F
:102CC0000DF906B080BD00002DE9F04381B0044647
:102CD00090F84100202809D100294FF0010018BFC9
:102CE000002A07D101B0BDE8F08300BF022001B087
:102CF000BDE8F0830020606421201D460E4684F864
:102D000041001746FEF7C6F9A784E784A16881460B
:102D1000B1F5805F02D1206900285DD037460020E0
:102D2000E28C2168002A5DD06A1C24D0002D4AD094
:102D3000804600BF0868000608D4FEF7ABF9A0EB98
:102D40000900A8427AD82168C868F3E717B117F8D4
:102D5000010B04E038F8020B00276FF35F20486096
:102D6000E08C0138E084E08C0028E3D13AE000BF39
:102D70000A68120609D40A68120606D40A681206FE
:102D80005CBF0A685FEA0262F2D51FB117F8012B37
:102D900005E000BF30F8022B00276FF35F224A6086
:102DA000E28C013AE284E28C002AE4D11AE000BF0E
:102DB00030F8022B00276FF35F224A60E28C013A61
:102DC000E284E28C72B10A68120635D5002FEFD08A
:102DD00017F8012BF1E700BF00273046E28C21688D
:102DE000002AA1D1086840061ED42DB3681C14D156
:102DF000086840062AD40868400627D408684006B8
:102E000024D4086840064FF00000F1D50DE000BF63
:102E10002068C1680068400618D4FEF73BF9A0EBB3
:102E20000900A842F4D909E00020202184F84110CB
:102E300001B0BDE8F08300BFFEF72CF9032020218C
:102E400084F8411001B0BDE8F08300BF00202021CC
:102E500084F8411001B0BDE8F0830000FEE70000F7
:102E60002DE9F04782B0044600689A460B9D0A9E01
:102E70000368914643F48062026002680F4642F4A0
:102E80008071016020464FF0011100223346009509
:102E900000F032F950B120680068C00544BF4FF41B
:102EA00000702064032002B0BDE8F08740F2020801
:102EB0002068C0F2010807F0FE070761204641467E
:102EC00032462B4600F0FEF920B1012002B0BDE8E9
:102ED000F08700BF0020019020682A4641690191D7
:102EE0008069314601900198204600F09FFAB0B900
:102EF0002068BAF1010F09D04FEA1921016120467B
:102F000031462A4600F092FA48B920685FFA89F102
:102F10000161204631462A4600F088FA60B1206CF3
:102F20000428D2D12068016841F4007101600120B9
:102F300002B0BDE8F08700BF206800220168334678
:102F400041F48071016020464FF00111009500F0BE
:102F5000D3F800289FD147F0010C2768204641464E
:102F600032462B46C7F810C002B0BDE8F04700F06B
:102F7000A9B900002DE9F04383B0044600680F466C
:102F800001680A9D0B9E41F480719946904601604C
:102F900020464FF0011100222B46009600F0ACF8BD
:102FA00050B120680068C00544BF4FF40070206431
:102FB000032003B0BDE8F083206807F0FE01016143
:102FC0000221C0F2010120462A46334600F07AF978
:102FD00020B1012003B0BDE8F08300BF00200290C3
:102FE0002068324641690291806929460290029820
:102FF000204600F01BFA58B1206C0428E9D1206863
:10300000016841F400710160012003B0BDE8F08364
:103010002068B9F1010F0AD04FEA1821016120465A
:103020002946324600F002FA0028E5D120685FFA0E
:1030300088F10161002003B0BDE8F08370B503683A
:10304000044653F8140F400711D40E46481C29D0EB
:1030500086BB00BF1868400527D4FEF71BF823681D
:1030600053F8140F400737D518684007F2D50020F1
:1030700070BD00BF18684007F9D41868400514D423
:1030800018684007F3D4186840050ED41868400744
:10309000EDD41868400508D4186840074FF00000C8
:1030A00048BF70BD18684005E4D56FF480601860B3
:1030B000042012E0154603E053F8140F4007D6D45D
:1030C00018684005F1D4FDF7E5FF401B2368B042C6
:1030D000F2D958694007EFD4202000212022216333
:1030E00084F83D2084F83E10226C104320640120B7
:1030F00084F83C1070BD00002DE9F04105460068E1
:103100001E46144601F47F0201338FB242D0DDF82F
:103110001880B2F5803F40F0878040693840C01B7E
:10312000B0FA80F04009844240F0C8804EB924E0F3
:1031300040693840C01BB0FA80F04009844240F03A
:10314000BD80FDF7A7FFA0EB08012868B142EFD9C9
:1031500041693940C91BB1FA81F149098C42E7D173
:103160009BE000BF40693840C01BB0FA80F04009C6
:1031700084424FF0000040F0A280FDF78BFF2868EA
:1031800041693940C91BB1FA81F149098C42E9D141
:1031900083E000BFB2F5803F24D100BF41693940D0
:1031A000C91BB1FA81F149098C4240F0878041691D
:1031B0003940C91BB1FA81F149098C4240F07E8047
:1031C00041693940C91BB1FA81F149098C4275D175
:1031D00041693940C91BB1FA81F149098C42DDD0FE
:1031E0006CE000BF81693940C91BB1FA81F149091E
:1031F0008C4263D181693940C91BB1FA81F1490917
:103200008C425BD181693940C91BB1FA81F149090E
:103210008C4253D181693940C91BB1FA81F1490906
:103220008C42DFD04AE000BF80693840C01BB0FA52
:1032300080F04009844241D146B923E0806938409A
:10324000C01BB0FA80F04009844237D1FDF722FF5D
:10325000A0EB08012868B142F0D981693940C91B47
:10326000B1FA81F149098C42E8D116E08069384011
:10327000C01BB0FA80F0400984424FF0000018BF34
:10328000BDE8F081FDF706FF286881693940C91B58
:10329000B1FA81F149098C42E8D10020202128634C
:1032A00085F83D1085F83E00296C41F02001296425
:1032B00085F83C000120BDE8F08100BF0020BDE89A
:1032C000F0810000F0B581B0044600681D464369F6
:1032D0008FB203EA0701B94202D1002001B0F0BD6C
:1032E0004169164601323CD0490512D47EB300BF75
:1032F000FDF7D0FE411B2068B14203D94169394036
:10330000B9422BD141693940B942E6D041694905FA
:10331000EED5016841F4007101606FF48061416194
:10332000042000212022216384F83D2084F83E10EF
:10333000226C1043206484F83C10012001B0F0BDE1
:1033400041693940B942C8D041694905E1D4FDF726
:10335000A1FE206841693940B942F1D02020E0E760
:1033600041694905D5D441693940B942B5D041696F
:103370004905CED441693940B942AED041694905C9
:10338000C7D441693940B942A7D041694905C0D481
:1033900041693940B942E3D19FE7000070B5044666
:1033A0000068154650F8143F5A063DD40E4629B918
:1033B00026E000BF50F8141F490635D40168C9063D
:1033C00021D4FDF767FE411B2068B142F2D9416963
:1033D0004906EFD400202021206384F83D1084F8B2
:1033E0003E00206C40F0200018E000BFFDF752FEC8
:1033F000206850F8141F4906ECD50168490613D41B
:103400000168C906F2D56FF010010160002020218B
:10341000206384F83D1084F83E00206C2064002076
:1034200084F83C00012070BD002070BD70B50368B9
:10343000044653F8140F000611D40E46481C29D038
:1034400086BB00BF1868400527D4FDF723FE23681C
:1034500053F8140F000637D518680006F2D500207F
:1034600070BD00BF18680006F9D41868400514D470
:1034700018680006F3D4186840050ED418680006D2
:10348000EDD41868400508D4186800064FF0000015
:1034900048BF70BD18684005E4D56FF480601860BF
:1034A000042012E0154603E053F8140F0006D6D4AA
:1034B00018684005F1D4FDF7EDFD401B2368B042CC
:1034C000F2D958690006EFD4202000212022216380
:1034D00084F83D2084F83E10226C104320640120C3
:1034E00084F83C1070BD00002DE9F04385B040F237
:1034F0008408012604A9C2F2000800246425CDE94D
:103500000016D0216B220123C8F800008DF810406E
:103510000295FEF71FFA18B1204605B0BDE8F0830A
:103520003220FDF771FB1821D8F800008DF811103A
:103530000DF11101CDE90016D0211B2201230295C6
:10354000FEF708FA20B10024204605B0BDE8F0835C
:103550000A20FDF759FB00244FF0640902270DF102
:103560001205002607E000BF0220FDF74DFBC72E25
:1035700006F1010612D2D8F80000D021472201231B
:10358000CDE90057CDF80890FEF7B8F80028EBD148
:10359000BDF8120000BA04EB2044E5E700EE104A43
:1035A0009FED091AB8EEC00A80EE010A9FED071AD6
:1035B00000200124C8F8100080EE010A88ED030AFB
:1035C000204605B0BDE8F083000048433333834113
:1035D00010B52DED028B84B040F28404C2F20004D9
:1035E000206802210DF10E024FF0640CCDE900219C
:1035F000D02147220123B0EE408ACDF808C0FEF763
:103600007DF818B104B0BDEC028B10BDBDF80E0002
:103610009FED0E1AC0BA00EE100AB8EEC00A80EE96
:10362000010A94ED031A94ED042A30EE411A84ED58
:10363000010A21EE080A30EE020A84ED021A84ED36
:10364000040A04B0BDEC028B10BD00BF33338341CC
:103650002DE9F04F81B040F23018C2F20008404628
:103660004FF48071FF22FCF7E4FD40F21C5E40F253
:103670000771C2F2000EC0F60701CEF8001040F24A
:10368000087140F2F83C0020C0F608010423C2F2A1
:10369000000CA8F87700A8F88700CEF8041002E024
:1036A0000130984260DA0EEB40011EF810504A7863
:1036B00008EB05170CEB051117F8029011F802B092
:1036C0000E2A13D81BF0010110D1511C7C5CFF2C79
:1036D0000CD107EB010A09F101048AF800400EEB56
:1036E00043040EF813500133617000BF0E2D13D840
:1036F0001BF0020110D1691C08EB0114A65CFF2E1F
:103700000AD1144409F1010626700EEB43040EF8A9
:1037100013100133627000BF82B11BF004010DD1A0
:10372000511E7C5CFF2C09D17C1809F10106267022
:103730000EEB43040EF8135001336170002DAFD02F
:103740001BF00801ACD1691E08EB0114A55CFF2D2C
:10375000A6D1144409F1010525700EEB43040EF8BF
:103760001310013362709BE701B0BDE8F08F0000D9
:10377000B0B540F2E402C2F200021078517892F83B
:1037800002C040F2301240F2F833C2F20002C2F23C
:10379000000302EB001E03EB00131EF801205C5C2B
:1037A0000E2963460BD814F0010508D101EB0E0376
:1037B0005B78934238BF1A46634638BF00230E2811
:1037C00009D814F0020506D10EEB01052D7C9542B7
:1037D0003CBF01232A4651B114F0040507D101EB87
:1037E0000E0515F8015C95423CBF02232A4648B1FC
:1037F00014F0080006D10EEB010010F8100C9042F6
:1038000038BF0323A3EB0C00043081B200EB9131ED
:1038100021F00301401A81B240F201320023C900B5
:10382000C0F20422042838BF22FA01F3D8B2B0BD96
:1038300010B540F2F834C2F2000404F11100DE21A8
:10384000FCF7FEFC40F2E400C2F20000002101801F
:10385000817040F60801A4F8051040F20221A4F896
:10386000F5100821E171022184F8F710012184F894
:103870008F1040F608010C20C0F60811207040F2AD
:103880000140E16040F202214FF0040CA4F81F0057
:103890004FF008324FF00233A4F82F00A4F83F0095
:1038A000A4F84F00A4F85F00A4F86F00A4F87F000C
:1038B000A4F89F00A4F8AF00A4F8BF00A4F8CF00BC
:1038C000C0F20231A4F8DF0040F2016084F810C0B9
:1038D000C4F80120C4F8F130A260C4F8F83084F8CC
:1038E00090C0C4F8FC10A4F8EF00BDE81040FFF74A
:1038F000AFBE000040F2E400C2F20000017840F2E6
:1039000030124078C2F2000202EB0111085CB0FAFA
:1039100080F040097047000080B540F2F830C2F2F4
:1039200000004FF48071FDF7EDF8FFF791FE0120E4
:1039300080BD000080B540F2F830C2F200004FF4C4
:103940008071FDF727F9B0FA80F0400980BD0000D2
:10395000013803283FD8DFE800F00329131D00BF1A
:1039600040F2E400C2F200008178032988BF70476A
:10397000DFE801F0022E262A4178013141707047BC
:1039800040F2E400C2F200008178013101F003014D
:103990008170704740F2E400C2F20000817801F0CB
:1039A000030181F002018170704700BF40F2E40022
:1039B000C2F200008178013901F003018170704783
:1039C00041780139417070470178013902E000BF48
:1039D000017801310170704770B540F2E406C2F21F
:1039E000000640F2F8323378C2F20002717802EB3E
:1039F0000314625C40F2012C42F0100363544578DA
:103A0000B678C0F6040C012D04EB010E0BD1032E89
:103A100009D8F100C9B20CF1103323FA01F142EADE
:103A200001038EF800300178012909D1182101EB3A
:103A3000C60101F018012CFA01F10B438EF8003099
:103A40008078012818BF70BD082000EBC60000F088
:103A500018002CFA00F018438EF8000070BD00002A
:103A6000FEE70000B0B540F29804C2F20004DFEDBA
:103A7000110ADFED111A9FED112A04F10C00B0EECE
:103A8000000AB6EE001A00F029F9DFED0D0A9FEDED
:103A90000D1ADFED0D1A9FED0D2A04F12C00B1EE89
:103AA000000A00F01BF900200021002500F048FB6F
:103AB0002580B0BD00000000000096C300009643C2
:103AC000CDCCCC3DCDCC4C3F0000FAC30000FA4336
:103AD00040F29800C2F20000407880F00100704788
:103AE00010B540F29804C2F2000484ED010AFCF71C
:103AF00073FF04F10C0000F001F940F20110208086
:103B000010BD000010B540F29804C2F2000404F1A8
:103B10002C0084ED020A00F0F1F84FF4817020804F
:103B200010BD000010B500200021002400F008FBAB
:103B300040F29800C2F20000048010BDB0B52DED37
:103B4000068B82B040F29804C2F20004207800286C
:103B50005CD00020CDE9000001A86946B0EE408AA3
:103B6000FCF702FF9DED019A9DED00AA00F0CAF955
:103B70002178022922D0012948D139EE0A0AB6EE6D
:103B8000001A94ED012A20EE010AB4EE420AF1EE89
:103B900010FA35DA017811B9817801293AD1D0EDDE
:103BA000010A9FED230A04F10C00B0EE481A00F060
:103BB00043F8BDEEC00A10EE100A2CE094ED020AA4
:103BC000D0ED020AB7EE002A30EE601AB0EEC11A4C
:103BD000B4EE421AF1EE10FA12DB04F12C00B0EE52
:103BE000481A00F029F8BDEEC00A10EE100A424251
:103BF00001B210B200F0A4FA02B0BDEC068BB0BD69
:103C000000200021002500F09BFA258002B0BDECC9
:103C1000068BB0BD0020C0F5C87100F5C87208B2AF
:103C200011B200F08DFA02B0BDEC068BB0BD00BF42
:103C300000000000FEE70000B5EE401AF1EE10FAB9
:103C4000DCBF9FED250A704730EE602A90ED044AF4
:103C500090ED070A22EE015A90ED003A35EE044A43
:103C6000B4EE404A22EE033AF1EE10FA80ED044A37
:103C700006DCB1EE400AB4EE404AF1EE10FA03DA87
:103C8000B0EE404A80ED040A90ED030A90ED015A2F
:103C900032EE400A80EE011A90ED026A25EE044AE7
:103CA00090ED060A33EE043A26EE011A33EE011ABD
:103CB000B4EE401AF1EE10FA0ADC90ED053AB0EEDF
:103CC000410AB4EE431AF1EE10FAB8BFB0EE430A5F
:103CD00080ED032A704700BF0000000080EC030A5B
:103CE000B6EE000A22EE000A0021C0ED051A80EDB2
:103CF000062A80ED070AC0E9031170470021C0E9D8
:103D0000031170477047000010B540F21004C2F272
:103D100000046078DFE800F002400C200020C4F2CC
:103D200002000421FDF7AAF9002857D010BD00BFFA
:103D3000FFF7CEFE0028F9D02078FFF709FEFFF745
:103D4000D9FD00285CD0FFF7EDFE5AA000F0F4FE8C
:103D50000320607010BD00BF0020C4F202000421E7
:103D6000FDF78CF90028E1D1FDF794F9A168401A1C
:103D7000C92838BF10BDFDF78DF9A0603CA000F048
:103D8000DBFEFFF755FDFFF7C7FDFFF761FC4FF4C2
:103D90000070208010BD00BFFFF79AFE0028C5D03C
:103DA0002078FFF7D5FDFFF7A5FD002832D044F6B7
:103DB000BA30C0F6000000F0BFFEFFF7B3FEFFF719
:103DC000B9FD0020C4F2020000F500604FF400517C
:103DD0000122FDF759F90320607010BDFDF75AF973
:103DE000A168401AC928A1D3FDF754F9A0603BA0EF
:103DF00000F0A2FEFFF71CFD4FF48070208010BD84
:103E0000FFF7B6FC411E032920702BD8DFE801F034
:103E10001224181E00F076F8FFF7DEFDFFF718FCFD
:103E2000FFF7A6FC411E032920701BD8DFE801F034
:103E30000214080E9FED1C0ABDE81040FFF750BEAB
:103E40009FED1A0ABDE81040FFF75CBE9FED160A11
:103E5000BDE81040FFF756BE9FED150ABDE81040C3
:103E6000FFF750BEFFF75EFE0320607010BD00BF7D
:103E70005B5359535D204C6F6164696E67204D61DF
:103E8000702066726F6D20466C6173682026205327
:103E900074617274696E6720466173742052756E26
:103EA0002E2E2E0D00000000000034430000B4C28E
:103EB0000000B4425B5359535D2046617374205235
:103EC000756E20436F6D706C657465642053756307
:103ED0006365737366756C6C79210D005B53595380
:103EE0005D205374617274696E67204578706C6FE1
:103EF000726174696F6E2052756E2E2E2E0D000049
:103F00007047000040F22070C2F2000070470000CD
:103F100040F22070C2F20000002101808170C0E9EF
:103F20000111704710B50288002340F2207C822ADC
:103F300038BF0123C2F2000CB0F806E08CF8003064
:103F40000023BEF1820F38BF01238CF80230438872
:103F5000808800241844B0F5827F38BF0124812A6C
:103F60008CF801400ED802EE102ABEF1810FB8EE97
:103F7000422A13D803EE10EAB8EE433A32EE432A4F
:103F800016E000BFBEF1810F10D802EE10EA9FEDDF
:103F90001A3AB8EE422A33EE422A03E09FED173A6E
:103FA00032EE032A32EE022A02E000BF9FED112A10
:103FB0009FED133A30EEC00A80EE030A9FED113AEE
:103FC0008CED012A91ED012A22EE011A9FED0E2AB5
:103FD00020EE030A9CED023A20EE020A31EE031AAB
:103FE0009FED0A3A21EE031A31EE000A8CED020A27
:103FF00010BD00BF0000000000005C4200005CC279
:1040000000009642E02E6542CDCC4C3D3333733FE9
:10401000FDF7C8BD70B592B006AC20463021FCF764
:104020000FF9002543F640000595CDE90355CDE98C
:1040300001550095C4F202000168022641F080514A
:104040000160006800F080500090009847F2000086
:104050000095C4F20000016841F44041016000682D
:1040600000F4404000900098012006904FF480300A
:1040700007904FF480000D900C200E906020CDE949
:104080000F060420119020460C96FDF743FF18B14F
:1040900072B600BFFEE700BF0F20CDE901064FF466
:1040A0008050CDE9040501A803210395FDF720FE0A
:1040B00010B172B6FEE700BF12B070BD4EF6885068
:1040C000CEF20000016841F4700101607047000009
:1040D00070B540F21855C2F2000500212860002694
:1040E000FEF70EFD28680421FEF70AFD40F20044A9
:1040F000C4F20204A4F5806020210122FCF7C4FF71
:1041000020464FF480510122FCF7BEFF20464FF4B9
:1041100000510022FCF7B8FF28684FF48041006886
:10412000012246632046FCF7AFFF20464FF40041D2
:104130000022FCF7A9FF28680068866370BD0000B4
:1041400070B540F20045C4F202050C460646002850
:1041500028464FF4805109D40122FCF795FF2846E8
:104160004FF400510022FCF78FFF09E00022FCF71A
:104170008BFF28464FF400510122FCF785FF764261
:1041800030B240F21856C2F20006B0F57A7FA8BFEE
:104190004FF47A70316880B20968002C4863284671
:1041A0004FF480410AD40122FCF76EFF28464FF4F9
:1041B00000410022FCF768FF0AE000BF0022FCF784
:1041C00063FF28464FF400410122FCF75DFF644283
:1041D000316820B2B0F57A7FA8BF4FF47A700968D1
:1041E00080B2886370BD000010B540F2FF7E0368A6
:1041F000C4F2000E40F2000C7045C4F2010C1DDD4B
:1042000040F60002C4F20002904220D060451ED069
:1042100040F60042C4F20002904218D04FF6FF72FE
:10422000C4F2000290421CDC704525DCB0F1804FE6
:104230003AD040F20042C4F2000233E0B0F1804FC5
:1042400005D040F20042C4F200029042E6D14A6832
:1042500023F0700313434FF6FF72C4F20002904242
:10426000E2DD44F2FF32C4F20102904210DC60450C
:104270001AD044F2000213E040F60002C4F2000239
:10428000904211D040F60042C4F200020AE000BFA2
:1042900044F60002C4F20102904205D044F200420A
:1042A000C4F20102904203D1CA6823F4407313435D
:1042B00023F080024B69D1F800E08C681A43604516
:1042C0000260C462C0F828E002D10969CCF830105D
:1042D000012141610169C90708BF10BD016921F0D1
:1042E0000101016110BD0000B0B50446006804F191
:1042F00008030ECB0569194325F440552A43026192
:104300006269E3691143C268194349F20C639A4335
:104310001143C1604169A26921F4407141F2004337
:10432000114340F48062C4F201039A42416103D117
:10433000FDF7A4FD02E000BFFDF78CFDE1694FF63B
:104340009C7563681922C0F6FF75B1F5004FA0FB9C
:1043500002011FD15A00DB0FFBF73AFF48F21F5151
:10436000C5F2EB11A0FB01235A0905F1805302FBB2
:104370000300322303EBC000A0FB01014FF4F870EF
:1043800000EA111000EB0210C1F342110844216849
:104390008860B0BD9A009B0FFBF71AFF48F21F51CF
:1043A000C5F2EB11A0FB01235A0902FB05003223E1
:1043B00003EB0010A0FB0101F02000EA511000EB1C
:1043C0000210C1F34311084421688860B0BD0000A9
:1043D000FEE70000F0B583B040F21C760025C2F283
:1043E0000006C4F202053060284608210022FCF7CE
:1043F0004BFE284610210022FCF746FE05F580649E
:10440000204601210022FCF73FFE20460221002227
:10441000FCF73AFE0A200A27FCF7F6FB284608219B
:104420000122FCF731FE0520FCF7EEFB42F68A2163
:104430003068ADF8041001AA522102230097FDF75D
:104440006FF8284610210122FCF71EFE0520FCF71C
:10445000DBFB42F68A313068ADF806100DF106023A
:10446000522102230097FDF75BF82046012101222B
:10447000FCF70AFE0520FCF7C7FB42F68A413068CC
:10448000ADF8081002AA522102230097FDF748F860
:10449000204602210122FCF7F7FD0520FCF7B4FBC2
:1044A00042F68A513068ADF80A100DF10A02522125
:1044B00002230097FDF734F8012003B0F0BD00009F
:1044C0002DE9F04385B040F21C76C2F200060446A6
:1044D00030684FF014094FF000080A250DF107026B
:1044E000542101238DF80790ADF804800095FDF765
:1044F00017F8306801AA542102230095FCF782FEC8
:10450000BDF80410002841F6FE7009BA08BF080C77
:10451000208030680DF10B025621012341F6FE7711
:104520008DF80B90ADF808800095FCF7F9FF306826
:1045300002AA562102230095FCF764FEBDF808107C
:10454000002841F6FE7009BA08BF080C6080306888
:104550000DF10F02582101238DF80F90ADF80C805A
:104560000095FCF7DDFF306803AA5821022300956F
:10457000FCF748FEBDF80C10002841F6FE7009BAA1
:1045800008BF080CA08030680DF113025A210123E6
:104590008DF81390ADF810800095FCF7C1FF3068DE
:1045A00004AA5A2102230095FCF72CFEBDF8101036
:1045B000002809BA08BF0F0CE78005B0BDE8F083FA
:1045C00080B582B040F2E801C2F200014A68019071
:1045D0003AB101A9104601224FF0FF33FEF774FBF8
:1045E000019802B080BD000098B040F20008C4F20B
:1045F0000208FDF7E5FAFFF70DFD002443F6300051
:104600001394CDE91144CDE90F440094C4F20200A3
:10461000016808F5006641F00401016001680022AC
:1046200001F0040100910099009401684FF40057D3
:1046300041F080010160016801F080010091009962
:104640000094016841F001010160016801F001017D
:10465000009100990094016841F002010160006836
:104660004FF4005100F00200009000983046FCF733
:104670000BFD4046382100224FF03809FCF704FDBD
:1046800008F5806528464FF2030100224FF2030A25
:10469000FCF7FAFC0F970FAF4FF0010B304639468D
:1046A000CDE910B41294FCF719FC04200F904FF4DC
:1046B0008810CDE9100440463946FCF70FFC40460F
:1046C0003946CDE90F9BCDE91144FCF707FC28469C
:1046D0003946CDE90FABCDE91144FCF7FFFB40F2C1
:1046E0003020A8F5D631C2F2000048F2A0624FF4A3
:1046F0008045C0F2010280E81600C0E90345C0E928
:104700000544C0E90744FCF7CBFC18B172B600BF02
:10471000FEE700BF40F28420A8F5D431C2F20000C9
:1047200041F68022C0F2060280E81600C0E9034587
:10473000C0E90544C0E90744FCF7B2FC10B172B609
:10474000FEE700BF40F2D8200021A8F58032C2F277
:104750000000632340F2E737CDE90C11CDE90811E1
:104760001691CDE91411CDE91211CDE91011CDE961
:104770000E11C0E90023C0E90217C0E904118161EC
:10478000FDF724FE10B172B6FEE700BF4FF4805073
:104790000B9040F2D820C2F200000BA9FDF774FE86
:1047A00010B172B6FEE700BF40F2D820C2F200009E
:1047B000FEF776F910B172B6FEE700BF40F2D820DE
:1047C000C2F2000008A9FDF7B7FD18B172B600BF2C
:1047D000FEE700BF602000900020CDE90100CDE998
:1047E0000300CDE9050040F2D820C2F2000069467E
:1047F0000022FEF757F818B172B600BFFEE700BFFF
:1048000040F2D820C2F2000069460422FEF74AF8BE
:1048100010B172B6FEE700BF4FF40050149040F2A2
:10482000D8200024C2F200000FA91394CDE911444E
:10483000CDE90F441694FDF759FD18B172B600BFCB
:10484000FEE700BF40F2D820C2F20000FDF7FCFFF7
:1048500040F21005C2F200054FF08041284640F8B2
:10486000241F4FF0FF31C0E903140321CDE90F14D9
:104870000121CDE91114CDE915140FA9CDE90044AA
:10488000C0E901448461CDE913441794FDF7CCFEDF
:1048900010B172B6FEE700BF05F124066946304646
:1048A000FDF74AFD10B172B6FEE700BF40F22030BE
:1048B0000021A8F5FE32C2F20000C0E90021032267
:1048C0004FF6FF73CDE90F210122CDE90011C0E9B8
:1048D000021301618161CDE91121CDE91311CDE907
:1048E000152117910FA9FDF79FFE08B172B6FEE7DB
:1048F00040F22030C2F200006946FDF71DFD08B10C
:1049000072B6FEE740F2B030A8F56C41C2F200008A
:1049100000240C234FF4E13280E81600C0E9034480
:10492000C0E90534C461FEF763F908B172B6FEE769
:1049300040F26830A8F5FA31C2F200004FF0FF33C0
:104940001294CDE91044CDE90044632280E81600BA
:10495000C0E903348461FDF739FD08B172B6FEE7A2
:104960004FF480500F9040F26830C2F200000FA95F
:10497000FDF78AFD10B172B6FEE700BF40F2683065
:10498000C2F200006946FDF7D7FC08B172B6FEE737
:10499000404620210122FCF777FB40F22031C2F291
:1049A00000013046FCF702F840F2D820C2F20000C5
:1049B000FFF78EFB44F69830C0F6000000F0BCF81C
:1049C00040F23020C2F20000FFF704FD44F67431DB
:1049D00044F6E632C0F60001C0F60002002808BF27
:1049E0001146084600F0A8F840F28420C2F2000008
:1049F000FEF77AFD2DA124A2002808BF1146084623
:104A000000F09AF8FFF784FAFFF72CF8FEF710FF92
:104A10002FA000F091F8FCF73DFB9FED3B9A00249E
:104A20000DF13C08E94605F10C0605F11407686034
:104A3000FCF730FB6968411A0A29F9D300EE101A15
:104A4000B8EE400A68604046494680EE098A0F94F5
:104A50000094FBF789FF3046FFF732FDB0EE480ABD
:104A6000FEF7B6FD9DED0F0ADDED000A3046394632
:104A7000B0EE481AFFF756FAB0EE480AFFF75EF8B4
:104A8000FFF742F9D4E700BF5B5359535D205B4FFA
:104A90004B5D204D50553635303020496E69746974
:104AA000616C697A65642E0D000000005B535953F8
:104AB0005D205B4552524F525D204D50553635308A
:104AC0003020496E6974204661696C6564210D006F
:104AD0005B5359535D2053797374656D2052656142
:104AE00064792E20507265737320537769746368FC
:104AF00020746F205374617274204578706C6F72EB
:104B00006174696F6E2E0D0000007A4402E008C8DF
:104B1000121F08C1002AFAD170477047002001E037
:104B200001C1121F002AFBD1704730380A2801D278
:104B3000012070470020704710B5044601E0FFF7E0
:104B40003FFD14F8010B04490028F8D1BDE81040DE
:104B50000A20FFF735BD0000000000200000000023
:104B6000000000000102030406070809000000001D
:104B7000010203045B5359535D205B4552524F526F
:104B80005D20564C35334C305820496E69742046B0
:104B900061696C6564210D005B5359535D202D2DB7
:104BA0002D204D4943524F4D4F55534520535441AD
:104BB00052545550202D2D2D0D005B5359535D201F
:104BC000476F616C205265616368656421205361A1
:104BD00076696E67204D617020746F20466C61733A
:104BE000682E2E2E0D005B5359535D205B4F4B5D9D
:104BF00020564C35334C305820496E697469616CCD
:104C0000697A65642E0D0000284C00080000002021
:104C1000100000000C4B0008384C00081000002069
:104C2000200B00001C4B00080000000001000000E9
:084C3000100000000024F40054
:040000050800019955
:00000001FF
