:020000040800F2
:10000000500B0020AD010008A14E0008512F000840
:10001000994B0008950900084D57000800000000A2
:10002000000000000000000000000000BD510008BA
:100030009909000800000000714F0008555300089E
:10004000C7010008C7010008C7010008C701000870
:10005000C7010008C7010008C7010008C701000860
:10006000C7010008C7010008C7010008C701000850
:10007000C7010008C7010008C7010008C701000840
:10008000C7010008C7010008C70100080000000000
:10009000000000000000000000000000C701000890
:1000A000C7010008C7010008C7010008C701000810
:1000B000C7010008C7010008C7010008C701000800
:1000C000C7010008C7010008C7010008C7010008F0
:1000D000C7010008C7010008C701000800000000B0
:1000E000C7010008C7010008C701000800000000A0
:1000F000000000000000000000000000C701000830
:1001000000000000C7010008C7010008C70100087F
:1001100000000000000000000000000000000000DF
:10012000C7010008C7010008C7010008C70100088F
:10013000C7010008000000000000000000000000EF
:10014000000000000000000000000000C7010008DF
:10015000C7010008C7010008C7010008C70100085F
:10016000C7010008C70100080000000000000000EF
:10017000000000000000000000000000000000007F
:1001800000000000C701000800000000000000009F
:10019000C7010008C7010008DFF80CD000F046FBDB
:1001A00000480047415A0008500B0020064880478D
:1001B00006480047FEE7FEE7FEE7FEE7FEE7FEE74C
:1001C000FEE7FEE7FEE7FEE701540008990100089C
:1001D0002DE9F05F0546002092469B46884606467C
:1001E000814640241BE0284641464746224600F00F
:1001F00004FA53465A46C01A914110D31146184684
:10020000224600F0EBF92D1A67EB01084F46224613
:100210000120002100F0E2F917EB00094E41201EF9
:10022000A4F10104DFDC484631462A464346BDE8D6
:10023000F09F40EA01039B0703D009E008C9121FA1
:1002400008C0042AFAD203E011F8013B00F8013B90
:10025000521EF9D27047D2B201E000F8012B491EBC
:10026000FBD270470022F6E710B513460A46044653
:100270001946FFF7F0FF204610BD00002DE9FF4FA3
:10028000087883B09946FF2805D0491C2D2804D052
:100290000024002008E000200BE00124F9E700EB37
:1002A000800003EB4000491C0B78FF2BF7D104B111
:1002B000404200230293147819461D462D2C01D08C
:1002C0002B2C04D1521C2D2C13D000240294AA46AE
:1002D0001478FF2C0FD00A25A3FB057801FB0581BC
:1002E0004FF0000C03FB0C11521CE3194AEB010107
:1002F000EEE70124EAE7814453EA010002D019F550
:10030000C87F06DA03980021C0E9001107B0BDE8F4
:10031000F08F0025AE4E2F46DFF8B882184600F069
:100320005DFACDE90001B9F1000002DAC9F100047B
:1003300000E004460023A74A1AEB030B42EB045AE1
:1003400012E0E00707D02A4633463846414600F01F
:1003500064F9074688462A4633461046194600F097
:100360005CF905460E466410002CEAD1DDE9000177
:10037000B9F1000F5A46534606DA00F0C0F93A4682
:10038000434600F0BCF905E000F047F93A46434621
:1003900000F043F9029A0AB181F00041039AC2E9E0
:1003A0000001B3E72DE9FF4F1F468DB0D7E90146A5
:1003B0004FF0FF382E2045464FF000090B90B969E9
:1003C0006D1C0E988847396A824688470028F6D106
:1003D000BAF1FF3F0AD024F4D064002E11DDBAF147
:1003E0002B0F08D0BAF12D0F0BD102E0404611B00F
:1003F0008DE744F48064B9696D1C0E988847824685
:10040000761E6946600501D52D2000E02B208DF871
:10041000000001F1010B0DF1200809E0B9696D1C24
:100420000E98884782460F9844F40074761E056043
:10043000002E02DDBAF1300FF0D00B998A453ED183
:1004400044F0800406E00F99681CA9F1010944F406
:1004500000740860B9696D1C761E0E988847824644
:100460003028F0D02BE00B998A4505D1200603D423
:1004700044F08004761E18E0504605F094FD08B361
:100480000DF11302761EAAF1300044F40074934576
:1004900006D20BF8010B200607D5A9F1010003E0F5
:1004A000200602D409F101008146A00502D50F996A
:1004B000681C0860B9696D1C0E9888478246002E3A
:1004C000D1DC53E0002E51DDBAF1650F02D0BAF154
:1004D000450F4BD1A00549D5B9696D1C24F4407472
:1004E000761E0E9888478246002E0CDD2B2804D0FD
:1004F000BAF12D0F07D144F48074B9696D1C0E98C0
:1005000088478246761EE00501D52D2100E02B218B
:1005100008F8011BCDF82C8021E00DF12901761E91
:1005200044F4007488450CD2AAF1300010F0FF00AA
:1005300088F8000002D10B99884509D908F1010813
:1005400006E0E00501D5244801E042F20F70814643
:10055000B9696D1C0E98884782460F980560002E79
:1005600004DD504605F01FFD0028D6D1F9690E982C
:100570008847FF208BF8000088F8000000200690D4
:1005800007904B466A4608A906A8FFF777FEA00524
:1005900002D46FF001002AE714F0240F0AD0E0071C
:1005A00014D1DDE906123868031D3B600068C0E91C
:1005B00000120BE0DDE9060100F01CF90146E0073E
:1005C00004D13868021D3A600068016028460EE7D1
:1005D000000014400000F03FF1D8FFFF202A04DBA8
:1005E000203A00FA02F1002070479140C2F1200346
:1005F00020FA03F3194390407047202A04DB203A85
:1006000021FA02F00021704721FA02F3D040C2F132
:10061000200291400843194670472DE9FE4F81EAB8
:10062000030404F0004421F0004100944FF0000B5B
:1006300023F0004350EA01045ED052EA03045BD089
:10064000C3F30A54C1F30A552C44A4F2F3340194C1
:10065000A0FB0254C1F3130141F48011C3F313034F
:1006600043F4801301FB024400FB034E840A970A03
:1006700044EA815447EA8357A4FB076802958D0A30
:1006800005FB07854FEA932C04FB0C542705029DBC
:100690004FEA065847EA1637B5EB08056EEB070C2C
:1006A000870E920E47EA811742EA8312A7FB0201E6
:1006B000B6EB0B0164EB00042B0D43EA0C335E1820
:1006C00044EB1C50DA465146E7FB0201C5F3130424
:1006D0004FEA0B3343EA14534FEA0432019C43EAD6
:1006E0000603A4F10C040294009CCDE900B400F0D0
:1006F000FBF803B0BDE8F08F00200146F9E72DE9D3
:10070000F04D81EA030404F0004B21F0004514464B
:100710004FF0000A23F0004150EA050220D054EACD
:1007200001021DD0C5F30A570246C5F31303C1F3F6
:100730001300C1F30A5640F4801543F48013A7EB6D
:100740000608101BD64608F2FD3873EB050002D3ED
:1007500008F1010801E092185B41B8F1000F03DADB
:1007600000200146BDE8F08D00204FF480110646C0
:1007700084460EE0171B73EB050705D3121B63EBD2
:10078000050306434CEA010C49084FEA3000921871
:100790005B4150EA0107EDD152EA030012D082EA30
:1007A000040083EA0501084305D0101BAB4106D2C3
:1007B0000122002306E000224FF0004302E06FF028
:1007C000010253101AEB06004CEB085110EB0A0023
:1007D00041EB0B01BDE8F04D00F077B80EB540F2EB
:1007E000334202920022CDE90022134600F07CF849
:1007F00003B000BD01F0004330B421F0004150EAE5
:10080000010206D00A0DA2F56072C1F31301002A9D
:1008100002DC30BC00207047440F44EAC104C10030
:10082000E01830BC00EBC25000F018B81CB5094805
:100830000090094801900546009C06E0E06840F001
:10084000010394E8070098471034AC42F6D3FFF751
:10085000A7FC000084600008A46000080029A8BF6D
:100860007047401C490008BF20F00100704710B4D9
:10087000B0FA80FC00FA0CF050EA010404BF10BC8E
:10088000704749B1CCF1200421FA04F411FA0CF1BB
:1008900018BF012121430843A3EB0C01CB1D4FEAF4
:1008A00000614FEA102042BF002010BC704700EBEF
:1008B000C35010440029A4BF10BC7047401C49001D
:1008C00008BF20F0010010BC704710B5141E73F172
:1008D000000408DA401C41F1000192185B411A4300
:1008E00001D120F0010010BD2DE9F04D92469B464C
:1008F00011B1B1FA81F202E0B0FA80F220329046F2
:10090000FFF76CFE04460F4640EA0A0041EA0B017D
:1009100053465A46084313D0114653EA010019D0F2
:10092000C8F140025046FFF768FE05460E465046A5
:1009300059464246FFF752FE084305D0012004E025
:1009400020463946BDE8F08D0020054346EAE076B2
:100950002C4337430A986305E40AA0EB0800002201
:10096000FD0A44EA47540A3002D500200146E9E76F
:10097000010510196941DDE9084500196941BDE823
:10098000F04DA2E740F21011C2F2000101224860CE
:1009900002F0EAB9FEE7000070470000F0B540F24F
:1009A0007C02C2F2000202F1040E9EE808501769B0
:1009B0001B689FED111A5B6ADCF80040646A1588B9
:1009C00056885D1B0EFA85F500EE105AA61BB8EE90
:1009D000C00A07FA86F720EE010A80ED000A00EE51
:1009E000107AB8EEC00A20EE010AC2E9035713805C
:1009F000548081ED000AF0BD35FA8E3D10B540F20D
:100A00007C04C2F20004C4E901013C2101F006FFAC
:100A1000A0683C2101F002FFD4E901010068406AAE
:100A200009682080486A60800020C4E9030010BD86
:100A300040F27C00C2F20000D0E901120968496A64
:100A400012680180516A41800021C0E9031170479A
:100A5000F0B581B040F22057044643F60C46C2F28E
:100A600000070020C4F20206F86100F049FB31687B
:100A7000C9031DD43068C0071CBF01203060306836
:100A800010F4F97F32D03068C00633D43068800665
:100A900039D4306840063FD43068000645D4306809
:100AA000C0054BD43068800752D4012001B0F0BD9E
:100AB000C4B10546601C10D13068C003DAD5306877
:100AC000C00344BF30685FEAC030D3D53068C0038C
:100AD000F2D4CFE73068C003CCD500F011FB401B47
:100AE000A042F7D9032001B0F0BD00BF002001B043
:100AF000F0BD00BFF86940F01000F86110203060D0
:100B000030688006C5D5F86940F00800F8612020FB
:100B1000306030684006BFD5F86940F00400F861E5
:100B20004020306030680006B9D5F86940F0020016
:100B3000F861802030603068C005B3D5F86940F0B6
:100B40000100F8614FF48070306030688007ACD5E8
:100B5000F86940F02000F86102203060012001B007
:100B6000F0BD0000002908BF704770B540F2010ECB
:100B7000C0F6060E042901F0030C07D20021BCF1D7
:100B8000000F1CD1BDE87040704700BF21F0030189
:100B90004942421C6FF003030EEB0304E578D618BC
:100BA000F57025790433357165797571A479CD189F
:100BB0000435B471F0D1191DBCF1000FE2D00EEB79
:100BC000010212F8012CBCF1010F4254DAD04A1C88
:100BD0000EEB020313F8013CBCF1020F8354D1D099
:100BE00002310EEB010212F8012C4254BDE87040B4
:100BF00070470000F0B587B00C46054600F084F958
:100C0000002002900220069007200490012602A8EE
:100C100001A9059600F03AF8074600F0FDF81FB16B
:100C2000304607B0F0BD00BF00F06EF974B1002689
:100C3000C0F6060615F8012B00203146002300F00F
:100C4000F5F848B9013C06F10106F3D1002600F0A1
:100C5000E3F8304607B0F0BD012600F0DDF830467D
:100C600007B0F0BDB0B5044600F04AFA054640F2C0
:100C70000400C2F200000078611C18BF044400BFE9
:100C800000F03EFA401BA042FAD3B0BD2DE9F0437C
:100C900081B040F22058C2F2000898F81820012ACA
:100CA00004D1022001B0BDE8F08300BF0546012059
:100CB00088F818004CF250308946FFF7C9FE28B179
:100CC000002188F8181001B0BDE8F0834FF0FF3024
:100CD000C9F80000286843F610470128C4F202074B
:100CE0001CD128693968000221F4407139603968E3
:100CF00080B241F0040139603968084340F4803023
:100D000038604CF25030FFF7A3FE396821F004013F
:100D1000396057F8101C89053BD452E0D5E90260D0
:100D20003044864230D2F000841C00BF28694FF462
:100D30004072C1B2032939684FEA002021F44071A2
:100D40003960396838BF82B241EA020038603868D9
:100D500020F0F8003860386820433860386840F484
:100D6000803038604CF25030FFF772FE396800284E
:100D700021F0FA01396047D1D5E902010136084472
:100D8000864204F10804D1D3002057F8101C8905CD
:100D900017D557F8101C21F4007147F8101C57F8AC
:100DA000101C41F4006147F8101C57F8101C21F486
:100DB000006147F8101C57F8101C41F4007147F807
:100DC000101C57F8101C49057FF57AAF57F8101C16
:100DD00021F4806147F8101C57F8101C41F4805131
:100DE00047F8101C57F8101C21F4805147F8101CCC
:100DF00057F8101C41F4806147F8101C002188F856
:100E0000181001B0BDE8F083C9F8006057F8101C55
:100E10008905BED4D5E7000043F61041C4F20201B3
:100E2000086840F0004200200A6070472DE9F04158
:100E300040F22054C2F20004277E012F04BF02209A
:100E4000BDE8F0810546012020764CF250309846EE
:100E50000F461646FFF7FCFD20B100212176BDE8C4
:100E6000F08100BF2A46022D43F61045C4F2020568
:100E70001ED0012A314638460CD03ABB2A6822F4EB
:100E800040722A602A682A602A6842F001022A60B9
:100E900001702CE02A6822F440722A602A6842F429
:100EA00080722A602A6842F001022A6001801EE0F6
:100EB000286820F440702860286840F4007028609A
:100EC000286840F0010028603E6010E02A6822F4A3
:100ED00040722A602A6842F440722A602A6842F00E
:100EE00001022A600160BFF36F8FC0F804804CF2EA
:100EF0005030FFF7ADFD296821F001012960002184
:100F00002176BDE8F081000043F60440C4F20200FF
:100F1000C168B1F1FF3FC4BF0020704740F2231108
:100F2000C4F26751016048F6AB11CCF6EF51016095
:100F3000C068C00F704700002DE9F04F83B000F18A
:100F4000200200F13E4741F20005009207F1FF77D1
:100F5000C4F2020507224FEAB726A84208BF0422BE
:100F600000254FF000084FF00009042E38BF4FEA6B
:100F7000B72201920AE000BF09F1010908F1020855
:100F8000B9F1100F05F1040500F0A2800F680122ED
:100F900002FA09FE17EA0E0AEED0D1F804C00322C5
:100FA0000CF003077E1E02FA08F4012E6FEA040B10
:100FB00012D88468CE6804EA0B0406FA08F63443B3
:100FC0008460446824EA0E06CCF3001404FA09F4A1
:100FD0002643466004E000BF032F01D103271EE033
:100FE000C6688C6806EA0B0604FA08F42643022F4A
:100FF000C66014D16FF00302009E02EA590756F84A
:1010000007C005F01C040F220B69A2402CEA020263
:10101000A3401A43F251D1F804C00CF00307026850
:1010200007FA08F302EA0B021A431CF4403F02607D
:10103000A2D0002243F644030292C4F202031A68CB
:1010400043F6004442F480421A601A68C4F2010474
:1010500002F480420292029A29F003024FF6084CF1
:101060002244CFF6FF7C52F80C3005F00C070F2617
:10107000BE40B343019E06FA07F73B4342F80C30EB
:10108000A2684B6842EA0A0743F60C4CDE0258BFDE
:1010900022EA0A07A760C4F2010CDCF800209E02D5
:1010A00042EA0A0758BF22EA0A07CCF800706268D1
:1010B0009E0342EA0A0758BF22EA0A0767602268CD
:1010C000DB0342EA0A0758BF22EA0A07276053E710
:1010D00003B0BDE8F08F00000069084018BF012090
:1010E00070470000426902EA0103914341EA03416B
:1010F00081617047002A08BF0904816170470000C0
:1011000040F24870C2F2000000687047002804BF37
:1011100001207047F0B581B0044690F83D0028B931
:10112000002084F83C00204600F0F8FC242084F8DD
:101130003D002068016821F001010160016841F46F
:1011400000410160016821F40041016000F0CAFE25
:10115000636848F2A16CC0F2010C40F60011C0F2C5
:101160003D0163453CBF48F28041C0F21E01884208
:1011700002D2012001B0F0BD4DF68361C4F21B31F3
:10118000A0FB01122168970CD1F804E04FF4967689
:101190002EF03F0545EA92454D60774348F63816F4
:1011A0000D6AC0F24106A7FB067625F03F076345AE
:1011B00038BF960C721C3A430A62CA6948F2A066AC
:1011C0004CF6FF77C0F20106B34222EA07020BD8C1
:1011D00001385B00B0FBF3F001306FF31F300428DF
:1011E00098BF04201BE000BFA768013857B119273A
:1011F0007B43B0FBF3F001306FF31F3070B100F5AB
:10120000804007E003EB4303B0FBF3F001306FF3E2
:101210001F3018B100F5004001E000BF012010436D
:10122000C8610868D4E9072320F0C00010431843C0
:101230000860886848F2FF3204F10C0790438CCFB5
:1012400018431043A6698860C86820F0FF0038433F
:101250003043C860086840F0010008600020202189
:10126000206484F83D10206384F83E0001B0F0BD96
:101270002DE9F04383B01F46164689460446FFF722
:101280003FFF94F83D10202924D10546206800BF77
:10129000816989071AD5FFF733FF411B20681A2996
:1012A000F6D381698907F3D500202021206384F8D3
:1012B0003D1084F83E00216C41F02001216484F847
:1012C0003C00022003B0BDE8F08300BF94F83C105E
:1012D000012903D1022003B0BDE8F083012184F885
:1012E0003C100168C90703D1016841F001010160A8
:1012F000016840F2040821F400610160222184F8B1
:101300003D10102184F83E1000212164666267853B
:10131000618DC0F201082185A8F500310439E16230
:10132000E16A02680A9F42F4806211F5803F026020
:1013300018BF012942D1016841F480710160204643
:101340004FF0011100223B46009501F04FFF58B1CC
:1013500020680068C00544BF4FF40070206401207D
:1013600003B0BDE8F08300BF2069B0F5804F2BD1FA
:1013700049F00100C0B221683A460861A8F10201B3
:1013800020462B4602F018F80028E8D1208D0028CE
:101390005AD002284ED001286ED121680A6822F462
:1013A00080620A60002202924A6902928A6902926D
:1013B000029A0A6842F400720A6078E00829BAD0FA
:1013C000216B1129B7D0BAE7062000EAD9162068A8
:1013D00006F1F001016108F1040120463A462B466E
:1013E00001F0EAFF0028BAD120685FFA89F10161B3
:1013F000A8F1020120463A462B4601F0DDFF002805
:10140000ADD1002002902068002241693B46029144
:10141000816902910299016841F48071016020465E
:101420004FF00111009501F0E1FE002890D146F047
:10143000F100A0E721680A6822F480620A600A6865
:1014400042F400621CE000BF002002902068416965
:101450000291816902910299016841F40071016071
:10146000202084F83D00002084F83E0084F83C00F1
:1014700003B0BDE8F08300BF21680A6842F48062CF
:101480000A60002202924A690292896902910299D5
:101490000DE000BF10690870606A218D0130606244
:1014A000481E2085618D013961850104D8D080B244
:1014B00003280FD802284AD001282DD120463946CA
:1014C0002A4601F0E5FF00287FF449AF2068616AF1
:1014D0000069E0E7204639462A4601F0D9FF002896
:1014E0007FF43DAF2068616A00690870606A226815
:1014F000411C208D616201382085638D013B63852D
:1015000053695B07D1D580B20328C3D1106820F49A
:1015100080601060BEE700BF2046414600223B4687
:10152000009501F063FE00287FF419AF2068616A1E
:10153000026822F48062026000690870606A218D8E
:1015400001306062481E2085608D0138608520462C
:10155000414600223B46009501F048FE00287FF4FA
:10156000FEAE2068616A026842F40072026000699F
:101570000870606A2268411C6162218D01392185F1
:10158000618D013961851169417085E72DE9F0436D
:1015900083B01E46174689460446FFF7B1FD94F80E
:1015A0003D10202924D10546206800BF81698907A4
:1015B0001AD5FFF7A5FD411B20681A29F6D38169CA
:1015C0008907F3D500202021206384F83D1084F89A
:1015D0003E00216C41F02001216484F83C0002208F
:1015E00003B0BDE8F08300BF94F83C10012903D19B
:1015F000022003B0BDE8F083012184F83C100168AB
:10160000C90703D1016841F001010160016840F29E
:10161000020821F400610160212184F83D101021AD
:1016200084F83E100021216467626685618DC0F2F6
:1016300001082185A8F10211E162E16A0A9E11F513
:10164000803F18BF01291DD1016841F480710160FC
:1016500020464FF0011100223346009501F0C6FDEF
:1016600050B120680068C00544BF4FF4007020648A
:10167000012003B0BDE8F0832069B0F5804F07D1A9
:10168000FE2015E00829DFD0216B1229DCD0DFE72E
:10169000062000EAD9102168F030086108F106013F
:1016A000204632462B4601F087FE0028E0D1FF207D
:1016B000216800EA090008612046414632462B466F
:1016C00001F07AFE0028D3D1002002902068416901
:1016D000029180690290029806E000BF20463146E0
:1016E0002A4601F025FD18BB208D68B320463146FF
:1016F0002A4601F015FFD8B9606A2168024612F83F
:10170000013B0B616262628D013A6285228D531E3C
:1017100023854F697F07E1D51B04DFD04378023072
:101720000B616062608D01386085901E2085D5E771
:10173000206C04289CD12068016841F4007101608C
:10174000012003B0BDE8F0832068016841F4007116
:101750000160202084F83D00002084F83E0084F8D9
:101760003C0003B0BDE8F0832DE9F04784B0994612
:1017700016460F460446FFF7C3FC94F83D10202997
:1017800027D10546206800BF816989071CD5FFF76E
:10179000B7FC411B20681A29F6D381698907F3D564
:1017A00000202021206384F83D1084F83E00206C46
:1017B00004F13C0A40F020002064022000218AF855
:1017C000001004B0BDE8F087A2461AF83C1F0129BA
:1017D00004D1022004B0BDE8F08700BF01228AF8DE
:1017E00000200368DDE90D180C9ADB0703D10368BC
:1017F00043F001030360036823F4006303602220C5
:1018000084F83D00402084F83E000020206462629D
:101810006185608D394620850020CFF6FF70E0623B
:10182000204632464B46CDE9008501F093FB18B1C6
:10183000012004B0BDE8F087208D08B3022813D042
:10184000012835D121680A6822F480620A600022EA
:1018500003924A6903928A690392039A0A6842F4DE
:1018600000720A602CE000BF21680A6822F48062DE
:101870000A600A6842F400620A60002203921AE0D9
:1018800000200390206841690391816903910399C5
:10189000016841F400710160202084F83D000020BF
:1018A00084F83E0000218AF8001004B0BDE8F087FB
:1018B0000021039121684A69039289690391039980
:1018C0000427C0F201070CE010690870606A218DDE
:1018D00001306062481E2085618D013961850104F7
:1018E000DAD080B203280FD802284AD001282DD19F
:1018F000204641462A4601F0CBFD002898D12068B9
:10190000616A0069E1E700BF204641462A4601F0CE
:10191000BFFD00287FF48CAF2068616A0069087001
:10192000606A2268411C208D616201382085638DC8
:10193000013B638553695B07D1D580B20328C3D1CE
:10194000106820F480601060BEE700BF2046394672
:1019500000224346009501F049FC00287FF468AF5F
:101960002068616A026822F480620260006908707F
:10197000606A218D01306062481E2085608D0138CB
:1019800060852046394600224346009501F02EFC32
:1019900000287FF44DAF2068616A026842F400724B
:1019A000026000690870606A2268411C6162218DD2
:1019B00001392185618D013961851169417085E7A2
:1019C0002DE9F04383B0994616460F460446FFF7CB
:1019D00097FB94F83D10202924D10546206800BFCC
:1019E000816989071AD5FFF78BFB411B20681A29EB
:1019F000F6D381698907F3D500202021206384F87C
:101A00003D1084F83E00216C41F02001216484F8EF
:101A10003C00022003B0BDE8F08300BF94F83C1006
:101A2000012903D1022003B0BDE8F083012284F82C
:101A30003C200368DDE90B180A9ADB0703D1036831
:101A400043F001030360036823F400630360212073
:101A500084F83D00402084F83E000020206462624B
:101A60006185608D394620850020CFF6FF70E062E9
:101A7000204632464B46CDE9008501F0F5FA18B113
:101A8000012003B0BDE8F083208D98B9204641467F
:101A90002A4601F04DFB88B3206C0428F0D1206861
:101AA000016841F400710160012003B0BDE8F083DA
:101AB0000004EBD0204641462A4601F031FD0028C3
:101AC000EAD1616A2268084610F8013B1361238D50
:101AD0006062581E2085678D013F678557697F07C3
:101AE000E6D50704E4D048781061881C6062981E2F
:101AF0002085618D01396185DAE700BF20680168C2
:101B000041F400710160202084F83D00002084F839
:101B10003E0084F83C0003B0BDE8F0832DE9F043BB
:101B200087B0006845F60001C4F200010026884233
:101B3000CDE90566CDE9036602962DD045F2004158
:101B4000C4F20001884260D1002443F630050194BC
:101B5000C4F20205286802A940F002002860286843
:101B600000F0020001900198C02002901220CDE9FF
:101B70000304032005900420069040F20040C4F2C4
:101B80000200FFF7D9F90194286940F40010286198
:101B9000286900F4001036E043F630070196C4F2DD
:101BA0000207386840F2004440F0020038603868AC
:101BB000C4F2020400F00200019001984FF480602A
:101BC0000290042002AD4FF012084FF00309069076
:101BD00020462946CDE90386CDF81490FFF7ACF9ED
:101BE0000820CDE902080920069020462946CDE9C3
:101BF0000469FFF7A1F90196386940F48000386163
:101C0000386900F480000190019807B0BDE8F083C6
:101C100040F2040040F24871C2F20000C2F200013A
:101C200000780A68104408607047000080B543F6E9
:101C30000040C4F20200016841F4007101600168D3
:101C400041F480610160016841F48071016003200A
:101C500000F086F80F2000F005F800F027F80020CB
:101C600080BD000070B540F20406C2F2000640F2EA
:101C70000C013278C2F200014FF47A730968B3FBA9
:101C8000F2F20446B1FBF2F1084600F061FB0F2CC2
:101C90004FF0010508D838B94FF0FF302146002237
:101CA000002500F031F87460284670BD82B0002035
:101CB00043F640010190C4F202014A6842F48042B6
:101CC0004A604A6802F480420192019A00900868D2
:101CD00040F080500860086800F080500090009844
:101CE00002B07047002848BF704700F01F01012272
:101CF00002FA01F11C2202EAD0004EF20012CEF2EA
:101D0000000281507047000010B54EF60C5CCEF218
:101D1000000CDCF80030C3F3022E8EF00704042C14
:101D200028BF0424BEF103034FF0FF3E0EFA04F473
:101D300038BF0023A14399400EFA03F39A4311439D
:101D400000F00F0200F160430901043A03F5644317
:101D50006244002848BF02F10C03197010BD000056
:101D60004EF60C51CEF200010A684FF6FF031A40FE
:101D700060F30A2242F0806040F0FD700860704716
:101D8000002804BF012070472DE9F04143F6080800
:101D9000C4F202080446D8F8F8030D4600F0070024
:101DA000814207D988F8F853D8F8F80300F0070003
:101DB000A84277D12068810717D5410705D5D8F803
:101DC000001041F4E051C8F80010010705D5D8F81B
:101DD000001041F46041C8F80010D8F80010A26863
:101DE00021F0F0011143C8F80010C00740D1D8F825
:101DF000F80300F00700854207D288F8F853D8F8B6
:101E0000F80300F00700A8424CD12068410707D52D
:101E1000D8F80010E26821F4E0511143C8F800102E
:101E2000000708D5D8F80000216920F4604040EA96
:101E3000C100C8F8000000F07DF8D8F8001045F6A1
:101E4000D872C1F30311C0F60002515C40F20C02DB
:101E500020FA01F140F20800C2F200000068C2F26C
:101E600000021160FFF7FEFE0020BDE8F08100BF18
:101E70006068811E022907D258F8081C89015CBFDE
:101E80000120BDE8F08111E0012807D158F8081CB5
:101E900089035CBF0120BDE8F08107E058F8081C09
:101EA000890703D40120BDE8F08100BFD8F80010F5
:101EB00021F003010843C8F80000FFF721F90646A6
:101EC00041F28837D8F80000616800F00C00B0EBF0
:101ED000810F8CD0FFF714F9801BB842F2D9032090
:101EE000BDE8F08140F20C0043F60801C2F20000A8
:101EF000C4F202010068096845F6E872C1F3822164
:101F0000C0F60002515CC8407047000040F20C006F
:101F100043F60801C2F20000C4F202010068096839
:101F200045F6E872C1F34231C0F60002515CC84088
:101F30007047000010B543F60404C4F2020461685F
:101F4000C1F3810142F20040C0F2F400DFE801F089
:101F500002040A0210BD00BF47F64000C0F27D1027
:101F600010BD00BF206821682368490247F6400180
:101F7000C0F27D1100F03F02C3F388105CBF42F253
:101F80000041C0F2F401A1FB00010023FEF720F99B
:101F900021680222C1F3014102EB4101B0FBF1F0E3
:101FA00010BD0000002804BF012070472DE9F0415A
:101FB00082B00446007843F60006C007C4F2020669
:101FC0000CD0B06800F00C00042840F0818030682C
:101FD000800303D56068002800F0688120788007BE
:101FE0001BD5B06810F00C0F09D0B06800F00C00E1
:101FF000082840F087807068400200F183803068D4
:10200000800703D5E068012840F0508130682169DD
:1020100020F0F80040EAC10030602078000713D4B7
:10202000207840072AD4A569002D00F03A81B068D5
:1020300000F00C00082840F0A580012D40F00E8132
:10204000012002B0BDE8F0816069002800F08280C4
:102050000020C4F247200121C0F8801EFFF750F88D
:10206000054600BF706F8007DAD4FFF749F8401BC0
:102070000228F7D9032002B0BDE8F081306C5FEA96
:10208000C0080AD400200190306C40F080503064C9
:10209000306C00F080500190019847F20007C4F2C4
:1020A00000073868C00547D4386840F4807038604D
:1020B000FFF726F8054600BF3868C0053CD4FFF797
:1020C0001FF8401B0228F7D9032002B0BDE8F081B9
:1020D000B06800F00C00082803D1706840023FF59A
:1020E00076AF61683068B1F5803F07D0B1F5A02FB9
:1020F00040F09A8040F480203060306840F48030B6
:1021000030609AE0E068002840F20000C4F2472006
:102110005CD001210160FEF7F3FF054630688007BF
:102120003FF574AFFEF7ECFF401B0228F6D9032001
:1021300002B0BDE8F08100BFA168306F012905D071
:10214000052955D140F004003067306F40F00100A0
:10215000306756E00020C4F247200021C0F8801EFE
:10216000FEF7CEFF054600BF706F80077FF558AFC2
:10217000FEF7C6FF401B0228F6D9032002B0BDE8D7
:10218000F08100BF0027C4F2472700203866FEF721
:10219000B7FF022D05460DD13068800140F18A80DD
:1021A000FEF7AEFF401B02284FF00300F4D902B047
:1021B000BDE8F0813068800173D5FEF7A1FF401BB8
:1021C00002284FF00300F5D9F1E700BF00210160BC
:1021D000FEF796FF054600BF306880077FF51DAF0C
:1021E000FEF78EFF401B02284FF00300F4D9DEE714
:1021F00020F001003067306F002920F004003067C4
:102200007AD0FEF77DFF054641F28837306F8007B0
:1022100000F18480FEF774FF401BB842F6D903201A
:1022200002B0BDE8F08100BF20F48030306030683B
:10223000002920F4802030607AD0FEF761FF054647
:10224000306880033FF5CAAEFEF75AFF401B642892
:10225000F6D9032002B0BDE8F08100BF7068E169E3
:1022600000F480028A4221D1216A00F03F028A42B2
:102270001CD147F6C071626A0140B1EB821F15D1D3
:10228000A16A4FF6FF73C903994300F44032A1F5E8
:1022900080318A420AD1E16A00F07060B0EB016FD0
:1022A00004D1002002B0BDE8F08100BF012002B0DF
:1022B000BDE8F08104F11C052FCD084340EA8210EF
:1022C000D9034FF6FF729143A1F5803140EA0560D2
:1022D0000843706001203866FEF712FF044600BF15
:1022E00030688001DDD4FEF70BFF001B02284FF0A1
:1022F0000300F5D95BE700BFFEF702FF054641F298
:10230000883700BF306F800708D5FEF7F9FE401B05
:10231000B8424FF00300F5D949E700BFB8F1000F0C
:102320003FF581AE306C20F0805030647BE600BF1A
:10233000FEF7E6FE054600BF306880037FF54EAE2F
:10234000FEF7DEFE401B64284FF00300F4D92EE7B1
:10235000411E0020B0EB116F1CBF012070474EF2F0
:102360001002CEF2000251604EF62351CEF200016F
:10237000F0230B70072190601160704790F83C20AB
:10238000012A04BF02207047B0B501F108053CCD19
:10239000D1E900CE23F47C5322F470521A432EF478
:1023A000F0431A432CF4E0431A4324F4C0431A4385
:1023B0002A43C96922F48042036811435964002109
:1023C00080F83C100020B0BD90F83C20012A4FF06E
:1023D000020241D010B580F83D200268D2F804E036
:1023E000D2F808C00C682EF07003234340F6FF3487
:1023F000C4F20004A242536010DCB2F1804F1ED040
:1024000040F20043C4F200039A4218D040F60003A1
:10241000C4F200039A4212D016E000BF40F6004317
:10242000C4F200039A420AD044F20003C4F201034A
:102430009A4204D00023C4F201039A4204D14968AD
:102440002CF08003194391600121002280F83D1097
:1024500080F83C20BDE8104010467047002804BFBB
:102460000120704710B5044690F83D0028B90020BF
:1024700084F83C00204600F01FF8022084F83D005C
:102480002068211D03F06EF8012084F8460084F8CE
:102490003E0084F83F0084F8400084F8410084F84E
:1024A000420084F8430084F8440084F8450084F82E
:1024B0003D00002010BD000082B0006840F60041E1
:1024C000C4F20001884215D00021C4F20101884203
:1024D0001FD10020019043F64000C4F20200416881
:1024E00041F001014160406800F001000190019855
:1024F00002B070470020009043F64000C4F2020092
:10250000016841F008010160006800F008000090D7
:10251000009802B07047000090F83C20012A4FF06C
:1025200002026CD080B580F83D20D0F800C04FF694
:102530007772DCF8083023EA0202CCF808200B6836
:102540004F2B29DC1F2B45DD202B46D0302B44D0D0
:10255000402B40F0AF80D1F804E0C968DCF82030AF
:10256000DCF8202022F00102CCF82020DCF8182032
:1025700022F0F00242EA011123F00A0242EA0E02BE
:10258000CCF81810CCF82020DCF8081041F04701F6
:1025900021F0300128E000BF6F2B33DDB3F5005F81
:1025A00074D0B3F5805F21D0702B40F08380D1E9E7
:1025B00001E3C968DCF8082043EA0E0322F47F42F5
:1025C00043EA01211143CCF80810DCF8081041F06F
:1025D000770109E00BB1102B6CD1DCF8081021F069
:1025E0007001194341F00701CCF8081000220121C5
:1025F00080F83D10002180F83C10BDE88040104676
:10260000704700BF502B21D0602B53D1D1F804E08C
:10261000C968DCF82030DCF8202022F01002CCF869
:102620002020DCF8182022F4704242EA013123F025
:10263000A00242EA0E12CCF81810CCF82020DCF8E8
:10264000081041F0670121F01001CDE7D1F804E056
:10265000C968DCF82030DCF8202022F00102CCF838
:102660002020DCF8182022F0F00242EA011123F0C9
:102670000A0242EA0E02CCF81810CCF82020DCF84E
:10268000081041F0570121F02001ADE7D1E901E345
:10269000C968DCF8082043EA0E0322F47F4243EACB
:1026A00001211143CCF80810DCF8081041F48041F6
:1026B0009AE700BF01229AE7002804BF0120704773
:1026C0002DE9F047044690F83D000D4628B900205A
:1026D00084F83C00204600F049F8022084F83D00D0
:1026E000206844F20702816891438160211D02F055
:1026F00039FF20684FF6FF7881688269D0F820C0E2
:10270000D5E9003ED5E9026A43EA0109AB6922EA4C
:10271000080246EA03234FF6FC46B343D5E90767B0
:1027200042EA0A0229691A4342EA062242EA0111F0
:102730002CF0AA026B6942EA0E0241EA073142EA32
:102740000312C0F8089081610262012084F84600FB
:1027500084F83E0084F83F0084F8420084F8430087
:1027600084F83D000020BDE8F087000080B586B009
:10277000006840F20042C4F2000200219042CDE91C
:102780000411CDE9021101911ED0B0F1804F42D168
:10279000002043F630010090C4F202010A6942F0C1
:1027A00001020A610A6902F001020092009A009097
:1027B000086840F0010008600868032100F001008B
:1027C00000900098012019E043F630000091C4F217
:1027D0000200026942F002020261026902F0020292
:1027E0000092009A0091016841F0010101600068C7
:1027F000C02100F001000090009802200191022108
:102800000291002105900020CDE90311C4F20200DD
:1028100001A9FEF791FB06B080BD000080B590F8DD
:102820003E2090F83F3090F842E090F843C00429F1
:102830000AD0B9B9012A4FF0010208BFBEF1010F59
:1028400034D0104680BD00BF012B4FF0010208BFFD
:10285000BCF1010FF5D1022180F83F1080F8431040
:1028600000681EE0012A4FF0010208BF012BE8D1E9
:10287000BEF1010FE5D1BCF1010FE2D1022280F8D7
:102880003E2080F83F2080F8422080F8432091B11C
:102890000068016A21F001010162016A41F0010151
:1028A000016210216FF0100209E000BF022180F8E0
:1028B0003E1080F84210006801216FF00102036AA7
:1028C0001A400262026A114301620168002241F06B
:1028D00001010160104680BD80B586B0002100680E
:1028E000C4F20101002288420592CDE9032202923E
:1028F000019201D006B080BD43F630000092C4F2D0
:102900000200036843F001030360006800F0010067
:10291000009000984FF4407001900220CDE902022F
:102920000120059001F5803001A90492FEF704FB17
:1029300006B080BD90F83C30012B04BF02207047E8
:102940004FEAB202032A00F2ED802DE9F043DFE8FE
:1029500002F003A3397300BF036800261D6A1A6AD8
:10296000C4F2010622F001021A621A465C6852F8AB
:1029700018CFB3428E68D1F800E025F0020545EA91
:1029800006050CD1CE68D1E9057824F4407425F011
:102990000C0526F004063C43354344EA08042CF0B9
:1029A000730747EA0E075C609F614F6809695F63C0
:1029B0001D629F6947F008079F619F6927F0040720
:1029C0009F61A4E0036800261D6A1A6AC4F201062A
:1029D00022F480721A621A46D3F804C052F81CEF2F
:1029E000B3428E680C6825F4007545EA06250FD1C0
:1029F000CE68D1E90598360240F2FF4725F44065DC
:102A0000BE4335432CF4405748EA090647EA061C02
:102A10002EF073072743C3F804C0DF614F680969CC
:102A2000DF631D62DF6947F00807DF61DF6927F0B8
:102A30000407DF616BE000BF03680027D3F820C004
:102A40001A6AC4F2010722F480521A621A465C68BC
:102A500052F81C5FD1F800E08E68BB4204D14F6988
:102A600024F4804444EA87142CF4005747EA0637DC
:102A700025F4E64646EA0E265C60DE614E6809698A
:102A80001E641F62DF6947F40067DF61DF6927F4B6
:102A90008067DF613AE000BF036800261D6A1A6A9A
:102AA000C4F2010622F010021A621A46D3F804C0DA
:102AB00052F8184FB3428E68D1F800E025F0200597
:102AC00045EA06150FD1CE68D1E905986FF04007A9
:102AD00025F0C00507EA061635432CF4406748EA9E
:102AE000090647EA860C24F4E64444EA0E27C3F8B4
:102AF00004C09F614F6809699F631D629F6947F425
:102B000000679F619F6927F480679F6109021368CE
:102B1000194311600021BDE8F043002280F83C20F9
:102B2000084670470121002280F83C200846704783
:102B3000002804BF0120704710B5044690F83D00FE
:102B400028B9002084F83C00204600F01FF802203D
:102B500084F83D002068211D02F004FD012084F866
:102B6000460084F83E0084F83F0084F8400084F872
:102B7000410084F8420084F8430084F8440084F85B
:102B8000450084F83D00002010BD000070470000A3
:102B9000C1B1042908D0082914BF41224022825C17
:102BA000012A05D016E000BF3F22825C012A11D124
:102BB0000222082910D0042914BF80F8412080F88F
:102BC0003F200BE090F83E20012A03D1022280F83A
:102BD0003E2003E00120704780F84020006801F0AB
:102BE0001F010122036A8A4023EA02010162036A8B
:102BF0004421C4F201011A43A1F144039842026244
:102C000016D040F6FF31C4F2000188421ADCB0F160
:102C1000804F28D040F20041C4F20001884222D007
:102C200040F60001C4F2000188421CD022E000BF3F
:102C30000A6842F400420A6040F6FF31C4F2000123
:102C40008842E4DD40F60041C4F2000188420AD027
:102C500044F20001C4F20101884204D00021C4F210
:102C60000101884206D1816801F00701062904BFED
:102C700000207047016841F00101016000207047A9
:102C8000002804BF0120704710B5044690F84100A9
:102C900028B9002084F84000204600F021F82420C4
:102CA00084F841002068C16821F40051C1602046C9
:102CB00002F0D8FC2068016921F49041016141696A
:102CC00021F02A014161C16841F40051C160002036
:102CD0002021606484F8411084F84210606310BDC4
:102CE00080B586B041F200410068C4F201010022C3
:102CF00088420592CDE903220292019202D006B0E9
:102D000080BD00BF43F630000092C4F20200436968
:102D100043F020034361436903F020030093009BC9
:102D20000092036843F001030360006800F00100B3
:102D3000009000984FF4C05001900220CDE90202AB
:102D4000032004900820059001F56C4001A9FEF7CE
:102D5000F3F8472000210022FEF7D6FF4720FEF7B8
:102D6000C1FF06B080BD000090F84230202B07D193
:102D700000294FF0010318BF002A05D118467047FB
:102D800002231846704700BF00230363816222219B
:102D90008285C285436480F842100169006819B1D8
:102DA000C16841F48071C160416941F00101416134
:102DB000C16841F02001C160184670472DE9F04319
:102DC00081B0044690F84100202809D100294FF035
:102DD000010018BF002A07D101B0BDE8F08300BF91
:102DE000022001B0BDE8F0830020606421201D4670
:102DF0000E4684F841001746FEF782F9A784E7845F
:102E0000A1688146B1F5805F02D1206900285DD0BC
:102E100037460020E28C2168002A5DD06A1C24D04D
:102E2000002D4AD0804600BF0868000608D4FEF78F
:102E300067F9A0EB0900A8427AD82168C868F3E7CF
:102E400017B117F8010B04E038F8020B00276FF3F5
:102E50005F204860E08C0138E084E08C0028E3D1FA
:102E60003AE000BF0A68120609D40A68120606D4BE
:102E70000A6812065CBF0A685FEA0262F2D51FB1F7
:102E800017F8012B05E000BF30F8022B00276FF385
:102E90005F224A60E28C013AE284E28C002AE4D1AB
:102EA0001AE000BF30F8022B00276FF35F224A6060
:102EB000E28C013AE284E28C72B10A68120635D5DE
:102EC000002FEFD017F8012BF1E700BF00273046A5
:102ED000E28C2168002AA1D1086840061ED42DB3D7
:102EE000681C14D1086840062AD40868400627D414
:102EF0000868400624D4086840064FF00000F1D569
:102F00000DE000BF2068C1680068400618D4FEF7D5
:102F1000F7F8A0EB0900A842F4D909E0002020212D
:102F200084F8411001B0BDE8F08300BFFEF7E8F877
:102F30000320202184F8411001B0BDE8F08300BFD8
:102F40000020202184F8411001B0BDE8F08300008A
:102F5000FEE700002DE9F04782B0044600689A467B
:102F60000B9D0A9E0368914643F4806202600268EA
:102F70000F4642F48071016020464FF0011100229B
:102F80003346009500F032F950B120680068C00562
:102F900044BF4FF400702064032002B0BDE8F08706
:102FA00040F202082068C0F2010807F0FE0707613E
:102FB0002046414632462B4600F0FEF920B1012062
:102FC00002B0BDE8F08700BF0020019020682A46CB
:102FD000416901918069314601900198204600F0D5
:102FE0009FFAB0B92068BAF1010F09D04FEA192150
:102FF0000161204631462A4600F092FA48B920681D
:103000005FFA89F10161204631462A4600F088FACC
:1030100060B1206C0428D2D12068016841F40071AD
:103020000160012002B0BDE8F08700BF20680022E7
:103030000168334641F48071016020464FF0011170
:10304000009500F0D3F800289FD147F0010C2768C5
:103050002046414632462B46C7F810C002B0BDE8B4
:10306000F04700F0A9B900002DE9F04383B0044611
:1030700000680F4601680A9D0B9E41F480719946D5
:103080009046016020464FF0011100222B46009629
:1030900000F0ACF850B120680068C00544BF4FF4A0
:1030A00000702064032003B0BDE8F083206807F0BF
:1030B000FE0101610221C0F2010120462A46334689
:1030C00000F07AF920B1012003B0BDE8F08300BF21
:1030D00000200290206832464169029180692946A9
:1030E00002900298204600F01BFA58B1206C042888
:1030F000E9D12068016841F400710160012003B04A
:10310000BDE8F0832068B9F1010F0AD04FEA182119
:10311000016120462946324600F002FA0028E5D136
:1031200020685FFA88F10161002003B0BDE8F083F8
:1031300070B50368044653F8140F400711D40E46C7
:10314000481C29D086BB00BF1868400527D4FDF76E
:10315000D7FF236853F8140F400737D51868400786
:10316000F2D5002070BD00BF18684007F9D4186878
:10317000400514D418684007F3D4186840050ED4ED
:1031800018684007EDD41868400508D4186840074F
:103190004FF0000048BF70BD18684005E4D56FF4DB
:1031A00080601860042012E0154603E053F8140F05
:1031B0004007D6D418684005F1D4FDF7A1FF401BA5
:1031C0002368B042F2D958694007EFD4202000218B
:1031D0002022216384F83D2084F83E10226C1043A5
:1031E0002064012084F83C1070BD00002DE9F041FE
:1031F000054600681E46144601F47F0201338FB273
:1032000042D0DDF81880B2F5803F40F087804069F9
:103210003840C01BB0FA80F04009844240F0C880BA
:103220004EB924E040693840C01BB0FA80F0400934
:10323000844240F0BD80FDF763FFA0EB08012868E1
:10324000B142EFD941693940C91BB1FA81F149094D
:103250008C42E7D19BE000BF40693840C01BB0FA08
:1032600080F0400984424FF0000040F0A280FDF75A
:1032700047FF286841693940C91BB1FA81F1490902
:103280008C42E9D183E000BFB2F5803F24D100BF7A
:1032900041693940C91BB1FA81F149098C4240F0BA
:1032A000878041693940C91BB1FA81F149098C42D3
:1032B00040F07E8041693940C91BB1FA81F149096A
:1032C0008C4275D141693940C91BB1FA81F1490974
:1032D0008C42DDD06CE000BF81693940C91BB1FA76
:1032E00081F149098C4263D181693940C91BB1FA26
:1032F00081F149098C425BD181693940C91BB1FA1E
:1033000081F149098C4253D181693940C91BB1FA15
:1033100081F149098C42DFD04AE000BF8069384022
:10332000C01BB0FA80F04009844241D146B923E085
:1033300080693840C01BB0FA80F04009844237D120
:10334000FDF7DEFEA0EB08012868B142F0D98169E3
:103350003940C91BB1FA81F149098C42E8D116E024
:1033600080693840C01BB0FA80F0400984424FF0B9
:10337000000018BFBDE8F081FDF7C2FE2868816932
:103380003940C91BB1FA81F149098C42E8D10020CA
:103390002021286385F83D1085F83E00296C41F016
:1033A0002001296485F83C000120BDE8F08100BFC0
:1033B0000020BDE8F0810000F0B581B0044600684F
:1033C0001D4643698FB203EA0701B94202D10020CA
:1033D00001B0F0BD4169164601323CD0490512D416
:1033E0007EB300BFFDF78CFE411B2068B14203D9BC
:1033F00041693940B9422BD141693940B942E6D0DF
:1034000041694905EED5016841F4007101606FF42E
:1034100080614161042000212022216384F83D2045
:1034200084F83E10226C1043206484F83C10012084
:1034300001B0F0BD41693940B942C8D04169490580
:10344000E1D4FDF75DFE206841693940B942F1D011
:103450002020E0E741694905D5D441693940B942A6
:10346000B5D041694905CED441693940B942AED0A1
:1034700041694905C7D441693940B942A7D041697A
:103480004905C0D441693940B942E3D19FE7000002
:1034900070B504460068154650F8143F5A063DD4EE
:1034A0000E4629B926E000BF50F8141F490635D44E
:1034B0000168C90621D4FDF723FE411B2068B142F3
:1034C000F2D941694906EFD400202021206384F815
:1034D0003D1084F83E00206C40F0200018E000BF52
:1034E000FDF70EFE206850F8141F4906ECD5016860
:1034F000490613D40168C906F2D56FF010010160C6
:1035000000202021206384F83D1084F83E00206CC8
:103510002064002084F83C00012070BD002070BDB4
:1035200070B50368044653F8140F000611D40E4614
:10353000481C29D086BB00BF1868400527D4FDF77A
:10354000DFFD236853F8140F000637D5186800060E
:10355000F2D5002070BD00BF18680006F9D41868C5
:10356000400514D418680006F3D4186840050ED43A
:1035700018680006EDD41868400508D418680006DD
:103580004FF0000048BF70BD18684005E4D56FF4E7
:1035900080601860042012E0154603E053F8140F11
:1035A0000006D6D418684005F1D4FDF7A9FD401BEC
:1035B0002368B042F2D958690006EFD420200021D8
:1035C0002022216384F83D2084F83E10226C1043B1
:1035D0002064012084F83C1070BD00002DE9F04FFC
:1035E00085B040F290094CF6CD474CF6CC4400260D
:1035F000C2F200094FF0640A4FF0020B0DF1120500
:10360000CCF6CC47C0F6CC444FF0000809E000BF30
:103610000220FDF727FB1FFA88F008F10108C728F0
:1036200020D2D9F80000D02147220123CDE9005B48
:10363000CDF808A0FEF798F820B9BDF8120000BA3E
:1036400006EB20465FFA88F078434FEAB000A042CC
:10365000DED840F60000C4F202004FF40051FDF73E
:1036600041FDD5E740F60000C4F202004FF40051DE
:103670000122FDF73FFD00EE106A9FED091AB8EE3A
:10368000C00A80EE010A9FED071A0020C9F8100059
:1036900080EE010A89ED030A05B0BDE8F08F00BF96
:1036A000000048433333834140F29000C2F20000EF
:1036B0000430704770B584B0002140F290058DF859
:1036C0000E1001260DF10E01C2F200056424CDE9B1
:1036D0000016D0216B22012328600294FEF770F9B6
:1036E00010B1002004B070BD3220FDF7BBFA1821E4
:1036F00028688DF80F100DF10F01CDE90016D021CB
:103700001B2201230294FEF75BF90028E9D10A206D
:10371000FDF7A8FAFFF762FF002004B070BD0000BB
:1037200010B52DED028B84B040F29004C2F200047B
:10373000206802210DF10E024FF0640CCDE900214A
:10374000D02147220123B0EE408ACDF808C0FEF711
:103750000BF818B104B0BDEC028B10BDBDF80E0023
:103760009FED0E1AC0BA00EE100AB8EEC00A80EE45
:10377000010A94ED031A94ED042A30EE411A84ED07
:10378000010A21EE080A30EE020A84ED021A84EDE5
:10379000040A04B0BDEC028B10BD00BF333383417B
:1037A00040F29000C2F20000002101617047000069
:1037B0002DE9F04F81B040F25818C2F2000840469F
:1037C0004FF48071FF22FCF746FD40F2445E40F268
:1037D0000771C2F2000EC0F60701CEF8001040F2E9
:1037E000087140F2204C0020C0F608010423C2F208
:1037F000000CA8F87700A8F88700CEF8041002E0C3
:103800000130984260DA0EEB40011EF810504A7801
:1038100008EB05170CEB051117F8029011F802B030
:103820000E2A13D81BF0010110D1511C7C5CFF2C17
:103830000CD107EB010A09F101048AF800400EEBF4
:1038400043040EF813500133617000BF0E2D13D8DE
:103850001BF0020110D1691C08EB0114A65CFF2EBD
:103860000AD1144409F1010626700EEB43040EF848
:1038700013100133627000BF82B11BF004010DD13F
:10388000511E7C5CFF2C09D17C1809F101062670C1
:103890000EEB43040EF8135001336170002DAFD0CE
:1038A0001BF00801ACD1691E08EB0114A55CFF2DCB
:1038B000A6D1144409F1010525700EEB43040EF85E
:1038C0001310013362709BE701B0BDE8F08F000078
:1038D0002DE9F04F88B040F20C10C2F200000178E0
:1038E00090F8018040F25813CEB2C2F200035FFAA2
:1038F00088F203EB061313F80290B9F1000F00F001
:103900003D8690F802E009060EF1010303F0030B77
:10391000AEF1010303F0030305930EF0030383F0FC
:10392000020A40F22043C2F2000303EB0613A6F1A1
:10393000010503EB0204A2F1010706F1010302F104
:10394000010103930491CDF818E021D05FEA0861EA
:1039500032D00E2E4CD9BC462F460021BEF1030FAB
:103960001346354600F2618100200790DFE81EF023
:1039700004008801580182010E2A079000F280811C
:103980002378354613F00103049B00F04E8177E164
:10399000AC46BEF1030F4FF0000559D80020079048
:1039A000DFE80EF002404A660E2A079060D82178C0
:1039B00011F00101049947E0BC462F46BEF1030F08
:1039C0004FF0000500F2D08000200790DFE81EF0E5
:1039D0000400B800DC00C4000E2A079000F2D48076
:1039E0002178334611F00101049900F0BF80CBE04B
:1039F000BEF1030F1146334600F22B81DFE81EF0C3
:103A00000400C401240174010E2A4FF0000C00F2DE
:103A100072812178334611F00101049900F0198177
:103A200069E100BF0E2E079022D82178039B11F088
:103A3000020111460ED01BE05FEA0861079017D023
:103A4000217811F0040139464FF0000302D00FE055
:103A500011460023204640F25814C2F2000404EB41
:103A60000313595C044649453CBF01258946079527
:103A70006346DFE81BF0050019002D00D00100BFF0
:103A80000E2A00F2C881217811F0010140F0C381B3
:103A90000294BC4640F22044049F1846C2F200043F
:103AA0000025CDF804A025E00E2E00F2B4812146B9
:103AB0000291097840F22044039DBC461846C2F2A8
:103AC000000411F002011746CDF804A012D09DE1C8
:103AD0005FEA086100F09F81217811F0040140F055
:103AE0009A81CDE901A440F220441846C2F20004B4
:103AF0000025BC4640F25811C2F2000101EB05114D
:103B0000C95D494504D20123CDE906B389467DE16B
:103B1000B1EB090118BF0121079B83F00103194391
:103B200040F07481BEF1030F00F25C81DFE81EF00B
:103B30000400580152015601049B002154E100BFCA
:103B40000E2E079020D82178039B11F002014FF030
:103B500000010BD018E000BF237800211B073B4673
:103B6000079003D510E000BF00213346204640F205
:103B70005814C2F2000404EB0313595C044649458F
:103B80003CBF0125894607953D466746DFE81BF0A7
:103B900004000E0038031A000E2A00F23183217847
:103BA000049811F00101314612D029E30E2E00F2E3
:103BB0002783217811F0020140F02283039900202D
:103BC00006E000BF2178090700F11A83002029468A
:103BD00040F25813C2F2000303EB01131B5C4B4588
:103BE00004D20120CDE906B0994609E3B3EB0903FD
:103BF000029418BF0123079C84F00104234340F082
:103C0000FE82BEF1030F00F2E182DFE81EF0050044
:103C1000DB02D302D70200BFDDF810C0D8E200BF3C
:103C2000237835465B07634629D4204640F2581472
:103C3000C2F2000404EB0515EB5C04464B453CBFA7
:103C40000121994607911BE02178334649073946FF
:103C50004FD4284640F25815C2F2000505EB031375
:103C6000595C4FF0000C054649453CBF4FF0010C34
:103C7000894640E023783D461B071346D5D507907B
:103C80003D466746DFE81BF00400B503100018004E
:103C90000E2A00F2AE832178334611F00101049917
:103CA00010D000F0A6BB00BF217833464907394643
:103CB00008D500F09EBB00BF21782B4609071146AE
:103CC00000F19783029440F25814C2F2000404EB0E
:103CD0000314645CD04628464C455DD20121CDE9F1
:103CE00006B1A14600F082BB21782B460907114698
:103CF000AFD54FF0000C0294DFE80BF002400C202F
:103D00000E2A20D82178334611F00101049906D0FB
:103D100019E000BF217833464907394613D440F2F1
:103D20005814C2F2000404EB0314645CD046284625
:103D30004C450BD24FF0010CA1466FE121782B4688
:103D400009071146EBD5DDF818B06AE1B4EB0904B8
:103D500018BF01248CF001052C4337D1BEF1030FAD
:103D6000B446154600F24381DFE81EF004003E0130
:103D700038013C01049DB44639E100BF2178039B22
:103D800089071146DFD4CAE72178039B89071146CA
:103D90007FF55FAFADE700BFB4EB090418BF0124A6
:103DA000079D85F001052C4340F02083BEF1030FF1
:103DB000B446154600F20383DFE81EF00400FE025D
:103DC000F802FC02049DB446F9E200BFDDF818B029
:103DD00024E100BF0021634606E000BF014602E087
:103DE000039900E00021134604EB0111C95CC906E8
:103DF00002D40121079109E004EB0511C95DC90650
:103E00004FF0010148BFF346CDE906B1DDF804A04B
:103E1000029C034667460598DFE800F0020E1A761A
:103E20000E2A71D8217811F001016DD1BB46049F93
:103E30009C46002516E000BF0E2E65D82178039D14
:103E4000BB469C4611F0020117460BD034E000BF80
:103E50005FEA086158D0217811F0040154D19C46E2
:103E60000025BB4640F25811C2F2000101EB0511DA
:103E7000C95D494506D201200790059889460690FC
:103E80001AE000BFB1EB090118BF0121079880F0CB
:103E90000103194310D10698029403281CD840F25C
:103EA0002044C2F20004DFE800F003130B0F00BF50
:103EB000049B002116E000BF63465F4624E000BF7C
:103EC00000215B460EE000BF614613460AE000BFDA
:103ED0000399134606E000BF40F220440021134638
:103EE000C2F2000404EB0111C95CC90607D504EB5A
:103EF0000511C95DC906059958BF08460690029C80
:103F000001205F4663460790DFE81AF004001200C4
:103F10001E001C030E2A00F21583217811F0010106
:103F200040F01083049D38461F46002319E000BF6F
:103F30000E2E00F20783217838461F46039B11F0AE
:103F4000020115460DD0FDE25FEA086100F0FA8239
:103F5000217811F0040140F0F5823D461F46002310
:103F6000284640F25811C2F2000101EB0311495DED
:103F7000D0464945C0F0EA82B1EB090118BF0121E2
:103F8000079E86F00104214340F0DC82DDF818B082
:103F9000BBF1030F12D840F22046C2F20006DFE860
:103FA0000BF00307091200BF049A00270BE000BFC3
:103FB000039F08E00027024605E000BF40F22046CC
:103FC0000027C2F2000606EB0711895CC90640F122
:103FD000EA8206EB03112944EBE200BFB4463D46FA
:103FE00005E000BF844601E0DDF80CC0154640F254
:103FF000204AC2F2000A0AEB0C14655DED0605D4F6
:10400000DDF818B04FF0010C08E000BF0AEB031315
:10401000595C4FF0010CC90648BFF346029C0546A7
:10402000C24605980097DFE800F003190D1300BFA2
:104030000E2A60D82178334611F00101049912D07C
:1040400059E000BF21783346490739460BD552E085
:1040500021782B460907114605D54CE02178039BB2
:104060008907114647D440F25814C2F2000404EB09
:104070000314645CD04628464C4507D2A146029CF6
:10408000DDF814B04FF0010C33E000BFB4EB0904CD
:1040900018BF01248CF001052C4329D1BBF1030F7B
:1040A000B446154611D8DFE80BF0030D070B00BF2F
:1040B000049DB44609E000BF009DB44605E000BF82
:1040C000844601E0DDF80CC0154640F2204AC2F2F9
:1040D000000A0AEB0C14655DED0607D50AEB031325
:1040E000595CC906059948BF59468B464FF0010CEB
:1040F000029C0546C246DFE80AF003190D1300BF13
:104100000E2A3BD82178049F11F00101314612D0CC
:1041100034E000BF2178009F490731460BD52DE0E0
:10412000217817460907294605D527E02178174643
:104130008907039922D440F25813C2F2000303EB1B
:104140000113DB5DD0464B45C0F00082B3EB0903A1
:1041500018BF01238CF0010423430FD1BBF1030FDF
:1041600018D840F2204CC2F2000CDFE80BF0030D2F
:104170000F1800BF049A354611E000BFBCF1000FD4
:10418000D84640F0E381F9E1039D08E0009A354606
:1041900005E000BF40F2204C3546C2F2000C0CEBAB
:1041A00005139A5CD20640F1FE810CEB01113944F3
:1041B000FFE100BF3346BC460BE000BF4FF0000CF0
:1041C0002B4606E0039B4FF0000C02E04FF0000C82
:1041D000334640F22044C2F2000404EB031313F808
:1041E0000C30DB0602D40120079008E004EB01113B
:1041F000095C0120C90648BFF346CDE906B0029C20
:104200000598DFE800F0030F731B00BF0E2A6DD87E
:104210002178BC462F4611F00101049D314614D08F
:104220003D4662E00E2E61D8217811F002015DD189
:104230000399BC462F46002507E000BF21780907F7
:1042400054D42946BC4600250F4640F25813C2F20A
:10425000000303EB01135B5D4B4505D20121CDE962
:10426000060199463D4640E0B3EB090318BF012320
:104270000798A04680F0010423430FD106980197C8
:1042800003281BD840F22044C2F20004DFE800F00B
:1042900002120A0E049B374616E000BF3D46444614
:1042A00023E000BF374663460EE000BF019F0023B6
:1042B0000AE000BF039F002306E000BF40F2204455
:1042C00000233746C2F2000404EB0717FB5CDB0651
:1042D00007D504EB0111495DC906059958BF084689
:1042E0000690019D0120444607906746DFE81AF0DA
:1042F00004000E002A011A000E2A00F22381217800
:10430000049A11F00101334612D01BE10E2E00F287
:104310001981217811F0020140F01481039B0022E1
:1043200006E000BF2178090700F10C8100222B462E
:1043300040F25811C2F2000101EB0311895CD04632
:104340004945C0F00381B1EB090138462F4618BF3B
:104350000121079D85F00104214340F0F380DDF841
:1043600018B0BBF1030F11D840F22045C2F200058E
:10437000DFE80BF00204110804980CE0039E002013
:1043800009E000BF3E46002005E000BF40F22045A6
:104390000020C2F2000505EB0611095CC90640F1D8
:1043A000028105EB0311114403E100BFB4463D4611
:1043B00005E000BF844601E0DDF80CC0154640F280
:1043C000204AC2F2000A0AEB0C14655DED0603D424
:1043D000012107910AE000BF0AEB0313595CC906EB
:1043E0004FF0010148BFF346CDE906B1029C0546F6
:1043F000C2460598DFE800F002680C120E2A63D866
:104400002178334611F0010104990CD05CE000BF23
:10441000217833464907394605D555E021782B46A2
:104420000907114650D4A04640F25814C2F20004C5
:1044300004EB0314645CBB462F464C4506D20120B6
:1044400007900598A146069018E000BFB4EB090458
:1044500018BF0124079880F001052C430ED106985F
:10446000B44603281546019717D80698DFE800F0F0
:1044700002120A0E049DB4460FE000BF3D464446BA
:1044800021E000BFB4465D4607E000BFDDF804C090
:1044900002E000BFDDF80CC0154640F22044C2F235
:1044A000000404EB0C177F5DFF0608D504EB031333
:1044B000595CC906DDE9051058BF08460690019D04
:1044C0000120444607905F46DFE80AF0023C0C12E8
:1044D0000E2A37D82178334611F0010104990CD007
:1044E00030E000BF217833464907394605D529E039
:1044F00021782B460907114624D440F25814C2F201
:10450000000404EB0314645CD0464C451ED3B4EBAA
:104510000904384618BF0124079FAA4687F0010501
:104520002C430FD1DDF818B0BBF1030F32D840F2A5
:104530002045C2F20005DFE80BF0032B272900BF5E
:10454000049A2BE00798DDF81880B8B1A8EB0E00AC
:10455000043081B200EB913121F00301401A0328AD
:104560000CD8C00040F2013180B2C0F2042121FA1F
:1045700000F0C0B208B0BDE8F08F00BF0020C0B2AC
:1045800008B0BDE8F08F00BF024607E0564605E0E0
:10459000039E03E040F22045C2F2000505EB06173A
:1045A000BA5CD20602D4D846D0E700BF05EB0312AE
:1045B00011440978C90648BFD846C7E710B540F28C
:1045C0002044C2F2000404F11100DE21FBF74AFE90
:1045D00040F20C10C2F20000002101808170042121
:1045E00040F608022174A4F8052040F2022284F863
:1045F000901040F608010C204FF0083CA4F8F5207C
:104600000822C0F60811207040F20140E271022237
:10461000C4E902C140F20221A4F81F004FF00233A6
:10462000A4F82F00A4F83F00A4F84F00A4F85F00FE
:10463000A4F86F00A4F87F0084F8F7200122A4F802
:104640009F00A4F8AF00A4F8BF00A4F8CF00C0F208
:104650000231A4F8DF0040F20160C4F801C0C4F8E0
:10466000F13084F88F20C4F8F830C4F8FC10A4F8B6
:10467000EF00BDE81040FFF79BB8000040F20C10BF
:10468000C2F20000017840F258124078C2F20002F3
:1046900002EB0111085CB0FA80F04009704700009D
:1046A000F0B5C1B06C4620464FF48271FCF75AFA5F
:1046B000009F41F23420C5F2AA50874240F0D280D8
:1046C000211D40F22044C2F2000420464FF48072C3
:1046D000FBF7AFFD6FF0FF00211891F8002191F872
:1046E000013191F8025102F0EF0291F8036181F873
:1046F000002103F0EF0281F8012105F0EF0291F8AB
:10470000043181F8022106F0EF0281F8032103F061
:10471000EF0291F8053181F8042103F0EF0291F8DE
:10472000063181F8052103F0EF0291F8073181F895
:10473000062103F0EF0291F8083181F8072103F018
:10474000EF0291F8093181F8082103F0EF0291F8A6
:104750000A3181F8092103F0EF0291F80B3181F859
:104760000A2103F0EF0291F80C3181F80B2103F0DC
:10477000EF0291F80D3181F80C2103F0EF0291F86E
:104780000E3181F80D2103F0EF0291F80F3181F81D
:104790000E2103F0EF0291F8103181F80F2103F0A0
:1047A000EF0291F8113181F8102103F0EF0291F836
:1047B000123181F8112103F0EF0291F8133181F8E1
:1047C000122103F0EF0291F8143181F8132103F064
:1047D000EF0291F8153181F8142103F0EF0291F8FE
:1047E000163181F8152103F0EF0291F8173181F8A5
:1047F000162103F0EF0291F8183181F8172103F028
:10480000EF0291F8193181F8182103F0EF0291F8C5
:104810001A3181F8192103F0EF0291F81B3181F868
:104820001A2103F0EF0291F81C3181F81B2103F0EB
:10483000EF0291F81D3181F81C2103F0EF0291F88D
:104840001E3181F81D2103F0EF0291F81F3181F82C
:104850001E2103F0EF02203081F81F217FF43CAFCE
:104860005DE000BF34A001F0A5FB40F22044C2F29D
:10487000000404F11100DE21FBF7F4FC40F20C10FF
:10488000C2F20000002101808170042140F6080579
:104890002174A4F8055040F2022584F8901040F6E7
:1048A00008010C204FF00832A4F8F5500825C0F696
:1048B0000811207040F20140E5710225C4E902218F
:1048C00040F20221A4F81F004FF00233A4F82F0099
:1048D000A4F83F00A4F84F00A4F85F00A4F86F000C
:1048E000A4F87F0084F8F7500125A4F89F00A4F8ED
:1048F000AF00A4F8BF00A4F8CF00C0F20231A4F8C2
:10490000DF0040F20160C4F80120C4F8F13084F8FF
:104910008F50C4F8F830C4F8FC10A4F8EF004EF63D
:10492000CC50CAF655203844B0FA80F04409FEF75E
:104930003FFF204641B0F0BD5B4552525D20466CC2
:1049400061736820656D707479206F7220696E766E
:10495000616C696420686561646572210D00000006
:1049600010B5C2B041F23420C5F2AA5001AC40F2F9
:1049700020410190201DC2F200014FF48072FBF72C
:1049800058FC20464FF48271FCF734F9B0FA80F0FD
:10499000400942B010BD0000013803283FD8DFE8CD
:1049A00000F00329131D00BF40F20C10C2F20000FA
:1049B0008178032988BF7047DFE801F0022E262A9C
:1049C000417801314170704740F20C10C2F2000092
:1049D0008178013101F003018170704740F20C10C1
:1049E000C2F20000817801F0030181F002018170C0
:1049F000704700BF40F20C10C2F20000817801390C
:104A000001F00301817070474178013941707047AE
:104A10000178013902E000BF01780131017070476F
:104A200070B540F20C11C2F2000191F800C040F2E2
:104A300020424E78C2F2000202EB0C15AC5D897880
:104A400044F01002AA55437805EB060E012B32D133
:104A5000032930D8DFE801F002220C1644F01102DD
:104A60000E2E8EF8002026D80EF1010404251FE03A
:104A700044F014028EF80020EEB1AEF101040125DD
:104A800016E000BF44F01802BCF1000F8EF80020C1
:104A900011D0AEF1100402250AE000BF44F012026A
:104AA000BCF10E0F8EF8002005D80EF11004082579
:104AB00023782B4323700378012B34D14B1E03F052
:104AC0000304DFE804F003230D1700BF42F00102E6
:104AD0000E2E8EF8002026D80EF1010404251FE0CA
:104AE00042F004028EF80020EEB1AEF1010401257F
:104AF00016E000BF42F00802BCF1000F8EF8002063
:104B000011D0AEF1100402250AE000BF42F002020B
:104B1000BCF10E0F8EF8002005D80EF11004082508
:104B200023782B4323708078012834D1481C00F06F
:104B30000300DFE800F003230D1700BF42F001007F
:104B40000E2E8EF8000026D80EF1010004211FE081
:104B500042F004008EF80000EEB1AEF10100012138
:104B600016E000BF42F00800BCF1000F8EF8000014
:104B700008BF70BDAEF11000022109E042F0020052
:104B8000BCF10E0F8EF8000005D80EF110000821C0
:104B900002781143017070BDFEE70000B0B540F22D
:104BA000B804C2F20004DFED120ADFED121A9FED25
:104BB000122A04F11400B0EE000AB6EE001A00F05A
:104BC000C3F9DFED0E0A9FED0E1ADFED0E1A9FED11
:104BD0000E2A04F13400B1EE000A00F0B5F900200D
:104BE0000021002500F04EFC2580A570B0BD00BF5F
:104BF00000000000000096C300009643CDCC4C3D61
:104C0000CDCC4C3F0000C8C30000C84340F2B80000
:104C1000C2F20000407880F00100704770B540F2A9
:104C2000B806C2F2000686ED010AFBF701FF00F0AC
:104C3000E1FA06F11404204600F096F906F1340575
:104C4000284600F091F9204600F08EF9284600F041
:104C50008BF900F0B5FA8068B06040F20110308046
:104C60000020B07070BD000010B52DED028BB0EECD
:104C7000408A00F0A5FA90ED020A40F2B804C2F2B0
:104C8000000438EE000A04F1340084ED020A00F05A
:104C90006BF94FF4817020800020A070FCF730FA8F
:104CA000E060BDEC028B10BD10B500200021002497
:104CB00000F0E8FB40F2B800C2F20000048084700B
:104CC00010BD000070B52DED068B82B040F2B80427
:104CD000C2F20004207800285DD00020CDE9000059
:104CE00001A86946B0EE408AFBF758FE9DED019A97
:104CF0009DED00AA00F064FA217802291AD001295A
:104D000049D139EE0A0AB6EE001A94ED012A20EED6
:104D1000019AB4EE429AF1EE10FA26DA017811B94E
:104D2000817801295ED1D0ED010A9FED5A0A04F184
:104D300014005DE094ED020A90ED021A30EE410A93
:104D4000B0EEC00AB7EE001AB4EE410AF1EE10FA66
:104D500010DA0020002100F095FBA07800B3FCF7EA
:104D6000CFF92169401A502815D3002000210025D1
:104D70000DE000BF00250646A570FCF7C1F9E1680B
:104D8000401A40F2DD51884214D30020002100F087
:104D900079FB2580A57002B0BDEC068B70BD00BF0D
:104DA0000120A070FCF7ACF9206102B0BDEC068BCD
:104DB00070BD00BF94ED020AD6ED020A04F1340082
:104DC000B0EE481A00F06EF8B5EE400AF1EE10FAB7
:104DD0003ADD9FED2E1AB4EE410AF1EE10FA33DA05
:104DE000782049E094ED020AD0ED020A04F1340083
:104DF000B0EE481A00F056F894ED011A9FED262AFD
:104E000031EE491A81EE023A9FED244A4FF4C871FF
:104E1000B4EE421ABDEEC00AF1EE10FA23EE043AE7
:104E2000BDEEC33A13EE100AB8BF00F1960110EEC2
:104E3000100A0A18091A10B209B200F023FB02B0D6
:104E4000BDEC068B70BD00BF9FED111A0020B4EEC3
:104E5000410AF1EE10FAC8BF0120BDEEC01A11EEF2
:104E6000101AC007084618BF6FF07700B5EE400A69
:104E7000F1EE10FAA8BF0846424201B210B200F0AB
:104E800001FB02B0BDEC068B70BD00BF0000F0421C
:104E90000000F0C2000000000000204200007A4341
:104EA000FEE70000B5EE401AF1EE10FADCBF9FED10
:104EB000250A704730EE602A90ED044A90ED070A0B
:104EC00022EE015A90ED003A35EE044AB4EE404A23
:104ED00022EE033AF1EE10FA80ED044A06DCB1EE60
:104EE000400AB4EE404AF1EE10FA03DAB0EE404A5E
:104EF00080ED040A90ED030A90ED015A32EE400A6B
:104F000080EE011A90ED026A25EE044A90ED060A41
:104F100033EE043A26EE011A33EE011AB4EE401ACB
:104F2000F1EE10FA0ADC90ED053AB0EE410AB4EE6B
:104F3000431AF1EE10FAB8BFB0EE430A80ED032A2F
:104F4000704700BF0000000080EC030AB6EE000AC4
:104F500022EE000A0021C0ED051A80ED062A80ED40
:104F6000070AC0E9031170470021C0E90311704727
:104F70007047000070B540F21006C2F20006B0782B
:104F8000032800F27B80DFE800F00357273900BFD9
:104F90000020C4F202000421FCF79EF80546FCF74D
:104FA000AFF83178002D044608BF002935D1FCF751
:104FB000A7F8B168401AC8285ED90120307076A0E1
:104FC000B46000F0F7FFFFF7F9FA00F00BF94FF4C7
:104FD0008070A6F8010070BDFFF718FE00284BD0C6
:104FE0007078FFF7D9FCFFF749FB002864D0FFF782
:104FF0005BFE5FA000F0DEFF3CE000BF0020C4F2DB
:1050000002000421FCF768F80546FCF779F83178CE
:10501000002D044608BF002934D0681EB0FA80F085
:1050200040090840012827D1B068201AC92823D395
:105030000020307070BD00BFFFF7E8FDE0B1707870
:10504000FFF7AAFCFFF71AFB00283FD046F2360014
:10505000C0F6000000F0AEFFFFF726FEFFF780FC71
:105060000020C4F2020000F500604FF4005101225C
:10507000FCF740F80320B07070BD00BFBDE8704081
:10508000FFF712BEFCF73CF8B168401AC82898BF79
:1050900070BD0120307025A0B46000F08BFFFFF7D9
:1050A0008DFAFFF7FDFAFEF783FB00F09BF84FF453
:1050B0000070A6F8010070BDFEF70AFC411E03292E
:1050C00070702BD8DFE801F01224181E00F078F879
:1050D000FFF7A6FCFEF76CFBFEF7FAFB411E032967
:1050E00070701FD8DFE801F00214080E9FED1D0A52
:1050F000BDE87040FFF792BD9FED1B0ABDE8704010
:10510000FFF7B2BD9FED170ABDE87040FFF7ACBDD9
:105110009FED160ABDE87040FFF7A6BDFFF7C4FD7E
:105120000420A8E7FFF7C0FDA4E700BF5B53595375
:105130005D204C6F6164696E67204D6170206672FE
:105140006F6D20466C617368202620537461727401
:10515000696E6720466173742052756E2E2E2E0D77
:1051600000000000000034430000B4C20000B4425C
:105170005B5359535D20466173742052756E204312
:105180006F6D706C657465642053756363657373CC
:1051900066756C6C79210D005B5359535D20537417
:1051A000617274696E67204578706C6F72617469A2
:1051B0006F6E2052756E2E2E2E0D0000704700006F
:1051C00040F2A400C2F200000830704740F2A40090
:1051D000C2F20000002101818172C0E90311C0E91F
:1051E0000011704740F2A400C2F2000000210161EA
:1051F000FEF7D6BA40F2A400C2F200000021C0E9D6
:105200000011704770B50388002240F2A40E822B73
:1052100038BF0122C2F2000EB0F806C08EF8082096
:1052200042880026BCF1820F38BF01261509848808
:105230007C2D8EF80A601BD820097C2818D8A0186D
:1052400080B202EE100AB8EE422AB6EE003A22EE22
:10525000032A9FED383A0020B4EE432AF1EE10FA0B
:10526000B8BF0120812B8EF809000BD81DE000BFCC
:1052700000207C2D12D9822C38BF0120812B8EF882
:10528000090012D9BCF1810F1ED802EE10CA9FEDA1
:105290002B3AB8EE422A33EE422A1DE0822A38BF6A
:1052A0000120812B8EF80900ECD802EE103ABCF1F7
:1052B000810FB8EE422A0BD803EE10CAB8EE433A7B
:1052C00032EE432A0AE000BF9FED1B2A06E000BF32
:1052D0009FED1B3A32EE032A32EE022A9EED013A8E
:1052E0009EED004A30EEC33A34EE404A9FED155A27
:1052F00034EE033A83EE053A8EEC020A9FED120A71
:1053000091ED014A8EED032A21EE041A9FED104A19
:105310009EED042A21EE041A23EE000A9FED0B3ABB
:1053200020EE030A31EE000A32EE000A8EED040A86
:1053300070BD00BF000002430000000000005C429E
:1053400000005CC200009642E02E6542CDCC4C3D90
:105350003333733FFCF75CBC70B592B006AC2046AB
:105360003021FAF77FFF002543F640000595CDE98F
:105370000355CDE901550095C4F2020001680226EB
:1053800041F080510160006800F08050009000986A
:1053900047F200000095C4F20000016841F440416A
:1053A0000160006800F440400090009801200690E1
:1053B0004FF4803007904FF480000D900C200E9039
:1053C0006020CDE90F060420119020460C96FCF7D2
:1053D000E9FD18B172B600BFFEE700BF0F20CDE9AE
:1053E00001064FF48050CDE9040501A8032103957F
:1053F000FCF7C6FC10B172B6FEE700BF12B070BD7C
:105400004EF68850CEF20000016841F47001016050
:105410007047000070B540F24055C2F2000500210F
:1054200028600026FDF7B4FB28680421FDF7B0FBD7
:1054300040F20044C4F20204A4F58060202101225D
:10544000FBF758FE20464FF480510022FBF752FE36
:1054500020464FF400510022FBF74CFE28684FF421
:1054600080410068002246632046FBF743FE204649
:105470004FF400410022FBF73DFE28680068866378
:1054800070BD0000F0B581B040F200450C46C4F29A
:10549000020578B1064628464FF48051012E17DBED
:1054A0000122FBF727FE28464FF400510022FBF7AC
:1054B00021FE17E028464FF4805100220027FBF719
:1054C00019FE28464FF400510022FBF713FE10E0AE
:1054D0000022FBF70FFE28464FF400510122FBF794
:1054E00009FE764230B2B0F57A7FA8BF4FF47A70E9
:1054F00087B240F24056C2F20006306800684FF4AE
:105500008041476328465CB1012C15DB0122FBF783
:10551000F1FD28464FF400410022FBF7EBFD15E0BA
:1055200000220024FBF7E6FD28464FF4004100224C
:10553000FBF7E0FD11E000BF0022FBF7DBFD284692
:105540004FF400410122FBF7D5FD644220B2B0F5D3
:105550007A7FA8BF4FF47A7084B2306800688463A1
:1055600001B0F0BD10B540F2FF7E0368C4F2000E3A
:1055700040F2000C7045C4F2010C1DDD40F6000243
:10558000C4F20002904220D060451ED040F6004296
:10559000C4F20002904218D04FF6FF72C4F200022B
:1055A00090421CDC704525DCB0F1804F3AD040F2CF
:1055B0000042C4F2000233E0B0F1804F05D040F267
:1055C0000042C4F200029042E6D14A6823F0700320
:1055D00013434FF6FF72C4F200029042E2DD44F240
:1055E000FF32C4F20102904210DC60451AD044F24E
:1055F000000213E040F60002C4F20002904211D013
:1056000040F60042C4F200020AE000BF44F6000285
:10561000C4F20102904205D044F20042C4F20102F9
:10562000904203D1CA6823F44073134323F08002ED
:105630004B69D1F800E08C681A4360450260C4628F
:10564000C0F828E002D10969CCF83010012141618D
:105650000169C90708BF10BD016921F0010101619D
:1056600010BD0000B0B50446006804F108030ECB7D
:105670000569194325F440552A4302616269E369CB
:105680001143C268194349F20C639A431143C16044
:105690004169A26921F4407141F20043114340F491
:1056A0008062C4F201039A42416103D1FCF72EFCEF
:1056B00002E000BFFCF716FCE1694FF69C756368D9
:1056C0001922C0F6FF75B1F5004FA0FB02011FD1F2
:1056D0005A00DB0FFAF77CFD48F21F51C5F2EB11BF
:1056E000A0FB01235A0905F1805302FB030032237A
:1056F00003EBC000A0FB01014FF4F87000EA1110A9
:1057000000EB0210C1F34211084421688860B0BD6B
:105710009A009B0FFAF75CFD48F21F51C5F2EB119E
:10572000A0FB01235A0902FB0500322303EB001002
:10573000A0FB0101F02000EA511000EB0210C1F3C0
:105740004311084421688860B0BD0000FEE70000F6
:105750002DE9F04182B040F244760025C2F2000605
:10576000C4F202053060284608210022FBF7C2FC83
:10577000284610210022FBF7BDFC05F58064204679
:1057800001210022FBF7B6FC204602210022FBF794
:10579000B1FC0A200A27FBF765FA284608210122F6
:1057A000FBF7A8FC0520FBF75DFA42F68A2130687A
:1057B000ADF806100DF10602522102230097FBF707
:1057C000E5FE30684FF400780DF106025421022303
:1057D000ADF806800097FBF7D9FE2846102101227C
:1057E000FBF788FC0520FBF73DFA42F68A3130686A
:1057F000ADF806100DF10602522102230097FBF7C7
:10580000C5FE30680DF1060256210223ADF8068070
:105810000097FBF7BBFE204601210122FBF76AFC43
:105820000520FBF71FFA42F68A413068ADF80610F2
:105830000DF10602522102230097FBF7A7FE306804
:105840000DF1060258210223ADF806800097FBF700
:105850009DFE204602210122FBF74CFC0520FBF7B0
:1058600001FA42F68A513068ADF806100DF10602D1
:10587000522102230097FBF789FE30680DF10602E2
:105880005A210223ADF806800097FBF77FFE002027
:1058900002B0BDE8F08100002DE9F04186B040F291
:1058A0004478C2F200080446D8F800001425002706
:1058B0000A260DF10B02542101238DF80B50ADF88F
:1058C00008700096FBF762FE48B9D8F8000002AAFB
:1058D000542102230096FBF7CBFC00285AD041F656
:1058E000FE702080D8F800000DF10F025621012330
:1058F0008DF80F50ADF80C700096FBF747FE50B9CD
:10590000D8F800000A2703AA562102230097FBF7C4
:10591000AFFC00284ED041F6FE706080D8F8000041
:10592000142700250A260DF11302582101238DF8B2
:105930001370ADF810500096FBF728FE48B9D8F860
:10594000000004AA582102230096FBF791FC0028CE
:1059500040D041F6FE70A080D8F800000DF117028B
:105960005A2101238DF81770ADF814500096FBF7FB
:105970000DFE48B9D8F800000A2705AA5A210223CB
:105980000097FBF775FCA8B341F6FE70E08006B007
:10599000BDE8F081BDF808006FF4FA6201BA080CA6
:1059A00002EB114189B24FF63002914238BF41F605
:1059B000FE7096E7BDF80C006FF4FA6201BA080CAD
:1059C00002EB114189B24FF63002914238BF41F6E5
:1059D000FE70A2E7BDF810006FF4FA6201BA080C7D
:1059E00002EB114189B24FF63002914238BF41F6C5
:1059F000FE70B0E7BDF814006FF4FA6201BA080C4B
:105A000002EB114189B24FF63002914238BF41F6A4
:105A1000FE70E08006B0BDE8F081000080B582B085
:105A200040F21011C2F200014A68019032B101A99E
:105A3000104601220A23FDF7C1F9019802B080BD8A
:105A400098B040F2000AC4F2020AFCF7EFF8FFF740
:105A500083FC002443F630001394CDE91144CDE9D2
:105A60000F440094C4F2020001680AF5006641F098
:105A7000040101600168002201F004010091009915
:105A8000009401684FF4005741F080010160016803
:105A900001F08001009100990094016841F001013A
:105AA0000160016801F00101009100990094016812
:105AB00041F00201016000684FF4005100F0020063
:105AC000009000983046FBF715FB50463821002225
:105AD0004FF03809FBF70EFB0AF5806528464FF2B8
