:020000040800F2
:10000000480B0020AD010008FD4C0008412F0008FE
:10001000514A000895090008215500080000000019
:10002000000000000000000000000000195000085F
:100030009909000800000000CD4D0008615100083A
:10004000C7010008C7010008C7010008C701000870
:10005000C7010008C7010008C7010008C701000860
:10006000C7010008C7010008C7010008C701000850
:10007000C7010008C7010008C7010008C701000840
:10008000C7010008C7010008C70100080000000000
:10009000000000000000000000000000C701000890
:1000A000C7010008C7010008C7010008C701000810
:1000B000C7010008C7010008C7010008C701000800
:1000C000C7010008C7010008C7010008C7010008F0
:1000D000C7010008C7010008C701000800000000B0
:1000E000C7010008C7010008C701000800000000A0
:1000F000000000000000000000000000C701000830
:1001000000000000C7010008C7010008C70100087F
:1001100000000000000000000000000000000000DF
:10012000C7010008C7010008C7010008C70100088F
:10013000C7010008000000000000000000000000EF
:10014000000000000000000000000000C7010008DF
:10015000C7010008C7010008C7010008C70100085F
:10016000C7010008C70100080000000000000000EF
:10017000000000000000000000000000000000007F
:1001800000000000C701000800000000000000009F
:10019000C7010008C7010008DFF80CD000F046FBDB
:1001A0000048004791570008480B00200648804748
:1001B00006480047FEE7FEE7FEE7FEE7FEE7FEE74C
:1001C000FEE7FEE7FEE7FEE70D5200089901000892
:1001D0002DE9F05F0546002092469B46884606467C
:1001E000814640241BE0284641464746224600F00F
:1001F00004FA53465A46C01A914110D31146184684
:10020000224600F0EBF92D1A67EB01084F46224613
:100210000120002100F0E2F917EB00094E41201EF9
:10022000A4F10104DFDC484631462A464346BDE8D6
:10023000F09F40EA01039B0703D009E008C9121FA1
:1002400008C0042AFAD203E011F8013B00F8013B90
:10025000521EF9D27047D2B201E000F8012B491EBC
:10026000FBD270470022F6E710B513460A46044653
:100270001946FFF7F0FF204610BD00002DE9FF4FA3
:10028000087883B09946FF2805D0491C2D2804D052
:100290000024002008E000200BE00124F9E700EB37
:1002A000800003EB4000491C0B78FF2BF7D104B111
:1002B000404200230293147819461D462D2C01D08C
:1002C0002B2C04D1521C2D2C13D000240294AA46AE
:1002D0001478FF2C0FD00A25A3FB057801FB0581BC
:1002E0004FF0000C03FB0C11521CE3194AEB010107
:1002F000EEE70124EAE7814453EA010002D019F550
:10030000C87F06DA03980021C0E9001107B0BDE8F4
:10031000F08F0025AE4E2F46DFF8B882184600F069
:100320005DFACDE90001B9F1000002DAC9F100047B
:1003300000E004460023A74A1AEB030B42EB045AE1
:1003400012E0E00707D02A4633463846414600F01F
:1003500064F9074688462A4633461046194600F097
:100360005CF905460E466410002CEAD1DDE9000177
:10037000B9F1000F5A46534606DA00F0C0F93A4682
:10038000434600F0BCF905E000F047F93A46434621
:1003900000F043F9029A0AB181F00041039AC2E9E0
:1003A0000001B3E72DE9FF4F1F468DB0D7E90146A5
:1003B0004FF0FF382E2045464FF000090B90B969E9
:1003C0006D1C0E988847396A824688470028F6D106
:1003D000BAF1FF3F0AD024F4D064002E11DDBAF147
:1003E0002B0F08D0BAF12D0F0BD102E0404611B00F
:1003F0008DE744F48064B9696D1C0E988847824685
:10040000761E6946600501D52D2000E02B208DF871
:10041000000001F1010B0DF1200809E0B9696D1C24
:100420000E98884782460F9844F40074761E056043
:10043000002E02DDBAF1300FF0D00B998A453ED183
:1004400044F0800406E00F99681CA9F1010944F406
:1004500000740860B9696D1C761E0E988847824644
:100460003028F0D02BE00B998A4505D1200603D423
:1004700044F08004761E18E0504605F03CFC08B3BA
:100480000DF11302761EAAF1300044F40074934576
:1004900006D20BF8010B200607D5A9F1010003E0F5
:1004A000200602D409F101008146A00502D50F996A
:1004B000681C0860B9696D1C0E9888478246002E3A
:1004C000D1DC53E0002E51DDBAF1650F02D0BAF154
:1004D000450F4BD1A00549D5B9696D1C24F4407472
:1004E000761E0E9888478246002E0CDD2B2804D0FD
:1004F000BAF12D0F07D144F48074B9696D1C0E98C0
:1005000088478246761EE00501D52D2100E02B218B
:1005100008F8011BCDF82C8021E00DF12901761E91
:1005200044F4007488450CD2AAF1300010F0FF00AA
:1005300088F8000002D10B99884509D908F1010813
:1005400006E0E00501D5244801E042F20F70814643
:10055000B9696D1C0E98884782460F980560002E79
:1005600004DD504605F0C7FB0028D6D1F9690E9886
:100570008847FF208BF8000088F8000000200690D4
:1005800007904B466A4608A906A8FFF777FEA00524
:1005900002D46FF001002AE714F0240F0AD0E0071C
:1005A00014D1DDE906123868031D3B600068C0E91C
:1005B00000120BE0DDE9060100F01CF90146E0073E
:1005C00004D13868021D3A600068016028460EE7D1
:1005D000000014400000F03FF1D8FFFF202A04DBA8
:1005E000203A00FA02F1002070479140C2F1200346
:1005F00020FA03F3194390407047202A04DB203A85
:1006000021FA02F00021704721FA02F3D040C2F132
:10061000200291400843194670472DE9FE4F81EAB8
:10062000030404F0004421F0004100944FF0000B5B
:1006300023F0004350EA01045ED052EA03045BD089
:10064000C3F30A54C1F30A552C44A4F2F3340194C1
:10065000A0FB0254C1F3130141F48011C3F313034F
:1006600043F4801301FB024400FB034E840A970A03
:1006700044EA815447EA8357A4FB076802958D0A30
:1006800005FB07854FEA932C04FB0C542705029DBC
:100690004FEA065847EA1637B5EB08056EEB070C2C
:1006A000870E920E47EA811742EA8312A7FB0201E6
:1006B000B6EB0B0164EB00042B0D43EA0C335E1820
:1006C00044EB1C50DA465146E7FB0201C5F3130424
:1006D0004FEA0B3343EA14534FEA0432019C43EAD6
:1006E0000603A4F10C040294009CCDE900B400F0D0
:1006F000FBF803B0BDE8F08F00200146F9E72DE9D3
:10070000F04D81EA030404F0004B21F0004514464B
:100710004FF0000A23F0004150EA050220D054EACD
:1007200001021DD0C5F30A570246C5F31303C1F3F6
:100730001300C1F30A5640F4801543F48013A7EB6D
:100740000608101BD64608F2FD3873EB050002D3ED
:1007500008F1010801E092185B41B8F1000F03DADB
:1007600000200146BDE8F08D00204FF480110646C0
:1007700084460EE0171B73EB050705D3121B63EBD2
:10078000050306434CEA010C49084FEA3000921871
:100790005B4150EA0107EDD152EA030012D082EA30
:1007A000040083EA0501084305D0101BAB4106D2C3
:1007B0000122002306E000224FF0004302E06FF028
:1007C000010253101AEB06004CEB085110EB0A0023
:1007D00041EB0B01BDE8F04D00F077B80EB540F2EB
:1007E000334202920022CDE90022134600F07CF849
:1007F00003B000BD01F0004330B421F0004150EAE5
:10080000010206D00A0DA2F56072C1F31301002A9D
:1008100002DC30BC00207047440F44EAC104C10030
:10082000E01830BC00EBC25000F018B81CB5094805
:100830000090094801900546009C06E0E06840F001
:10084000010394E8070098471034AC42F6D3FFF751
:10085000A7FC0000D45D0008F45D00080029A8BFD3
:100860007047401C490008BF20F00100704710B4D9
:10087000B0FA80FC00FA0CF050EA010404BF10BC8E
:10088000704749B1CCF1200421FA04F411FA0CF1BB
:1008900018BF012121430843A3EB0C01CB1D4FEAF4
:1008A00000614FEA102042BF002010BC704700EBEF
:1008B000C35010440029A4BF10BC7047401C49001D
:1008C00008BF20F0010010BC704710B5141E73F172
:1008D000000408DA401C41F1000192185B411A4300
:1008E00001D120F0010010BD2DE9F04D92469B464C
:1008F00011B1B1FA81F202E0B0FA80F220329046F2
:10090000FFF76CFE04460F4640EA0A0041EA0B017D
:1009100053465A46084313D0114653EA010019D0F2
:10092000C8F140025046FFF768FE05460E465046A5
:1009300059464246FFF752FE084305D0012004E025
:1009400020463946BDE8F08D0020054346EAE076B2
:100950002C4337430A986305E40AA0EB0800002201
:10096000FD0A44EA47540A3002D500200146E9E76F
:10097000010510196941DDE9084500196941BDE823
:10098000F04DA2E740F20C11C2F2000101224860D2
:1009900002F0E2B9FEE7000070470000F0B540F257
:1009A0007C02C2F2000202F1040E9EE808501769B0
:1009B0001B689FED111A5B6ADCF80040646A1588B9
:1009C00056885D1B0EFA85F500EE105AA61BB8EE90
:1009D000C00A07FA86F720EE010A80ED000A00EE51
:1009E000107AB8EEC00A20EE010AC2E9035713805C
:1009F000548081ED000AF0BD35FA8E3D10B540F20D
:100A00007C04C2F20004C4E901013C2101F0FEFEB5
:100A1000A0683C2101F0FAFED4E901010068406AB7
:100A200009682080486A60800020C4E9030010BD86
:100A300040F27C00C2F20000D0E901120968496A64
:100A400012680180516A41800021C0E9031170479A
:100A5000F0B581B040F21C57044643F60C46C2F292
:100A600000070020C4F20206F86100F041FB316883
:100A7000C9031DD43068C0071CBF01203060306836
:100A800010F4F97F32D03068C00633D43068800665
:100A900039D4306840063FD43068000645D4306809
:100AA000C0054BD43068800752D4012001B0F0BD9E
:100AB000C4B10546601C10D13068C003DAD5306877
:100AC000C00344BF30685FEAC030D3D53068C0038C
:100AD000F2D4CFE73068C003CCD500F009FB401B4F
:100AE000A042F7D9032001B0F0BD00BF002001B043
:100AF000F0BD00BFF86940F01000F86110203060D0
:100B000030688006C5D5F86940F00800F8612020FB
:100B1000306030684006BFD5F86940F00400F861E5
:100B20004020306030680006B9D5F86940F0020016
:100B3000F861802030603068C005B3D5F86940F0B6
:100B40000100F8614FF48070306030688007ACD5E8
:100B5000F86940F02000F86102203060012001B007
:100B6000F0BD0000002908BF704770B540F2010ECB
:100B7000C0F6060E042901F0030C07D20021BCF1D7
:100B8000000F1CD1BDE87040704700BF21F0030189
:100B90004942421C6FF003030EEB0304E578D618BC
:100BA000F57025790433357165797571A479CD189F
:100BB0000435B471F0D1191DBCF1000FE2D00EEB79
:100BC000010212F8012CBCF1010F4254DAD04A1C88
:100BD0000EEB020313F8013CBCF1020F8354D1D099
:100BE00002310EEB010212F8012C4254BDE87040B4
:100BF00070470000F0B587B00C46054600F084F958
:100C0000002002900220069007200490012602A8EE
:100C100001A9059600F03AF8074600F0FDF81FB16B
:100C2000304607B0F0BD00BF00F06EF974B1002689
:100C3000C0F6060615F8012B00203146002300F00F
:100C4000F5F848B9013C06F10106F3D1002600F0A1
:100C5000E3F8304607B0F0BD012600F0DDF830467D
:100C600007B0F0BDB0B5044600F042FA054640F2C8
:100C70000400C2F200000078611C18BF044400BFE9
:100C800000F036FA401BA042FAD3B0BD2DE9F04384
:100C900081B040F21C58C2F2000898F81820012ACE
:100CA00004D1022001B0BDE8F08300BF0546012059
:100CB00088F818004CF250308946FFF7C9FE28B179
:100CC000002188F8181001B0BDE8F0834FF0FF3024
:100CD000C9F80000286843F610470128C4F202074B
:100CE0001CD128693968000221F4407139603968E3
:100CF00080B241F0040139603968084340F4803023
:100D000038604CF25030FFF7A3FE396821F004013F
:100D1000396057F8101C89053BD452E0D5E90260D0
:100D20003044864230D2F000841C00BF28694FF462
:100D30004072C1B2032939684FEA002021F44071A2
:100D40003960396838BF82B241EA020038603868D9
:100D500020F0F8003860386820433860386840F484
:100D6000803038604CF25030FFF772FE396800284E
:100D700021F0FA01396047D1D5E902010136084472
:100D8000864204F10804D1D3002057F8101C8905CD
:100D900017D557F8101C21F4007147F8101C57F8AC
:100DA000101C41F4006147F8101C57F8101C21F486
:100DB000006147F8101C57F8101C41F4007147F807
:100DC000101C57F8101C49057FF57AAF57F8101C16
:100DD00021F4806147F8101C57F8101C41F4805131
:100DE00047F8101C57F8101C21F4805147F8101CCC
:100DF00057F8101C41F4806147F8101C002188F856
:100E0000181001B0BDE8F083C9F8006057F8101C55
:100E10008905BED4D5E7000043F61041C4F20201B3
:100E2000086840F0004200200A6070472DE9F04158
:100E300040F21C54C2F20004277E012F04BF02209E
:100E4000BDE8F0810546012020764CF250309846EE
:100E50000F461646FFF7FCFD20B100212176BDE8C4
:100E6000F08100BF2A46022D43F61045C4F2020568
:100E70001ED0012A314638460CD03ABB2A6822F4EB
:100E800040722A602A682A602A6842F001022A60B9
:100E900001702CE02A6822F440722A602A6842F429
:100EA00080722A602A6842F001022A6001801EE0F6
:100EB000286820F440702860286840F4007028609A
:100EC000286840F0010028603E6010E02A6822F4A3
:100ED00040722A602A6842F440722A602A6842F00E
:100EE00001022A600160BFF36F8FC0F804804CF2EA
:100EF0005030FFF7ADFD296821F001012960002184
:100F00002176BDE8F081000043F60440C4F20200FF
:100F1000C168B1F1FF3FC4BF0020704740F2231108
:100F2000C4F26751016048F6AB11CCF6EF51016095
:100F3000C068C00F704700002DE9F04F83B000F18A
:100F4000200200F13E4741F20005009207F1FF77D1
:100F5000C4F2020507224FEAB726A84208BF0422BE
:100F600000254FF000084FF00009042E38BF4FEA6B
:100F7000B72201920AE000BF09F1010908F1020855
:100F8000B9F1100F05F1040500F0A2800F680122ED
:100F900002FA09FE17EA0E0AEED0D1F804C00322C5
:100FA0000CF003077E1E02FA08F4012E6FEA040B10
:100FB00012D88468CE6804EA0B0406FA08F63443B3
:100FC0008460446824EA0E06CCF3001404FA09F4A1
:100FD0002643466004E000BF032F01D103271EE033
:100FE000C6688C6806EA0B0604FA08F42643022F4A
:100FF000C66014D16FF00302009E02EA590756F84A
:1010000007C005F01C040F220B69A2402CEA020263
:10101000A3401A43F251D1F804C00CF00307026850
:1010200007FA08F302EA0B021A431CF4403F02607D
:10103000A2D0002243F644030292C4F202031A68CB
:1010400043F6004442F480421A601A68C4F2010474
:1010500002F480420292029A29F003024FF6084CF1
:101060002244CFF6FF7C52F80C3005F00C070F2617
:10107000BE40B343019E06FA07F73B4342F80C30EB
:10108000A2684B6842EA0A0743F60C4CDE0258BFDE
:1010900022EA0A07A760C4F2010CDCF800209E02D5
:1010A00042EA0A0758BF22EA0A07CCF800706268D1
:1010B0009E0342EA0A0758BF22EA0A0767602268CD
:1010C000DB0342EA0A0758BF22EA0A07276053E710
:1010D00003B0BDE8F08F00000069084018BF012090
:1010E00070470000002A08BF0904816170470000B2
:1010F00040F24470C2F2000000687047002804BF4C
:1011000001207047F0B581B0044690F83D0028B941
:10111000002084F83C00204600F0F8FC242084F8ED
:101120003D002068016821F001010160016841F47F
:1011300000410160016821F40041016000F0CAFE35
:10114000636848F2A16CC0F2010C40F60011C0F2D5
:101150003D0163453CBF48F28041C0F21E01884218
:1011600002D2012001B0F0BD4DF68361C4F21B3103
:10117000A0FB01122168970CD1F804E04FF4967699
:101180002EF03F0545EA92454D60774348F6381604
:101190000D6AC0F24106A7FB067625F03F076345BE
:1011A00038BF960C721C3A430A62CA6948F2A066BC
:1011B0004CF6FF77C0F20106B34222EA07020BD8D1
:1011C00001385B00B0FBF3F001306FF31F300428EF
:1011D00098BF04201BE000BFA768013857B119274A
:1011E0007B43B0FBF3F001306FF31F3070B100F5BB
:1011F000804007E003EB4303B0FBF3F001306FF3F3
:101200001F3018B100F5004001E000BF012010437D
:10121000C8610868D4E9072320F0C00010431843D0
:101220000860886848F2FF3204F10C0790438CCFC5
:1012300018431043A6698860C86820F0FF0038434F
:101240003043C860086840F0010008600020202199
:10125000206484F83D10206384F83E0001B0F0BDA6
:101260002DE9F04383B01F46164689460446FFF732
:101270003FFF94F83D10202924D10546206800BF87
:10128000816989071AD5FFF733FF411B20681A29A6
:10129000F6D381698907F3D500202021206384F8E3
:1012A0003D1084F83E00216C41F02001216484F857
:1012B0003C00022003B0BDE8F08300BF94F83C106E
:1012C000012903D1022003B0BDE8F083012184F895
:1012D0003C100168C90703D1016841F001010160B8
:1012E000016840F2040821F400610160222184F8C1
:1012F0003D10102184F83E1000212164666267854C
:10130000618DC0F201082185A8F500310439E16240
:10131000E16A02680A9F42F4806211F5803F026030
:1013200018BF012942D1016841F480710160204653
:101330004FF0011100223B46009501F04FFF58B1DC
:1013400020680068C00544BF4FF40070206401208D
:1013500003B0BDE8F08300BF2069B0F5804F2BD10A
:1013600049F00100C0B221683A460861A8F10201C3
:1013700020462B4602F018F80028E8D1208D0028DE
:101380005AD002284ED001286ED121680A6822F472
:1013900080620A60002202924A6902928A6902927D
:1013A000029A0A6842F400720A6078E00829BAD00A
:1013B000216B1129B7D0BAE7062000EAD9162068B8
:1013C00006F1F001016108F1040120463A462B467E
:1013D00001F0EAFF0028BAD120685FFA89F10161C3
:1013E000A8F1020120463A462B4601F0DDFF002815
:1013F000ADD1002002902068002241693B46029155
:10140000816902910299016841F48071016020466E
:101410004FF00111009501F0E1FE002890D146F057
:10142000F100A0E721680A6822F480620A600A6875
:1014300042F400621CE000BF002002902068416975
:101440000291816902910299016841F40071016081
:10145000202084F83D00002084F83E0084F83C0001
:1014600003B0BDE8F08300BF21680A6842F48062DF
:101470000A60002202924A690292896902910299E5
:101480000DE000BF10690870606A218D0130606254
:10149000481E2085618D013961850104D8D080B254
:1014A00003280FD802284AD001282DD120463946DA
:1014B0002A4601F0E5FF00287FF449AF2068616A01
:1014C0000069E0E7204639462A4601F0D9FF0028A6
:1014D0007FF43DAF2068616A00690870606A226825
:1014E000411C208D616201382085638D013B63853D
:1014F00053695B07D1D580B20328C3D1106820F4AB
:1015000080601060BEE700BF2046414600223B4697
:10151000009501F063FE00287FF419AF2068616A2E
:10152000026822F48062026000690870606A218D9E
:1015300001306062481E2085608D0138608520463C
:10154000414600223B46009501F048FE00287FF40A
:10155000FEAE2068616A026842F4007202600069AF
:101560000870606A2268411C6162218D0139218501
:10157000618D013961851169417085E72DE9F0437D
:1015800083B01E46174689460446FFF7B1FD94F81E
:101590003D10202924D10546206800BF81698907B4
:1015A0001AD5FFF7A5FD411B20681A29F6D38169DA
:1015B0008907F3D500202021206384F83D1084F8AA
:1015C0003E00216C41F02001216484F83C0002209F
:1015D00003B0BDE8F08300BF94F83C10012903D1AB
:1015E000022003B0BDE8F083012184F83C100168BB
:1015F000C90703D1016841F001010160016840F2AF
:10160000020821F400610160212184F83D101021BD
:1016100084F83E100021216467626685618DC0F206
:1016200001082185A8F10211E162E16A0A9E11F523
:10163000803F18BF01291DD1016841F4807101600C
:1016400020464FF0011100223346009501F0C6FDFF
:1016500050B120680068C00544BF4FF4007020649A
:10166000012003B0BDE8F0832069B0F5804F07D1B9
:10167000FE2015E00829DFD0216B1229DCD0DFE73E
:10168000062000EAD9102168F030086108F106014F
:10169000204632462B4601F087FE0028E0D1FF208D
:1016A000216800EA090008612046414632462B467F
:1016B00001F07AFE0028D3D1002002902068416911
:1016C000029180690290029806E000BF20463146F0
:1016D0002A4601F025FD18BB208D68B3204631460F
:1016E0002A4601F015FFD8B9606A2168024612F84F
:1016F000013B0B616262628D013A6285228D531E4D
:1017000023854F697F07E1D51B04DFD04378023082
:101710000B616062608D01386085901E2085D5E781
:10172000206C04289CD12068016841F4007101609C
:10173000012003B0BDE8F0832068016841F4007126
:101740000160202084F83D00002084F83E0084F8E9
:101750003C0003B0BDE8F0832DE9F04784B0994622
:1017600016460F460446FFF7C3FC94F83D102029A7
:1017700027D10546206800BF816989071CD5FFF77E
:10178000B7FC411B20681A29F6D381698907F3D574
:1017900000202021206384F83D1084F83E00206C56
:1017A00004F13C0A40F020002064022000218AF865
:1017B000001004B0BDE8F087A2461AF83C1F0129CA
:1017C00004D1022004B0BDE8F08700BF01228AF8EE
:1017D00000200368DDE90D180C9ADB0703D10368CC
:1017E00043F001030360036823F4006303602220D5
:1017F00084F83D00402084F83E00002020646262AE
:101800006185608D394620850020CFF6FF70E0624B
:10181000204632464B46CDE9008501F093FB18B1D6
:10182000012004B0BDE8F087208D08B3022813D052
:10183000012835D121680A6822F480620A600022FA
:1018400003924A6903928A690392039A0A6842F4EE
:1018500000720A602CE000BF21680A6822F48062EE
:101860000A600A6842F400620A60002203921AE0E9
:1018700000200390206841690391816903910399D5
:10188000016841F400710160202084F83D000020CF
:1018900084F83E0000218AF8001004B0BDE8F0870B
:1018A0000021039121684A69039289690391039990
:1018B0000427C0F201070CE010690870606A218DEE
:1018C00001306062481E2085618D01396185010407
:1018D000DAD080B203280FD802284AD001282DD1AF
:1018E000204641462A4601F0CBFD002898D12068C9
:1018F000616A0069E1E700BF204641462A4601F0DF
:10190000BFFD00287FF48CAF2068616A0069087011
:10191000606A2268411C208D616201382085638DD8
:10192000013B638553695B07D1D580B20328C3D1DE
:10193000106820F480601060BEE700BF2046394682
:1019400000224346009501F049FC00287FF468AF6F
:101950002068616A026822F480620260006908708F
:10196000606A218D01306062481E2085608D0138DB
:1019700060852046394600224346009501F02EFC42
:1019800000287FF44DAF2068616A026842F400725B
:10199000026000690870606A2268411C6162218DE2
:1019A00001392185618D013961851169417085E7B2
:1019B0002DE9F04383B0994616460F460446FFF7DB
:1019C00097FB94F83D10202924D10546206800BFDC
:1019D000816989071AD5FFF78BFB411B20681A29FB
:1019E000F6D381698907F3D500202021206384F88C
:1019F0003D1084F83E00216C41F02001216484F800
:101A00003C00022003B0BDE8F08300BF94F83C1016
:101A1000012903D1022003B0BDE8F083012284F83C
:101A20003C200368DDE90B180A9ADB0703D1036841
:101A300043F001030360036823F400630360212083
:101A400084F83D00402084F83E000020206462625B
:101A50006185608D394620850020CFF6FF70E062F9
:101A6000204632464B46CDE9008501F0F5FA18B123
:101A7000012003B0BDE8F083208D98B9204641468F
:101A80002A4601F04DFB88B3206C0428F0D1206871
:101A9000016841F400710160012003B0BDE8F083EA
:101AA0000004EBD0204641462A4601F031FD0028D3
:101AB000EAD1616A2268084610F8013B1361238D60
:101AC0006062581E2085678D013F678557697F07D3
:101AD000E6D50704E4D048781061881C6062981E3F
:101AE0002085618D01396185DAE700BF20680168D2
:101AF00041F400710160202084F83D00002084F84A
:101B00003E0084F83C0003B0BDE8F0832DE9F043CB
:101B100087B0006845F60001C4F200010026884243
:101B2000CDE90566CDE9036602962DD045F2004168
:101B3000C4F20001884260D1002443F630050194CC
:101B4000C4F20205286802A940F002002860286853
:101B500000F0020001900198C02002901220CDE90F
:101B60000304032005900420069040F20040C4F2D4
:101B70000200FFF7E1F90194286940F400102861A0
:101B8000286900F4001036E043F630070196C4F2ED
:101B90000207386840F2004440F0020038603868BC
:101BA000C4F2020400F00200019001984FF480603A
:101BB0000290042002AD4FF012084FF00309069086
:101BC00020462946CDE90386CDF81490FFF7B4F9F5
:101BD0000820CDE902080920069020462946CDE9D3
:101BE0000469FFF7A9F90196386940F4800038616B
:101BF000386900F480000190019807B0BDE8F083D7
:101C000040F2040040F24471C2F20000C2F200014E
:101C100000780A68104408607047000080B543F6F9
:101C20000040C4F20200016841F4007101600168E3
:101C300041F480610160016841F48071016003201A
:101C400000F086F80F2000F005F800F027F80020DB
:101C500080BD000070B540F20406C2F2000640F2FA
:101C60000C013278C2F200014FF47A730968B3FBB9
:101C7000F2F20446B1FBF2F1084600F061FB0F2CD2
:101C80004FF0010508D838B94FF0FF302146002247
:101C9000002500F031F87460284670BD82B0002045
:101CA00043F640010190C4F202014A6842F48042C6
:101CB0004A604A6802F480420192019A00900868E2
:101CC00040F080500860086800F080500090009854
:101CD00002B07047002848BF704700F01F01012282
:101CE00002FA01F11C2202EAD0004EF20012CEF2FA
:101CF000000281507047000010B54EF60C5CCEF229
:101D0000000CDCF80030C3F3022E8EF00704042C24
:101D100028BF0424BEF103034FF0FF3E0EFA04F483
:101D200038BF0023A14399400EFA03F39A431143AD
:101D300000F00F0200F160430901043A03F5644327
:101D40006244002848BF02F10C03197010BD000066
:101D50004EF60C51CEF200010A684FF6FF031A400E
:101D600060F30A2242F0806040F0FD700860704726
:101D7000002804BF012070472DE9F04143F6080810
:101D8000C4F202080446D8F8F8030D4600F0070034
:101D9000814207D988F8F853D8F8F80300F0070013
:101DA000A84277D12068810717D5410705D5D8F813
:101DB000001041F4E051C8F80010010705D5D8F82B
:101DC000001041F46041C8F80010D8F80010A26873
:101DD00021F0F0011143C8F80010C00740D1D8F835
:101DE000F80300F00700854207D288F8F853D8F8C6
:101DF000F80300F00700A8424CD12068410707D53E
:101E0000D8F80010E26821F4E0511143C8F800103E
:101E1000000708D5D8F80000216920F4604040EAA6
:101E2000C100C8F8000000F07DF8D8F8001045F6B1
:101E30002852C1F30311C0F60002515C40F20C02BB
:101E400020FA01F140F20800C2F200000068C2F27C
:101E500000021160FFF7FEFE0020BDE8F08100BF28
:101E60006068811E022907D258F8081C89015CBFEE
:101E70000120BDE8F08111E0012807D158F8081CC5
:101E800089035CBF0120BDE8F08107E058F8081C19
:101E9000890703D40120BDE8F08100BFD8F8001005
:101EA00021F003010843C8F80000FFF721F90646B6
:101EB00041F28837D8F80000616800F00C00B0EB00
:101EC000810F8CD0FFF714F9801BB842F2D90320A0
:101ED000BDE8F08140F20C0043F60801C2F20000B8
:101EE000C4F202010068096845F63852C1F3822144
:101EF000C0F60002515CC8407047000040F20C0080
:101F000043F60801C2F20000C4F202010068096849
:101F100045F63852C1F34231C0F60002515CC84068
:101F20007047000010B543F60404C4F2020461686F
:101F3000C1F3810142F20040C0F2F400DFE801F099
:101F400002040A0210BD00BF47F64000C0F27D1037
:101F500010BD00BF206821682368490247F6400190
:101F6000C0F27D1100F03F02C3F388105CBF42F263
:101F70000041C0F2F401A1FB00010023FEF728F9A3
:101F800021680222C1F3014102EB4101B0FBF1F0F3
:101F900010BD0000002804BF012070472DE9F0416A
:101FA00082B00446007843F60006C007C4F2020679
:101FB0000CD0B06800F00C00042840F0818030683C
:101FC000800303D56068002800F0688120788007CE
:101FD0001BD5B06810F00C0F09D0B06800F00C00F1
:101FE000082840F087807068400200F183803068E4
:101FF000800703D5E068012840F0508130682169EE
:1020000020F0F80040EAC10030602078000713D4C7
:10201000207840072AD4A569002D00F03A81B068E5
:1020200000F00C00082840F0A580012D40F00E8142
:10203000012002B0BDE8F0816069002800F08280D4
:102040000020C4F247200121C0F8801EFFF750F89D
:10205000054600BF706F8007DAD4FFF749F8401BD0
:102060000228F7D9032002B0BDE8F081306C5FEAA6
:10207000C0080AD400200190306C40F080503064D9
:10208000306C00F080500190019847F20007C4F2D4
:1020900000073868C00547D4386840F4807038605D
:1020A000FFF726F8054600BF3868C0053CD4FFF7A7
:1020B0001FF8401B0228F7D9032002B0BDE8F081C9
:1020C000B06800F00C00082803D1706840023FF5AA
:1020D00076AF61683068B1F5803F07D0B1F5A02FC9
:1020E00040F09A8040F480203060306840F48030C6
:1020F00030609AE0E068002840F20000C4F2472017
:102100005CD001210160FEF7F3FF054630688007CF
:102110003FF574AFFEF7ECFF401B0228F6D9032011
:1021200002B0BDE8F08100BFA168306F012905D081
:10213000052955D140F004003067306F40F00100B0
:10214000306756E00020C4F247200021C0F8801E0E
:10215000FEF7CEFF054600BF706F80077FF558AFD2
:10216000FEF7C6FF401B0228F6D9032002B0BDE8E7
:10217000F08100BF0027C4F2472700203866FEF731
:10218000B7FF022D05460DD13068800140F18A80ED
:10219000FEF7AEFF401B02284FF00300F4D902B057
:1021A000BDE8F0813068800173D5FEF7A1FF401BC8
:1021B00002284FF00300F5D9F1E700BF00210160CC
:1021C000FEF796FF054600BF306880077FF51DAF1C
:1021D000FEF78EFF401B02284FF00300F4D9DEE724
:1021E00020F001003067306F002920F004003067D4
:1021F0007AD0FEF77DFF054641F28837306F8007C1
:1022000000F18480FEF774FF401BB842F6D903202A
:1022100002B0BDE8F08100BF20F48030306030684B
:10222000002920F4802030607AD0FEF761FF054657
:10223000306880033FF5CAAEFEF75AFF401B6428A2
:10224000F6D9032002B0BDE8F08100BF7068E169F3
:1022500000F480028A4221D1216A00F03F028A42C2
:102260001CD147F6C071626A0140B1EB821F15D1E3
:10227000A16A4FF6FF73C903994300F44032A1F5F8
:1022800080318A420AD1E16A00F07060B0EB016FE0
:1022900004D1002002B0BDE8F08100BF012002B0EF
:1022A000BDE8F08104F11C052FCD084340EA8210FF
:1022B000D9034FF6FF729143A1F5803140EA0560E2
:1022C0000843706001203866FEF712FF044600BF25
:1022D00030688001DDD4FEF70BFF001B02284FF0B1
:1022E0000300F5D95BE700BFFEF702FF054641F2A8
:1022F000883700BF306F800708D5FEF7F9FE401B16
:10230000B8424FF00300F5D949E700BFB8F1000F1C
:102310003FF581AE306C20F0805030647BE600BF2A
:10232000FEF7E6FE054600BF306880037FF54EAE3F
:10233000FEF7DEFE401B64284FF00300F4D92EE7C1
:10234000411E0020B0EB116F1CBF012070474EF200
:102350001002CEF2000251604EF62351CEF200017F
:10236000F0230B70072190601160704790F83C20BB
:10237000012A04BF02207047B0B501F108053CCD29
:10238000D1E900CE23F47C5322F470521A432EF488
:10239000F0431A432CF4E0431A4324F4C0431A4395
:1023A0002A43C96922F48042036811435964002119
:1023B00080F83C100020B0BD90F83C20012A4FF07E
:1023C000020241D010B580F83D200268D2F804E046
:1023D000D2F808C00C682EF07003234340F6FF3497
:1023E000C4F20004A242536010DCB2F1804F1ED050
:1023F00040F20043C4F200039A4218D040F60003B2
:10240000C4F200039A4212D016E000BF40F6004327
:10241000C4F200039A420AD044F20003C4F201035A
:102420009A4204D00023C4F201039A4204D14968BD
:102430002CF08003194391600121002280F83D10A7
:1024400080F83C20BDE8104010467047002804BFCB
:102450000120704710B5044690F83D0028B90020CF
:1024600084F83C00204600F01FF8022084F83D006C
:102470002068211D02F060FF012084F8460084F8E6
:102480003E0084F83F0084F8400084F8410084F85E
:10249000420084F8430084F8440084F8450084F83E
:1024A0003D00002010BD000082B0006840F60041F1
:1024B000C4F20001884215D00021C4F20101884213
:1024C0001FD10020019043F64000C4F20200416891
:1024D00041F001014160406800F001000190019865
:1024E00002B070470020009043F64000C4F20200A2
:1024F000016841F008010160006800F008000090E8
:10250000009802B07047000090F83C20012A4FF07C
:1025100002026CD080B580F83D20D0F800C04FF6A4
:102520007772DCF8083023EA0202CCF808200B6846
:102530004F2B29DC1F2B45DD202B46D0302B44D0E0
:10254000402B40F0AF80D1F804E0C968DCF82030BF
:10255000DCF8202022F00102CCF82020DCF8182042
:1025600022F0F00242EA011123F00A0242EA0E02CE
:10257000CCF81810CCF82020DCF8081041F0470106
:1025800021F0300128E000BF6F2B33DDB3F5005F91
:1025900074D0B3F5805F21D0702B40F08380D1E9F7
:1025A00001E3C968DCF8082043EA0E0322F47F4205
:1025B00043EA01211143CCF80810DCF8081041F07F
:1025C000770109E00BB1102B6CD1DCF8081021F079
:1025D0007001194341F00701CCF8081000220121D5
:1025E00080F83D10002180F83C10BDE88040104686
:1025F000704700BF502B21D0602B53D1D1F804E09D
:10260000C968DCF82030DCF8202022F01002CCF879
:102610002020DCF8182022F4704242EA013123F035
:10262000A00242EA0E12CCF81810CCF82020DCF8F8
:10263000081041F0670121F01001CDE7D1F804E066
:10264000C968DCF82030DCF8202022F00102CCF848
:102650002020DCF8182022F0F00242EA011123F0D9
:102660000A0242EA0E02CCF81810CCF82020DCF85E
:10267000081041F0570121F02001ADE7D1E901E355
:10268000C968DCF8082043EA0E0322F47F4243EADB
:1026900001211143CCF80810DCF8081041F4804106
:1026A0009AE700BF01229AE7002804BF0120704783
:1026B0002DE9F047044690F83D000D4628B900206A
:1026C00084F83C00204600F049F8022084F83D00E0
:1026D000206844F20702816891438160211D02F065
:1026E0002BFE20684FF6FF7881688269D0F820C001
:1026F000D5E9003ED5E9026A43EA0109AB6922EA5D
:10270000080246EA03234FF6FC46B343D5E90767C0
:1027100042EA0A0229691A4342EA062242EA011100
:102720002CF0AA026B6942EA0E0241EA073142EA42
:102730000312C0F8089081610262012084F846000B
:1027400084F83E0084F83F0084F8420084F8430097
:1027500084F83D000020BDE8F087000080B586B019
:10276000006840F20042C4F2000200219042CDE92C
:102770000411CDE9021101911ED0B0F1804F42D178
:10278000002043F630010090C4F202010A6942F0D1
:1027900001020A610A6902F001020092009A0090A7
:1027A000086840F0010008600868032100F001009B
:1027B00000900098012019E043F630000091C4F227
:1027C0000200026942F002020261026902F00202A2
:1027D0000092009A0091016841F0010101600068D7
:1027E000C02100F001000090009802200191022118
:1027F0000291002105900020CDE90311C4F20200EE
:1028000001A9FEF799FB06B080BD000080B590F8E5
:102810003E2090F83F3090F842E090F843C0042901
:102820000AD0B9B9012A4FF0010208BFBEF1010F69
:1028300034D0104680BD00BF012B4FF0010208BF0D
:10284000BCF1010FF5D1022180F83F1080F8431050
:1028500000681EE0012A4FF0010208BF012BE8D1F9
:10286000BEF1010FE5D1BCF1010FE2D1022280F8E7
:102870003E2080F83F2080F8422080F8432091B12C
:102880000068016A21F001010162016A41F0010161
:10289000016210216FF0100209E000BF022180F8F0
:1028A0003E1080F84210006801216FF00102036AB7
:1028B0001A400262026A114301620168002241F07B
:1028C00001010160104680BD80B586B0002100681E
:1028D000C4F20101002288420592CDE9032202924E
:1028E000019201D006B080BD43F630000092C4F2E0
:1028F0000200036843F001030360006800F0010078
:10290000009000984FF4407001900220CDE902023F
:102910000120059001F5803001A90492FEF70CFB1F
:1029200006B080BD90F83C30012B04BF02207047F8
:102930004FEAB202032A00F2ED802DE9F043DFE80E
:1029400002F003A3397300BF036800261D6A1A6AE8
:10295000C4F2010622F001021A621A465C6852F8BB
:1029600018CFB3428E68D1F800E025F0020545EAA1
:1029700006050CD1CE68D1E9057824F4407425F021
:102980000C0526F004063C43354344EA08042CF0C9
:10299000730747EA0E075C609F614F6809695F63D0
:1029A0001D629F6947F008079F619F6927F0040730
:1029B0009F61A4E0036800261D6A1A6AC4F201063A
:1029C00022F480721A621A46D3F804C052F81CEF3F
:1029D000B3428E680C6825F4007545EA06250FD1D0
:1029E000CE68D1E90598360240F2FF4725F44065EC
:1029F000BE4335432CF4405748EA090647EA061C13
:102A00002EF073072743C3F804C0DF614F680969DC
:102A1000DF631D62DF6947F00807DF61DF6927F0C8
:102A20000407DF616BE000BF03680027D3F820C014
:102A30001A6AC4F2010722F480521A621A465C68CC
:102A400052F81C5FD1F800E08E68BB4204D14F6998
:102A500024F4804444EA87142CF4005747EA0637EC
:102A600025F4E64646EA0E265C60DE614E6809699A
:102A70001E641F62DF6947F40067DF61DF6927F4C6
:102A80008067DF613AE000BF036800261D6A1A6AAA
:102A9000C4F2010622F010021A621A46D3F804C0EA
:102AA00052F8184FB3428E68D1F800E025F02005A7
:102AB00045EA06150FD1CE68D1E905986FF04007B9
:102AC00025F0C00507EA061635432CF4406748EAAE
:102AD000090647EA860C24F4E64444EA0E27C3F8C4
:102AE00004C09F614F6809699F631D629F6947F435
:102AF00000679F619F6927F480679F6109021368DF
:102B0000194311600021BDE8F043002280F83C2009
:102B1000084670470121002280F83C200846704793
:102B2000002804BF0120704710B5044690F83D000E
:102B300028B9002084F83C00204600F01FF802204D
:102B400084F83D002068211D02F0F6FB012084F886
:102B5000460084F83E0084F83F0084F8400084F882
:102B6000410084F8420084F8430084F8440084F86B
:102B7000450084F83D00002010BD000070470000B3
:102B8000C1B1042908D0082914BF41224022825C27
:102B9000012A05D016E000BF3F22825C012A11D134
:102BA0000222082910D0042914BF80F8412080F89F
:102BB0003F200BE090F83E20012A03D1022280F84A
:102BC0003E2003E00120704780F84020006801F0BB
:102BD0001F010122036A8A4023EA02010162036A9B
:102BE0004421C4F201011A43A1F144039842026254
:102BF00016D040F6FF31C4F2000188421ADCB0F171
:102C0000804F28D040F20041C4F20001884222D017
:102C100040F60001C4F2000188421CD022E000BF4F
:102C20000A6842F400420A6040F6FF31C4F2000133
:102C30008842E4DD40F60041C4F2000188420AD037
:102C400044F20001C4F20101884204D00021C4F220
:102C50000101884206D1816801F00701062904BFFD
:102C600000207047016841F00101016000207047B9
:102C7000002804BF0120704710B5044690F84100B9
:102C800028B9002084F84000204600F021F82420D4
:102C900084F841002068C16821F40051C1602046D9
:102CA00002F0CAFB2068016921F490410161416989
:102CB00021F02A014161C16841F40051C160002046
:102CC0002021606484F8411084F84210606310BDD4
:102CD00080B586B041F200410068C4F201010022D3
:102CE00088420592CDE903220292019202D006B0F9
:102CF00080BD00BF43F630000092C4F20200436979
:102D000043F020034361436903F020030093009BD9
:102D10000092036843F001030360006800F00100C3
:102D2000009000984FF4C05001900220CDE90202BB
:102D3000032004900820059001F56C4001A9FEF7DE
:102D4000FBF8472000210022FEF7D6FF4720FEF7C0
:102D5000C1FF06B080BD000090F84230202B07D1A3
:102D600000294FF0010318BF002A05D1184670470B
:102D700002231846704700BF0023036381622221AB
:102D80008285C285436480F842100169006819B1E8
:102D9000C16841F48071C160416941F00101416144
:102DA000C16841F02001C160184670472DE9F04329
:102DB00081B0044690F84100202809D100294FF045
:102DC000010018BF002A07D101B0BDE8F08300BFA1
:102DD000022001B0BDE8F0830020606421201D4680
:102DE0000E4684F841001746FEF782F9A784E7846F
:102DF000A1688146B1F5805F02D1206900285DD0CD
:102E000037460020E28C2168002A5DD06A1C24D05D
:102E1000002D4AD0804600BF0868000608D4FEF79F
:102E200067F9A0EB0900A8427AD82168C868F3E7DF
:102E300017B117F8010B04E038F8020B00276FF305
:102E40005F204860E08C0138E084E08C0028E3D10A
:102E50003AE000BF0A68120609D40A68120606D4CE
:102E60000A6812065CBF0A685FEA0262F2D51FB107
:102E700017F8012B05E000BF30F8022B00276FF395
:102E80005F224A60E28C013AE284E28C002AE4D1BB
:102E90001AE000BF30F8022B00276FF35F224A6070
:102EA000E28C013AE284E28C72B10A68120635D5EE
:102EB000002FEFD017F8012BF1E700BF00273046B5
:102EC000E28C2168002AA1D1086840061ED42DB3E7
:102ED000681C14D1086840062AD40868400627D424
:102EE0000868400624D4086840064FF00000F1D579
:102EF0000DE000BF2068C1680068400618D4FEF7E6
:102F0000F7F8A0EB0900A842F4D909E0002020213D
:102F100084F8411001B0BDE8F08300BFFEF7E8F887
:102F20000320202184F8411001B0BDE8F08300BFE8
:102F30000020202184F8411001B0BDE8F08300009A
:102F4000FEE700002DE9F04782B0044600689A468B
:102F50000B9D0A9E0368914643F4806202600268FA
:102F60000F4642F48071016020464FF001110022AB
:102F70003346009500F032F950B120680068C00572
:102F800044BF4FF400702064032002B0BDE8F08716
:102F900040F202082068C0F2010807F0FE0707614E
:102FA0002046414632462B4600F0FEF920B1012072
:102FB00002B0BDE8F08700BF0020019020682A46DB
:102FC000416901918069314601900198204600F0E5
:102FD0009FFAB0B92068BAF1010F09D04FEA192160
:102FE0000161204631462A4600F092FA48B920682D
:102FF0005FFA89F10161204631462A4600F088FADD
:1030000060B1206C0428D2D12068016841F40071BD
:103010000160012002B0BDE8F08700BF20680022F7
:103020000168334641F48071016020464FF0011180
:10303000009500F0D3F800289FD147F0010C2768D5
:103040002046414632462B46C7F810C002B0BDE8C4
:10305000F04700F0A9B900002DE9F04383B0044621
:1030600000680F4601680A9D0B9E41F480719946E5
:103070009046016020464FF0011100222B46009639
:1030800000F0ACF850B120680068C00544BF4FF4B0
:1030900000702064032003B0BDE8F083206807F0CF
:1030A000FE0101610221C0F2010120462A46334699
:1030B00000F07AF920B1012003B0BDE8F08300BF31
:1030C00000200290206832464169029180692946B9
:1030D00002900298204600F01BFA58B1206C042898
:1030E000E9D12068016841F400710160012003B05A
:1030F000BDE8F0832068B9F1010F0AD04FEA18212A
:10310000016120462946324600F002FA0028E5D146
:1031100020685FFA88F10161002003B0BDE8F08308
:1031200070B50368044653F8140F400711D40E46D7
:10313000481C29D086BB00BF1868400527D4FDF77E
:10314000D7FF236853F8140F400737D51868400796
:10315000F2D5002070BD00BF18684007F9D4186888
:10316000400514D418684007F3D4186840050ED4FD
:1031700018684007EDD41868400508D4186840075F
:103180004FF0000048BF70BD18684005E4D56FF4EB
:1031900080601860042012E0154603E053F8140F15
:1031A0004007D6D418684005F1D4FDF7A1FF401BB5
:1031B0002368B042F2D958694007EFD4202000219B
:1031C0002022216384F83D2084F83E10226C1043B5
:1031D0002064012084F83C1070BD00002DE9F0410E
:1031E000054600681E46144601F47F0201338FB283
:1031F00042D0DDF81880B2F5803F40F0878040690A
:103200003840C01BB0FA80F04009844240F0C880CA
:103210004EB924E040693840C01BB0FA80F0400944
:10322000844240F0BD80FDF763FFA0EB08012868F1
:10323000B142EFD941693940C91BB1FA81F149095D
:103240008C42E7D19BE000BF40693840C01BB0FA18
:1032500080F0400984424FF0000040F0A280FDF76A
:1032600047FF286841693940C91BB1FA81F1490912
:103270008C42E9D183E000BFB2F5803F24D100BF8A
:1032800041693940C91BB1FA81F149098C4240F0CA
:10329000878041693940C91BB1FA81F149098C42E3
:1032A00040F07E8041693940C91BB1FA81F149097A
:1032B0008C4275D141693940C91BB1FA81F1490984
:1032C0008C42DDD06CE000BF81693940C91BB1FA86
:1032D00081F149098C4263D181693940C91BB1FA36
:1032E00081F149098C425BD181693940C91BB1FA2E
:1032F00081F149098C4253D181693940C91BB1FA26
:1033000081F149098C42DFD04AE000BF8069384032
:10331000C01BB0FA80F04009844241D146B923E095
:1033200080693840C01BB0FA80F04009844237D130
:10333000FDF7DEFEA0EB08012868B142F0D98169F3
:103340003940C91BB1FA81F149098C42E8D116E034
:1033500080693840C01BB0FA80F0400984424FF0C9
:10336000000018BFBDE8F081FDF7C2FE2868816942
:103370003940C91BB1FA81F149098C42E8D10020DA
:103380002021286385F83D1085F83E00296C41F026
:103390002001296485F83C000120BDE8F08100BFD0
:1033A0000020BDE8F0810000F0B581B0044600685F
:1033B0001D4643698FB203EA0701B94202D10020DA
:1033C00001B0F0BD4169164601323CD0490512D426
:1033D0007EB300BFFDF78CFE411B2068B14203D9CC
:1033E00041693940B9422BD141693940B942E6D0EF
:1033F00041694905EED5016841F4007101606FF43F
:1034000080614161042000212022216384F83D2055
:1034100084F83E10226C1043206484F83C10012094
:1034200001B0F0BD41693940B942C8D04169490590
:10343000E1D4FDF75DFE206841693940B942F1D021
:103440002020E0E741694905D5D441693940B942B6
:10345000B5D041694905CED441693940B942AED0B1
:1034600041694905C7D441693940B942A7D041698A
:103470004905C0D441693940B942E3D19FE7000012
:1034800070B504460068154650F8143F5A063DD4FE
:103490000E4629B926E000BF50F8141F490635D45E
:1034A0000168C90621D4FDF723FE411B2068B14203
:1034B000F2D941694906EFD400202021206384F825
:1034C0003D1084F83E00206C40F0200018E000BF62
:1034D000FDF70EFE206850F8141F4906ECD5016870
:1034E000490613D40168C906F2D56FF010010160D6
:1034F00000202021206384F83D1084F83E00206CD9
:103500002064002084F83C00012070BD002070BDC4
:1035100070B50368044653F8140F000611D40E4624
:10352000481C29D086BB00BF1868400527D4FDF78A
:10353000DFFD236853F8140F000637D5186800061E
:10354000F2D5002070BD00BF18680006F9D41868D5
:10355000400514D418680006F3D4186840050ED44A
:1035600018680006EDD41868400508D418680006ED
:103570004FF0000048BF70BD18684005E4D56FF4F7
:1035800080601860042012E0154603E053F8140F21
:103590000006D6D418684005F1D4FDF7A9FD401BFC
:1035A0002368B042F2D958690006EFD420200021E8
:1035B0002022216384F83D2084F83E10226C1043C1
:1035C0002064012084F83C1070BD000040F290009F
:1035D000C2F20000043070472DE9F04385B00021AD
:1035E00040F290088DF81010012504A9C2F20008DD
:1035F0006424CDE90015D0216B220123C8F8000016
:103600000294FEF7D5F918B1002005B0BDE8F083AB
:103610003220FDF727FB1821D8F800008DF8111093
:103620000DF11101CDE90015D0211B2201230294D7
:10363000FEF7BEF90028E7D10A20FDF713FB0025AD
:103640004FF0640902270DF11204002607E000BFC5
:103650000220FDF707FBC72E06F1010612D2D8F8AB
:103660000000D02147220123CDE90047CDF8089082
:10367000FEF772F80028EBD1BDF8120000BA05EB96
:103680002045E5E700EE105A9FED091AB8EEC00A92
:1036900080EE010A9FED071A0020C8F8100080EEA6
:1036A000010A88ED030A002005B0BDE8F08300BFE1
:1036B000000048433333834110B52DED028B84B0B5
:1036C00040F29004C2F20004206802210DF10E02C3
:1036D0004FF0640CCDE90021D02147220123B0EE48
:1036E000408ACDF808C0FEF737F818B104B0BDEC39
:1036F000028B10BDBDF80E009FED0E1AC0BA00EE91
:10370000100AB8EEC00A80EE010A94ED031A94ED97
:10371000042A30EE411A84ED010A21EE080A30EE47
:10372000020A84ED021A84ED040A04B0BDEC028B97
:1037300010BD00BF3333834140F29000C2F200005D
:1037400000210161704700002DE9F04F81B040F287
:103750005418C2F2000840464FF48071FF22FCF773
:103760007AFD40F2405E40F20771C2F2000EC0F6F0
:103770000701CEF8001040F2087140F21C4C002006
:10378000C0F608010423C2F2000CA8F87700A8F8DC
:103790008700CEF8041002E00130984260DA0EEBA8
:1037A00040011EF810504A7808EB05170CEB051184
:1037B00017F8029011F802B00E2A13D81BF001017D
:1037C00010D1511C7C5CFF2C0CD107EB010A09F1D4
:1037D00001048AF800400EEB43040EF81350013345
:1037E000617000BF0E2D13D81BF0020110D1691CAF
:1037F00008EB0114A65CFF2E0AD1144409F101065E
:1038000026700EEB43040EF813100133627000BFF4
:1038100082B11BF004010DD1511E7C5CFF2C09D13B
:103820007C1809F1010626700EEB43040EF81350C4
:1038300001336170002DAFD01BF00801ACD1691EBF
:1038400008EB0114A55CFF2DA6D1144409F1010574
:1038500025700EEB43040EF81310013362709BE7E2
:1038600001B0BDE8F08F00002DE9F04F86B040F2C6
:103870000810C2F20000017890F801E040F2541400
:10388000CDB2C2F200045FFA8EF204EB05139B5C2A
:10389000002B00F0D5858078090600F1010303F0C4
:1038A000030BA0F1010303F0030700F0030383F00F
:1038B000020A40F21C43C2F2000303EB051303EBC0
:1038C0000206A2F10103A5F10108029305F101032B
:1038D00002F101010590039304911FD05FEA0E618C
:1038E00030D00E2D48D9032811462B4600F25F81B7
:1038F0004FF0FF0E4FF0000CDFE810F00400620103
:103900005401A0010E2A00F25B8131782B4611F0A0
:103910000101049900F04B8152E100BF03284FF0F0
:10392000000CCDF8048059D84FF0FF08DFE800F014
:1039300002404A610E2A5CD8317811F001010499E5
:1039400047E000BFB946CDF804A0B24603284FF0C7
:10395000000C00F2C780FF24DFE800F002B0D2BC08
:103960000E2A00F2CD809AF800102E4611F00101C7
:10397000049900F0B980C3E0032811462B4600F2F9
:103980005281DFE810F00500B3014B01610100BF77
:103990004FF0FF0E0E2A4FF0000C00F25E813178DE
:1039A0002B4611F00101049900F03D8155E100BF63
:1039B0000E2D1ED83178039B11F0020111460FD055
:1039C00017E000BF5FEA0E6113D0317811F00401F7
:1039D00002994FF0000303D00BE000BF1146002313
:1039E00004EB031313F80180B8F1FF0C18BF4FF07C
:1039F000010CDFE81BF0050015003300C70100BF14
:103A00000E2A00F2BF81317811F0010140F0BA8135
:103A100000975746B14640F21C46DDF810A02DE055
:103A20000E2D00F2AF8131468946097840F21C46DE
:103A3000039B00975746C2F2000611F0020192461E
:103A400040F09D8104EB031111F80A1041451ED28C
:103A50004FF0010CCDF814B0884690E15FEA0E619A
:103A600000F09081317811F0040140F08B810097D3
:103A70005746B14640F21C46DDF808A0C2F20006E7
:103A8000002304EB031111F80A104145E0D3B1EB18
:103A9000080118BF01218CF00104214340F06B8123
:103AA000032800F25381DFE810F005004F014901BF
:103AB0004D0100BF049C00214AE100BF0E2D1FD81C
:103AC0009AF80010039E11F002014FF000010BD094
:103AD00016E000BF9AF8003000211B07464603D5C8
:103AE0000EE000BF00212E4640F25413C2F2000344
:103AF00003EB06135C5CB4F1FF0C18BF4FF0010C34
:103B00005646DFE81BF0050011000B031D0000BF47
:103B10000E2A00F203833178DDF810E011F0010184
:103B2000294614D0FAE200BF0E2D00F2F782317858
:103B300011F0020140F0F28203994FF0000E06E00E
:103B40003178090700F1EA824FF0000E414640F259
:103B50005413C2F2000303EB011313F80E60A642E4
:103B600006D24FF0010CCDF814B03446D5E200BFB8
:103B7000331B18BF01238CF00106334340F0CD8284
:103B8000032800F2AF8240F21C47C2F20007DFE8D0
:103B900010F00500A5029D02A10200BFDDF810C0D3
:103BA0002E46A6E231782B464907029908D404EB49
:103BB000031313F801E0BEF1FF0C18BF4FF0010C26
:103BC000DFE81BF004009103100018000E2A00F239
:103BD0008A8331782B4611F00101049910D000F04E
:103BE00082BB00BF31782B464907029908D500F007
:103BF0007ABB00BF317843460907114600F1738351
:103C000004EB0314B146665C764580F077804FF094
:103C1000010CCDF814B0B64600F060BB31782B46ED
:103C20004907029915D404EB031313F801E0BEF120
:103C3000FF0C18BF4FF0010C0FE000BF3178434676
:103C400009071146B3D5BBE731784346090711464A
:103C5000E9D54FF0FF0E4FF0000CDFE80BF0034109
:103C60000D1D00BF0E2A1CD831782B4611F0010122
:103C7000049906D015E000BF31782B464907029918
:103C80000FD404EB0314B146665C76450CD24FF0BA
:103C9000010CB64650E100BF317843460907114692
:103CA000EFD5DDF814B04CE1B6EB0E0418BF0124DB
:103CB0008CF0010634433DD140F21C4C03282C46C5
:103CC0001646C2F2000C00F22581DFE810F0050074
:103CD00021011B011F0100BF049E2C461AE100BFF9
:103CE0003178039B89071146DBD4CAE73178039BFF
:103CF000890711467FF597AFABE700BFB6EB0E041F
:103D000018BF01248CF00106344340F0E78240F2F2
:103D10001C4C03282C461646C2F2000C00F2CC8242
:103D2000DFE810F00400C802C202C602049E2C465E
:103D3000C2E200BFDDF814B0FEE000BF029C00212B
:103D400006E000BF019902E0039900E0002114465B
:103D500006EB0111095DC90602D44FF0010C0AE01F
:103D600006EB031111F80A104FF0010CC90648BF09
:103D70008346CDF814B040F25414C2F20004BA469F
:103D8000009F4E46DFE807F0020C20630E2A5ED843
:103D9000317811F001015AD1B146049E1DE000BFF7
:103DA0000E2D54D83178039BB14611F0020116460E
:103DB0004CD104EB0311895D414514D24FF0010C45
:103DC0000597884642E000BF5FEA0E613FD0317838
:103DD00011F004013BD1B146029E002304EB031114
:103DE000895D4145EAD3B1EB080118BF01218CF090
:103DF000010421432AD1DDF814B0BBF1030F0FD821
:103E0000DFE80BF0020C060ADDF810C0002109E023
:103E1000DDF808C0002105E0019902E0039900E007
:103E20000021944640F21C44C2F2000404EB01114C
:103E300011F80C10C90607D504EB0311895DC906FA
:103E400058BFBB46CDF814B04FF0010C4E46DFE82A
:103E50001AF005000F001900DB0200BF0E2A00F265
:103E6000D382317811F0010140F0CE82049E13E03C
:103E70000E2D00F2C9823178039B11F00201164623
:103E80000BD0C1E25FEA0E6100F0BE82317811F022
:103E9000040140F0B982029E002340F25411C2F2A4
:103EA000000101EB0311895D4145C0F0B282B1EB25
:103EB000080118BF01218CF00105294340F0A482BC
:103EC000DDF814C040F21C47C2F20007BCF1030F3A
:103ED00007D8DFE80CF0030B050900BF049A00E0E7
:103EE000029A002103E000BF019900E0039907EB6B
:103EF0000111895CC90640F1B38207EB031131441B
:103F0000B3E200BF029E2C4604E000BF444600E03E
:103F1000039C16460CEB0414A45DE40604D4DDF8FF
:103F200014B04FF0010C07E00CEB0313595C4FF099
:103F3000010CC90648BF834640F25414C2F2000483
:103F40004E46DFE807F003190D1300BF0E2A57D8BD
:103F500031782B4611F00101049912D050E000BFD6
:103F600031782B46490702990BD549E03178434611
:103F70000907114605D543E03178039B89071146AF
:103F80003ED404EB0314B146665C76450AD24FF08A
:103F9000010CB64640F25414C2F200044E46BB4631
:103FA0002EE000BFB6EB0E0418BF01248CF0010612
:103FB000344320D140F21C4CBBF1030F2C46164673
:103FC000C2F2000C10D8DFE80BF0030D070B00BFA6
:103FD000049E2C4608E000BF029E2C4604E000BF71
:103FE000444600E0039C16460CEB0414A45DE40672
:103FF00048D44FF0010C40F25414C2F200044E4673
:10400000DFE80AF002180C120E2A35D831782B4658
:1040100011F00101049912D02EE000BF31782B4637
:10402000490702990BD527E0317843460907114625
:1040300005D521E03178039B890711461CD404EB98
:104040000314645C7445C0F0E481B4EB0E0618BF41
:1040500001268CF0010426430ED1BBF1030F23D8B7
:1040600040F21C44C2F20004DFE80BF0021C161AF6
:10407000049A2E461DE000BFBCF1000FDA4640F066
:10408000C881DDE10CEB0313595C4FF0010CC9064C
:1040900048BF5F467EE700BF029A2E4609E000BF98
:1040A000464606E0039E04E040F21C442E46C2F25F
:1040B000000404EB0617BA5CD20601D4DA46A8E184
:1040C00004EB03121144DC46CFE100BFDDF808C069
:1040D0002E460EE04FF0000C46460AE0039E4FF0DD
:1040E000000C06E040F21C474FF0000C2E46C2F2D6
:1040F000000707EB061313F80C30DB0602D44FF071
:10410000010C0AE007EB011111F80E104FF0010C41
:10411000C90648BF8346CDF814B05646C346DFE80B
:1041200009F0030D6B1700BF0E2A65D83178DDF852
:10413000108011F00101294610D05DE00E2D5BD8F2
:10414000317811F0020157D103994FF0000805E0D2
:104150003178090750D44FF00008594640F2541303
:10416000C2F2000303EB011313F80830A34205D297
:104170004FF0010CCDF814901C463DE01B1B18BFFE
:1041800001238CF00106334310D1059F5646032FBF
:104190001AD840F21C4CC2F2000CDFE807F0031101
:1041A000090D00BFDDF810E02F4614E0564623E06D
:1041B000DDF808E02F460EE04FF0000E5F460AE003
:1041C000039F4FF0000E06E040F21C4C4FF0000E33
:1041D0002F46C2F2000C0CEB071313F80E30DB066F
:1041E00008D50CEB011111F80810C906059958BF44
:1041F000494605914FF0010CDDF804A0DFE81AF004
:1042000004000E0004011A000E2A00F2FD8031782D
:10421000049A11F00101294612D0F5E00E2D00F2AA
:10422000F380317811F0020140F0EE800399002212
:1042300006E000BF3178090700F1E6800022594608
:1042400040F25413C2F2000303EB01139B5CA34240
:10425000C0F0DF801B1B18BF01238CF00106334325
:1042600040F0D280DDF814C040F21C46C2F20006D5
:10427000BCF1030F0DD8DFE80CF0030B050700BFFE
:10428000049F07E0029F05E000275D4602E000BFB3
:10429000039D002706EB0513DB5DDB0640F1E080A4
:1042A00006EB01111144E0E0029E2C4604E000BF41
:1042B000444600E0039C16460CEB0414A45DE4069F
:1042C00002D44FF0010C09E00CEB0313595C4FF0E2
:1042D000010CC90648BF8346CDF814B040F254140F
:1042E000C2F200044E46DFE807F003550D1300BF8D
:1042F0000E2A4FD831782B4611F0010104990CD0C9
:1043000048E000BF31782B464907029905D541E0C6
:1043100031784346090711463CD404EB0314B146F7
:10432000665C764504D24FF0010C0597B64630E046
:10433000B6EB0E0418BF01248CF00106344328D1DB
:10434000059C40F21C4C032C2C461646C2F2000C75
:1043500010D8059EDFE806F0020C060A049E2C46E3
:1043600008E000BF029E2C4604E000BF444600E087
:10437000039C16460CEB0414A45DE40607D50CEB75
:104380000313595CC906059958BF394605914FF08A
:10439000010C4E46DFE80AF002380C120E2A33D820
:1043A00031782B4611F0010104990CD02CE000BFAC
:1043B00031782B464907029905D525E031784346E7
:1043C0000907114620D440F25416C2F2000606EB4B
:1043D0000316765C76451CD3B6EB0E0618BF012695
:1043E0008CF0010426430FD1DDF814C040F21C46C6
:1043F000C2F20006BCF1030F2DD8DFE80CF0032B4E
:10440000272900BF049A26E0DDF814A0BCF1000FB4
:1044100016D0AAEB0000043081B200EB913121F0FC
:104420000301401A03280BD8C00040F2013180B2CA
:10443000C0F2042121FA00F0C0B206B0BDE8F08F4E
:104440000020C0B206B0BDE8F08F00BF029A02E0C3
:10445000454600E0039D06EB0517BA5CD20601D481
:10446000E246D6E706EB031211440978C90648BFB5
:10447000E246CEE710B540F21C44C2F2000404F15B
:104480001100DE21FBF7EEFE40F20810C2F2000040
:10449000002101808170042140F608022174A4F8F3
:1044A000052040F2022284F8901040F608010C200A
:1044B0004FF0083CA4F8F5200822C0F6081120703F
:1044C00040F20140E2710222C4E902C140F202213D
:1044D000A4F81F004FF00233A4F82F00A4F83F0007
:1044E000A4F84F00A4F85F00A4F86F00A4F87F00C0
:1044F00084F8F7200122A4F89F00A4F8AF00A4F8E4
:10450000BF00A4F8CF00C0F20231A4F8DF0040F2EF
:104510000160C4F801C0C4F8F13084F88F20C4F8F9
:10452000F830C4F8FC10A4F8EF00BDE81040FFF725
:104530000BB9000040F20810C2F20000017840F20E
:1045400054124078C2F2000202EB0111085CB0FA8A
:1045500080F0400970470000F0B5C1B06C462046BD
:104560004FF48271FCF7FEFA009F41F23420C5F24D
:10457000AA50874240F0D280211D40F21C44C2F272
:10458000000420464FF48072FBF753FE6FF0FF00EB
:10459000211891F8002191F8013191F8025102F0AF
:1045A000EF0291F8036181F8002103F0EF0281F836
:1045B000012105F0EF0291F8043181F8022106F0A3
:1045C000EF0281F8032103F0EF0291F8053181F841
:1045D000042103F0EF0291F8063181F8052103F080
:1045E000EF0291F8073181F8062103F0EF0291F80C
:1045F000083181F8072103F0EF0291F8093181F8C1
:10460000082103F0EF0291F80A3181F8092103F043
:10461000EF0291F80B3181F80A2103F0EF0291F8D3
:104620000C3181F80B2103F0EF0291F80D3181F884
:104630000C2103F0EF0291F80E3181F80D2103F007
:10464000EF0291F80F3181F80E2103F0EF0291F89B
:10465000103181F80F2103F0EF0291F8113181F848
:10466000102103F0EF0291F8123181F8112103F0CB
:10467000EF0291F8133181F8122103F0EF0291F863
:10468000143181F8132103F0EF0291F8153181F80C
:10469000142103F0EF0291F8163181F8152103F08F
:1046A000EF0291F8173181F8162103F0EF0291F82B
:1046B000183181F8172103F0EF0291F8193181F8D0
:1046C000182103F0EF0291F81A3181F8192103F053
:1046D000EF0291F81B3181F81A2103F0EF0291F8F3
:1046E0001C3181F81B2103F0EF0291F81D3181F894
:1046F0001C2103F0EF0291F81E3181F81D2103F017
:10470000EF0291F81F3181F81E2103F0EF022030F3
:1047100081F81F217FF43CAF5DE000BF34A001F0C1
:10472000F1FA40F21C44C2F2000404F11100DE214F
:10473000FBF798FD40F20810C2F200000021018052
:104740008170042140F608052174A4F8055040F258
:10475000022584F8901040F608010C204FF0083232
:10476000A4F8F5500825C0F60811207040F2014069
:10477000E5710225C4E9022140F20221A4F81F00DC
:104780004FF00233A4F82F00A4F83F00A4F84F0024
:10479000A4F85F00A4F86F00A4F87F0084F8F75035
:1047A0000125A4F89F00A4F8AF00A4F8BF00A4F866
:1047B000CF00C0F20231A4F8DF0040F20160C4F87B
:1047C0000120C4F8F13084F88F50C4F8F830C4F8F0
:1047D000FC10A4F8EF004EF6CC50CAF65520384431
:1047E000B0FA80F04409FEF7AFFF204641B0F0BDBB
:1047F0005B4552525D20466C61736820656D707434
:1048000079206F7220696E76616C696420686561D9
:10481000646572210D00000010B5C2B041F2342071
:10482000C5F2AA5001AC40F21C410190201DC2F219
:1048300000014FF48072FBF7FCFC20464FF48271BC
:10484000FCF7D8F9B0FA80F0400942B010BD000082
:10485000013803283FD8DFE800F00329131D00BF0B
:1048600040F20810C2F200008178032988BF704727
:10487000DFE801F0022E262A4178013141707047AD
:1048800040F20810C2F200008178013101F003010A
:104890008170704740F20810C2F20000817801F088
:1048A000030181F002018170704700BF40F20810DF
:1048B000C2F200008178013901F003018170704774
:1048C00041780139417070470178013902E000BF39
:1048D000017801310170704770B540F20811C2F2E1
:1048E000000191F800C040F21C424E78C2F2000272
:1048F00002EB0C15AC5D897844F01002AA554378A0
:1049000005EB060E012B32D1032930D8DFE801F088
:1049100002220C1644F011020E2E8EF8002026D82A
:104920000EF1010404251FE044F014028EF800206B
:10493000EEB1AEF10104012516E000BF44F018020B
:10494000BCF1000F8EF8002011D0AEF1100402254A
:104950000AE000BF44F01202BCF10E0F8EF80020F6
:1049600005D80EF11004082523782B432370037813
:10497000012B34D14B1E03F00304DFE804F00323C2
:104980000D1700BF42F001020E2E8EF8002026D82F
:104990000EF1010404251FE042F004028EF800200D
:1049A000EEB1AEF10104012516E000BF42F00802AD
:1049B000BCF1000F8EF8002011D0AEF110040225DA
:1049C0000AE000BF42F00202BCF10E0F8EF8002098
:1049D00005D80EF11004082523782B432370807826
:1049E000012834D1481C00F00300DFE800F0032365
:1049F0000D1700BF42F001000E2E8EF8000026D8E1
:104A00000EF1010004211FE042F004008EF80000C6
:104A1000EEB1AEF10100012116E000BF42F0080046
:104A2000BCF1000F8EF8000008BF70BDAEF11000A1
:104A3000022109E042F00200BCF10E0F8EF80000E6
:104A400005D80EF11000082102781143017070BDE5
:104A5000FEE70000B0B540F2B804C2F20004DFED9A
:104A6000110ADFED111A9FED112A04F11000B0EECA
:104A7000000AB6EE001A00F095F9DFED0D0A9FED81
:104A80000D1ADFED0D1A9FED0D2A04F13000B1EE85
:104A9000000A00F087F900200021002500F0F8FB53
:104AA0002580B0BD00000000000096C300009643C2
:104AB000CDCC4C3DCDCC4C3F0000C8C30000C8431A
:104AC00040F2B800C2F20000407880F00100704768
:104AD00010B540F2B804C2F2000484ED010AFBF7FD
:104AE000A7FF00F0B5FA04F1100000F06BF904F133
:104AF000300000F067F900F091FA8068A06040F2A1
:104B00000110208010BD000010B52DED028BB0EE1D
:104B1000408A00F083FA90ED020A40F2B804C2F233
:104B2000000438EE000A04F1300084ED020A00F0BF
:104B300049F94FF481702080FCF7DAFAE060BDECAF
:104B4000028B10BD10B500200021002400F0A0FB56
:104B500040F2B800C2F20000048010BDB0B52DEDE7
:104B6000068B82B040F2B804C2F20004207800281C
:104B70004AD00020CDE9000001A86946B0EE408A85
:104B8000FBF70CFF9DED019A9DED00AA00F046FA9F
:104B9000217802291AD0012936D139EE0A0AB6EE57
:104BA000001A94ED012A20EE019AB4EE429AF1EE39
:104BB00010FA23DA017811B98178012940D1D0EDBA
:104BC000010A9FED4B0A04F110003FE094ED020A48
:104BD00090ED021A30EE410AB0EEC00AB7EE001AAC
:104BE000B4EE410AF1EE10FA08DB0546FCF780FA54
:104BF000E168401A40F2DD51884209D300200021CB
:104C0000002500F045FB258002B0BDEC068BB0BD51
:104C100094ED020AD5ED020A04F13000B0EE481A14
:104C200000F06EF8B5EE400AF1EE10FA3ADD9FEDB5
:104C30002E1AB4EE410AF1EE10FA33DA782049E088
:104C400094ED020AD0ED020A04F13000B0EE481AE9
:104C500000F056F894ED011A9FED262A31EE491A1C
:104C600081EE023A9FED244A4FF4C871B4EE421A25
:104C7000BDEEC00AF1EE10FA23EE043ABDEEC33ADF
:104C800013EE100AB8BF00F1960110EE100A0A18D0
:104C9000091A10B209B200F0FBFA02B0BDEC068BA3
:104CA000B0BD00BF9FED111A0020B4EE410AF1EE35
:104CB00010FAC8BF0120BDEEC01A11EE101AC007CD
:104CC000084618BF6FF07700B5EE400AF1EE10FA13
:104CD000A8BF0846424201B210B200F0D9FA02B0B1
:104CE000BDEC068BB0BD00BF0000F0420000F0C27A
:104CF000000000000000204200007A43FEE70000B0
:104D0000B5EE401AF1EE10FADCBF9FED250A7047B0
:104D100030EE602A90ED044A90ED070A22EE015A27
:104D200090ED003A35EE044AB4EE404A22EE033AE2
:104D3000F1EE10FA80ED044A06DCB1EE400AB4EE62
:104D4000404AF1EE10FA03DAB0EE404A80ED040A70
:104D500090ED030A90ED015A32EE400A80EE011AFE
:104D600090ED026A25EE044A90ED060A33EE043A0D
:104D700026EE011A33EE011AB4EE401AF1EE10FAE3
:104D80000ADC90ED053AB0EE410AB4EE431AF1EEBA
:104D900010FAB8BFB0EE430A80ED032A704700BF97
:104DA0000000000080EC030AB6EE000A22EE000AC2
:104DB0000021C0ED051A80ED062A80ED070AC0E942
:104DC000031170470021C0E90311704770470000CC
:104DD00070B540F21006C2F20006B078032800F267
:104DE0007B80DFE800F00357273900BF0020C4F2C2
:104DF00002000421FCF770F90546FCF779F93178D7
:104E0000002D044608BF002935D1FCF771F9B168BF
:104E1000401AC8285ED90120307076A0B46000F036
:104E200071FFFFF727FB00F00BF94FF48070A6F835
:104E3000010070BDFFF744FE00284BD07078FFF7EB
:104E400007FDFFF777FB002864D0FFF77BFE5FA02C
:104E500000F058FF3CE000BF0020C4F20200042133
:104E6000FCF73AF90546FCF743F93178002D044682
:104E700008BF002934D0681EB0FA80F0400908400D
:104E8000012827D1B068201AC92823D30020307008
:104E900070BD00BFFFF714FEE0B17078FFF7D8FCDB
:104EA000FFF748FB00283FD045F68650C0F60000CB
:104EB00000F028FFFFF746FEFFF7AEFC0020C4F22B
:104EC000020000F500604FF400510122FCF70AF9DE
:104ED0000320B07070BD00BFBDE87040FFF732BE68
:104EE000FCF706F9B168401AC82898BF70BD0120C8
:104EF000307025A0B46000F005FFFFF7BBFAFFF7A4
:104F00002BFBFEF721FC00F09BF84FF40070A6F895
:104F1000010070BDFEF7A8FC411E032970702BD85C
:104F2000DFE801F01224181E00F078F8FFF7D4FC37
:104F3000FEF70AFCFEF798FC411E032970701FD88B
:104F4000DFE801F00214080E9FED1D0ABDE8704075
:104F5000FFF7BEBD9FED1B0ABDE87040FFF7D4BD53
:104F60009FED170ABDE87040FFF7CEBD9FED160A12
:104F7000BDE87040FFF7C8BDFFF7E4FD0420A8E7D7
:104F8000FFF7E0FDA4E700BF5B5359535D204C6F72
:104F90006164696E67204D61702066726F6D204696
:104FA0006C6173682026205374617274696E672087
:104FB000466173742052756E2E2E2E0D0000000077
:104FC000000034430000B4C20000B4425B535953A4
:104FD0005D20466173742052756E20436F6D706C56
:104FE00065746564205375636365737366756C6C73
:104FF00079210D005B5359535D20537461727469BC
:105000006E67204578706C6F726174696F6E2052A4
:10501000756E2E2E2E0D00007047000040F2A40089
:10502000C2F200000830704740F2A400C2F2000053
:10503000002101818172C0E90311C0E900117047AC
:1050400040F2A400C2F2000000210161FEF774BB2F
:1050500040F2A400C2F200000021C0E90011704734
:1050600010B50288002340F2A40C822A38BF012325
:10507000C2F2000CB0F806E08CF808300023BEF154
:10508000820F38BF01238CF80A30438880880024BF
:105090001844B0F5827F38BF0124812A8CF809407A
:1050A0000ED802EE102ABEF1810FB8EE422A13D8B4
:1050B00003EE10EAB8EE433A32EE432A16E000BFA0
:1050C000BEF1810F10D802EE10EA9FED1F3AB8EE44
:1050D000422A33EE422A03E09FED1C3A32EE032AC5
:1050E00032EE022A02E000BF9FED162A9CED013A43
:1050F0009CED004A30EEC33A34EE404A9FED145A1C
:1051000034EE033A83EE053A8CEC020A9FED110A65
:1051100091ED014A8CED032A21EE041A9FED0F4A0E
:105120009CED042A21EE041A23EE000A9FED0A3AB0
:1051300020EE030A31EE000A32EE000A8CED040A7A
:1051400010BD00BF0000000000005C4200005CC217
:1051500000009642E02E6542CDCC4C3D3333733F88
:10516000FCF74EBD70B592B006AC20463021FBF77F
:1051700079F8002543F640000595CDE90355CDE9C2
:1051800001550095C4F202000168022641F08051E9
:105190000160006800F080500090009847F2000025
:1051A0000095C4F20000016841F4404101600068CC
:1051B00000F4404000900098012006904FF48030A9
:1051C00007904FF480000D900C200E906020CDE9E8
:1051D0000F060420119020460C96FCF7DBFE18B158
:1051E00072B600BFFEE700BF0F20CDE901064FF405
:1051F0008050CDE9040501A803210395FCF7B8FD13
:1052000010B172B6FEE700BF12B070BD4EF6885006
:10521000CEF20000016841F47001016070470000A7
:1052200070B540F23C55C2F200050021286000260E
:10523000FDF7A6FC28680421FDF7A2FC40F200441B
:10524000C4F20204A4F5806020210122FBF74AFF8A
:1052500020464FF480510122FBF744FF20464FF4D3
:1052600000510022FBF73EFF28684FF480410068A0
:10527000012246632046FBF735FF20464FF40041EC
:105280000022FBF72FFF28680068866370BD0000CE
:1052900070B540F20045C4F202050C4606460028EF
:1052A00028464FF4805109D40122FBF71BFF284602
:1052B0004FF400510022FBF715FF09E00022FBF735
:1052C00011FF28464FF400510122FBF70BFF7642F5
:1052D00030B240F23C56C2F20006B0F57A7FA8BF69
:1052E0004FF47A70316880B20968002C4863284610
:1052F0004FF480410AD40122FBF7F4FE28464FF414
:1053000000410022FBF7EEFE0AE000BF0022FBF79F
:10531000E9FE28464FF400410122FBF7E3FE644218
:10532000316820B2B0F57A7FA8BF4FF47A7009686F
:1053300080B2886370BD000010B540F2FF7E036844
:10534000C4F2000E40F2000C7045C4F2010C1DDDE9
:1053500040F60002C4F20002904220D060451ED008
:1053600040F60042C4F20002904218D04FF6FF729D
:10537000C4F2000290421CDC704525DCB0F1804F85
:105380003AD040F20042C4F2000233E0B0F1804F64
:1053900005D040F20042C4F200029042E6D14A68D1
:1053A00023F0700313434FF6FF72C4F200029042E1
:1053B000E2DD44F2FF32C4F20102904210DC6045AB
:1053C0001AD044F2000213E040F60002C4F20002D8
:1053D000904211D040F60042C4F200020AE000BF41
:1053E00044F60002C4F20102904205D044F20042A9
:1053F000C4F20102904203D1CA6823F440731343FC
:1054000023F080024B69D1F800E08C681A436045B4
:105410000260C462C0F828E002D10969CCF83010FB
:10542000012141610169C90708BF10BD016921F06F
:105430000101016110BD0000B0B50446006804F12F
:1054400008030ECB0569194325F440552A43026130
:105450006269E3691143C268194349F20C639A43D4
:105460001143C1604169A26921F4407141F20043D6
:10547000114340F48062C4F201039A42416103D1B6
:10548000FCF73CFD02E000BFFCF724FDE1694FF6AC
:105490009C7563681922C0F6FF75B1F5004FA0FB3B
:1054A00002011FD15A00DB0FFAF792FE48F21F519A
:1054B000C5F2EB11A0FB01235A0905F1805302FB51
:1054C0000300322303EBC000A0FB01014FF4F8708E
:1054D00000EA111000EB0210C1F3421108442168E8
:1054E0008860B0BD9A009B0FFAF772FE48F21F5118
:1054F000C5F2EB11A0FB01235A0902FB0500322380
:1055000003EB0010A0FB0101F02000EA511000EBBA
:105510000210C1F34311084421688860B0BD000047
:10552000FEE700002DE9F04182B040F24076002510
:10553000C2F20006C4F202053060284608210022AB
:10554000FBF7D0FD284610210022FBF7CBFD05F527
:105550008064204601210022FBF7C4FD2046022181
:105560000022FBF7BFFD0A200A27FBF77BFB28463A
:1055700008210122FBF7B6FD0520FBF773FB42F67D
:105580008A213068ADF806100DF10602522102237F
:105590000097FBF7F3FF30684FF400780DF1060237
:1055A00054210223ADF806800097FBF7E7FF284659
:1055B00010210122FBF796FD0520FBF753FB42F675
:1055C0008A313068ADF806100DF10602522102232F
:1055D0000097FBF7D3FF30680DF106025621022336
:1055E000ADF806800097FBF7C9FF20460121012294
:1055F000FBF778FD0520FBF735FB42F68A41306862
:10560000ADF806100DF10602522102230097FBF7B8
:10561000B5FF30680DF1060258210223ADF806806F
:105620000097FBF7ABFF204602210122FBF75AFD52
:105630000520FBF717FB42F68A513068ADF80610DB
:105640000DF10602522102230097FBF797FF306805
:105650000DF106025A210223ADF806800097FBF7F0
:105660008DFF002002B0BDE8F08100002DE9F0437D
:1056700085B040F24076C2F20006044630684FF032
:1056800014094FF000080A250DF1070254210123E7
:105690008DF80790ADF804800095FBF76FFF306838
:1056A00001AA542102230095FBF7DAFDBDF804108E
:1056B000002841F6FE7009BA08BF080C2080306847
:1056C0000DF10B025621012341F6FE778DF80B9068
:1056D000ADF808800095FBF751FF306802AA56210B
:1056E00002230095FBF7BCFDBDF80810002841F629
:1056F000FE7009BA08BF080C608030680DF10F0217
:10570000582101238DF80F90ADF80C800095FBF720
:1057100035FF306803AA582102230095FBF7A0FD4E
:10572000BDF80C10002841F6FE7009BA08BF080C3D
:10573000A08030680DF113025A2101238DF81390D7
:10574000ADF810800095FBF719FF306804AA5A21C4
:1057500002230095FBF784FDBDF81010002809BA5C
:1057600008BF0F0CE78005B0BDE8F08380B582B0BC
:1057700040F20C11C2F200014A68019032B101A955
:10578000104601220A23FDF711FB019802B080BDEB
:1057900098B040F20008C4F20208FCF73FFAFFF7A5
:1057A000E1FC002443F630001394CDE91144CDE927
:1057B0000F440094C4F20200016808F5006641F04D
:1057C000040101600168002201F0040100910099C8
:1057D000009401684FF4005541F0800101600168B8
:1057E00001F08001009100990094016841F00101ED
:1057F0000160016801F001010091009900940168C5
:1058000041F00201016000684FF4005100F0020015
:10581000009000983046FBF765FC40463821002296
:105820004FF03809FBF75EFC08F5806B58464FF2E5
:10583000030100224FF2030AFBF754FC0FAF0F9550
:10584000012530463946CDE910541294FBF774FB1C
:1058500004200FA931C140463946FBF76DFB404695
:105860003946CDE90F95CDE91144FBF765FB584664
:105870003946CDE90FA5CDE91144FBF75DFB40F2B8
:105880005420A8F5D631C2F2000048F2A0624FF4CD
:105890008045C0F2010280E81600C0E90345C0E976
:1058A0000544C0E90744FBF729FC18B172B600BFF4
:1058B000FEE700BF40F2A820A8F5D431C2F20000F4
:1058C00041F68022C0F2060280E81600C0E90345D6
:1058D000C0E90544C0E90744FBF710FC10B172B6FB
:1058E000FEE700BF40F2FC200021A8F58032C2F2A2
:1058F0000000632340F2E737CDE90C11CDE9081130
:105900001691CDE91411CDE91211CDE91011CDE9AF
:105910000E11C0E90023C0E90217C0E9041181613A
:10592000FCF794FD10B172B6FEE700BF4FF4805053
:105930000B9040F2FC20C2F200000BA9FCF7E4FD42
:1059400010B172B6FEE700BF40F2FC20C2F20000C8
:10595000FDF7E6F810B172B6FEE700BF40F2FC209A
:10596000C2F2000008A9FCF727FD18B172B600BF0B
:10597000FEE700BF602000900020CDE90100CDE9E6
:105980000300CDE9050040F2FC20C2F200006946A8
:105990000022FCF7C7FF18B172B600BFFEE700BFD8
:1059A00040F2FC20C2F2000069460422FCF7BAFF74
:1059B00010B172B6FEE700BF4FF40050149040F2F1
:1059C000FC200024C2F200000FA91394CDE9114479
:1059D000CDE90F441694FCF7C9FC18B172B600BFAC
:1059E000FEE700BF40F2FC20C2F20000FCF76CFFB3
:1059F00040F24430C2F200004FF08041C0E9001490
:105A00000321CDE90F1401214FF0FF32CDE911142C
:105A1000CDE915140FA9CDE90044C0E902420461A3
:105A20008461CDE913441794FCF73EFE10B172B6C1
:105A3000FEE700BF40F24430C2F200006946FCF7C6
:105A4000BBFC08B172B6FEE740F28C300021A8F52D
:105A5000FE32C2F20000C0E9002103224FF6FF73BC
:105A6000CDE90F210122CDE90011C0E90213016146
:105A70008161CDE91121CDE91311CDE915211791EE
:105A80000FA9FCF711FE08B172B6FEE740F28C30A8
:105A9000C2F200006946FCF78FFC08B172B6FEE75F
:105AA00040F21005C2F20005A8F56C41284640F806
:105AB000241F4FF4E13100240C22C0E90114C0E995
:105AC0000344C0E90524C461FDF7D2F810B172B6F1
:105AD000FEE700BF40F2D430A8F5FA31C2F2000070
