:020000040800F2
:100000004008002065020008C9170008C117000851
:10001000C51700085D0400087D1A000800000000F4
:10002000000000000000000000000000D1170008E0
:100030006104000800000000CD170008D517000873
:100040007F0200087F0200087F0200087F0200088C
:100050007F0200087F0200087F0200087F0200087C
:100060007F0200087F0200087F0200087F0200086C
:100070007F0200087F0200087F0200087F0200085C
:100080007F0200087F0200087F02000800000000D5
:100090000000000000000000000000007F020008D7
:1000A0007F0200087F0200087F0200087F0200082C
:1000B0007F0200087F0200087F0200087F0200081C
:1000C0007F0200087F0200087F0200087F0200080C
:1000D0007F0200087F0200087F0200080000000085
:1000E0007F0200087F0200087F0200080000000075
:1000F0000000000000000000000000007F02000877
:10010000000000007F0200087F0200087F02000854
:1001100000000000000000000000000000000000DF
:100120007F0200087F0200087F0200087F020008AB
:100130007F02000800000000000000000000000036
:100140000000000000000000000000007F02000826
:100150007F0200087F0200087F0200087F0200087B
:100160007F0200087F02000800000000000000007D
:10017000000000000000000000000000000000007F
:10018000000000007F0200080000000000000000E6
:100190007F0200087F02000800F002F800F052F829
:1001A00014A696E8000CB244B344DA4501D100F03D
:1001B00049F8BAE80F000FA696E83000A5EB040551
:1001C00004EB0607AAEB0704A7F101074FEA151590
:1001D0004FEA3414A4F10104AC4201D300F032F828
:1001E00013F0010F18BFFB1A43F0010300F001F8F0
:1001F000DBE71847F81B0000181C0000103A24BF6A
:1002000078C878C1FAD8520724BF30C830C144BF7B
:1002100004680C6070470000704700000023002451
:1002200000250026103A28BF78C1FBD8520728BF06
:1002300030C148BF0B6070471FB501F0BEFD1FBD48
:1002400010B510BD00F0D0F81146FFF7F5FF01F032
:1002500017FC00F0EEF803B4FFF7F2FF03BC00F068
:10026000F5F800000948804709480047FEE7FEE727
:10027000FEE7FEE7FEE7FEE7FEE7FEE7FEE7FEE756
:1002800004480549054A064B7047000081180008DC
:10029000990100084002002040080020400400208E
:1002A0004004002053EA020C00F069802DE9F04B75
:1002B0004FF00006002B1FBFB3FA83F503FA05F4D5
:1002C00024FA05F65E4012BF1643B2FA82F502FA2E
:1002D00005F4C5F120051EBF22FA05FC44EA0C0412
:1002E000203556EA044C4FEA144418BF641C4FF002
:1002F00000084FF00009904271EB030C39D300293C
:1003000019BFB1FA81F701FA07F6B0FA80F700FADF
:1003100007F6C7F120071EBF20FA07FC46EA0C06C5
:100320002037B6FBF4FCA7EB0507103F07F01F0BC7
:10033000CBF120062CFA06F60CFA0BFB44BFB346B1
:100340000026202FA4BF5E464FF0000B5BEA060C90
:1003500008BF4FF0010B19EB0B0948EB0608ABFB8C
:10036000027C06FB02CC0BFB03CCC01B71EB0C0127
:10037000C1E70B46024641464846BDE8F08B13B53F
:10038000084318BF4FF0FF300146AFF30080BDE8CF
:100390001C4070474FF0000200B513469446964645
:1003A000203922BFA0E80C50A0E80C50B1F1200188
:1003B000BFF4F7AF090728BFA0E80C5048BF0CC036
:1003C0005DF804EB890028BF40F8042B08BF704794
:1003D00048BF20F8022B11F0804F18BF00F8012B06
:1003E0007047704770477047754600F02BF8AE466F
:1003F00005006946534620F00700854618B020B531
:10040000FFF73EFFBDE820404FF000064FF0000729
:100410004FF000084FF0000BAC46ACE8C009ACE868
:10042000C009ACE8C009ACE8C00921F007018D465D
:10043000704710B50446AFF300802046BDE8104079
:10044000FFF709BF0048704710000020014918203D
:10045000ABBEFEE72600020070470000FEE700008A
:10046000704700002DE9F04F83B000F1200200F149
:100470003E4741F20005009207F1FF77C4F2020502
:1004800007224FEAB726A84208BF042200254FF0F2
:1004900000084FF00009042E38BF4FEAB72201923E
:1004A0000AE000BF09F1010908F10208B9F1100FD3
:1004B00005F1040500F0A2800F68012202FA09FE8E
:1004C00017EA0E0AEED0D1F804C003220CF003079D
:1004D0007E1E02FA08F4012E6FEA040B12D884681B
:1004E000CE6804EA0B0406FA08F6344384604468D4
:1004F00024EA0E06CCF3001404FA09F426434660FD
:1005000004E000BF032F01D103271EE0C6688C68FA
:1005100006EA0B0604FA08F42643022FC66014D13B
:100520006FF00302009E02EA590756F807C005F073
:100530001C040F220B69A2402CEA0202A3401A43BA
:10054000F251D1F804C00CF00307026807FA08F36F
:1005500002EA0B021A431CF4403F0260A2D00022C0
:1005600043F644030292C4F202031A6843F60044BD
:1005700042F480421A601A68C4F2010402F4804214
:100580000292029A29F003024FF6084C2244CFF659
:10059000FF7C52F80C3005F00C070F26BE40B34329
:1005A000019E06FA07F73B4342F80C30A2684B68FD
:1005B00042EA0A0743F60C4CDE0258BF22EA0A0759
:1005C000A760C4F2010CDCF800209E0242EA0A0790
:1005D00058BF22EA0A07CCF8007062689E0342EA1C
:1005E0000A0758BF22EA0A0767602268DB0342EA6B
:1005F0000A0758BF22EA0A07276053E703B0BDE89D
:10060000F08F0000002A08BF0904816170470000D4
:1006100040F23820C2F2000000687047002804BF92
:1006200001207047F0B581B0044690F83D0028B92C
:10063000002084F83C00204600F0A2F8242084F832
:100640003D002068016821F001010160016841F46A
:1006500000410160016821F40041016000F062FA8C
:10066000636848F2A16CC0F2010C40F60011C0F2C0
:100670003D0163453CBF48F28041C0F21E01884203
:1006800002D2012001B0F0BD4DF68361C4F21B31EE
:10069000A0FB01122168970CD1F804E04FF4967684
:1006A0002EF03F0545EA92454D60774348F63816EF
:1006B0000D6AC0F24106A7FB067625F03F076345A9
:1006C00038BF960C721C3A430A62CA6948F2A066A7
:1006D0004CF6FF77C0F20106B34222EA07020BD8BC
:1006E00001385B00B0FBF3F001306FF31F300428DA
:1006F00098BF04201BE000BFA768013857B1192735
:100700007B43B0FBF3F001306FF31F3070B100F5A5
:10071000804007E003EB4303B0FBF3F001306FF3DD
:100720001F3018B100F5004001E000BF0120104368
:10073000C8610868D4E9072320F0C00010431843BB
:100740000860886848F2FF3204F10C0790438CCFB0
:1007500018431043A6698860C86820F0FF0038433A
:100760003043C860086840F0010008600020202184
:10077000206484F83D10206384F83E0001B0F0BD91
:100780002DE9F04387B0006845F60001C4F200018E
:1007900000268842CDE90566CDE9036602962DD094
:1007A00045F20041C4F20001884260D1002443F6C2
:1007B00030050194C4F20205286802A940F0020045
:1007C0002860286800F0020001900198C020029083
:1007D0001220CDE90304032005900420069040F286
:1007E0000040C4F20200FFF73DFE0194286940F486
:1007F00000102861286900F4001036E043F6300745
:100800000196C4F20207386840F2004440F002004A
:1008100038603868C4F2020400F0020001900198C8
:100820004FF480600290042002AD4FF012084FF0A8
:100830000309069020462946CDE90386CDF8149099
:10084000FFF710FE0820CDE9020809200690204697
:100850002946CDE90469FFF705FE0196386940F4A1
:1008600080003861386900F480000190019807B079
:10087000BDE8F08340F2000040F23821C2F20000EF
:10088000C2F2000100780A68104408607047000056
:1008900080B543F60040C4F20200016841F40071E3
:1008A0000160016841F480610160016841F4807178
:1008B0000160032000F074F80F2000F005F800F04C
:1008C00027F8002080BD000070B540F20006C2F29B
:1008D000000640F208013278C2F200014FF47A7348
:1008E0000968B3FBF2F20446B1FBF2F1084600F0EE
:1008F0004FFB0F2C4FF0010508D838B94FF0FF30EF
:1009000021460022002500F01FF87460284670BDC3
:1009100082B0002043F640010190C4F202014A680F
:1009200042F480424A604A6802F480420192019A8D
:100930000090086840F080500860086800F080501F
:100940000090009802B0704710B54EF60C5CCEF2E5
:10095000000CDCF80030C3F3022E8EF00704042CE8
:1009600028BF0424BEF103034FF0FF3E0EFA04F447
:1009700038BF0023A14399400EFA03F39A43114371
:1009800000F00F0200F160430901043A03F56443EB
:100990006244002848BF02F10C03197010BD00002A
:1009A0004EF60C51CEF200010A684FF6FF031A40D2
:1009B00060F30A2242F0806040F0FD7008607047EA
:1009C000002804BF012070472DE9F04143F60808D4
:1009D000C4F202080446D8F8F8030D4600F00700F8
:1009E000814207D988F8F853D8F8F80300F00700D7
:1009F000A84277D12068810717D5410705D5D8F8D7
:100A0000001041F4E051C8F80010010705D5D8F8EE
:100A1000001041F46041C8F80010D8F80010A26836
:100A200021F0F0011143C8F80010C00740D1D8F8F8
:100A3000F80300F00700854207D288F8F853D8F889
:100A4000F80300F00700A8424CD12068410707D501
:100A5000D8F80010E26821F4E0511143C8F8001002
:100A6000000708D5D8F80000216920F4604040EA6A
:100A7000C100C8F8000000F07DF8D8F8001041F679
:100A8000D452C1F30311C0F60002515C40F20802D7
:100A900020FA01F140F20400C2F200000068C2F244
:100AA00000021160FFF710FF0020BDE8F08100BFD9
:100AB0006068811E022907D258F8081C89015CBFB2
:100AC0000120BDE8F08111E0012807D158F8081C89
:100AD00089035CBF0120BDE8F08107E058F8081CDD
:100AE000890703D40120BDE8F08100BFD8F80010C9
:100AF00021F003010843C8F80000FFF789FD06460E
:100B000041F28837D8F80000616800F00C00B0EBC3
:100B1000810F8CD0FFF77CFD801BB842F2D90320F7
:100B2000BDE8F08140F2080043F60801C2F200007F
:100B3000C4F202010068096841F6E452C1F382215F
:100B4000C0F60002515CC8407047000040F2080047
:100B500043F60801C2F20000C4F20201006809680D
:100B600041F6E452C1F34231C0F60002515CC84084
:100B70007047000010B543F60404C4F20204616833
:100B8000C1F3810142F20040C0F2F400DFE801F05D
:100B900002040A0210BD00BF47F64000C0F27D10FB
:100BA00010BD00BF206821682368490247F6400154
:100BB000C0F27D1100F03F02C3F388105CBF42F227
:100BC0000041C0F2F401A1FB00010023FFF76AFB22
:100BD00021680222C1F3014102EB4101B0FBF1F0B7
:100BE00010BD0000002804BF012070472DE9F0412E
:100BF00082B00446007843F60006C007C4F202063D
:100C00000CD0B06800F00C00042840F081803068FF
:100C1000800303D56068002800F068812078800791
:100C20001BD5B06810F00C0F09D0B06800F00C00B4
:100C3000082840F087807068400200F183803068A7
:100C4000800703D5E068012840F0508130682169B1
:100C500020F0F80040EAC10030602078000713D48B
:100C6000207840072AD4A569002D00F03A81B068A9
:100C700000F00C00082840F0A580012D40F00E8106
:100C8000012002B0BDE8F0816069002800F0828098
:100C90000020C4F247200121C0F8801EFFF7B8FCF5
:100CA000054600BF706F8007DAD4FFF7B1FC401B28
:100CB0000228F7D9032002B0BDE8F081306C5FEA6A
:100CC000C0080AD400200190306C40F0805030649D
:100CD000306C00F080500190019847F20007C4F298
:100CE00000073868C00547D4386840F48070386021
:100CF000FFF78EFC054600BF3868C0053CD4FFF7FF
:100D000087FC401B0228F7D9032002B0BDE8F08120
:100D1000B06800F00C00082803D1706840023FF56D
:100D200076AF61683068B1F5803F07D0B1F5A02F8C
:100D300040F09A8040F480203060306840F4803089
:100D400030609AE0E068002840F20000C4F24720DA
:100D50005CD001210160FFF75BFC0546306880072D
:100D60003FF574AFFFF754FC401B0228F6D903206F
:100D700002B0BDE8F08100BFA168306F012905D045
:100D8000052955D140F004003067306F40F0010074
:100D9000306756E00020C4F247200021C0F8801ED2
:100DA000FFF736FC054600BF706F80077FF558AF30
:100DB000FFF72EFC401B0228F6D9032002B0BDE845
:100DC000F08100BF0027C4F2472700203866FFF7F4
:100DD0001FFC022D05460DD13068800140F18A804C
:100DE000FFF716FC401B02284FF00300F4D902B0B5
:100DF000BDE8F0813068800173D5FFF709FC401B26
:100E000002284FF00300F5D9F1E700BF002101608F
:100E1000FFF7FEFB054600BF306880077FF51DAF7A
:100E2000FFF7F6FB401B02284FF00300F4D9DEE782
:100E300020F001003067306F002920F00400306797
:100E40007AD0FFF7E5FB054641F28837306F80071F
:100E500000F18480FFF7DCFB401BB842F6D9032089
:100E600002B0BDE8F08100BF20F48030306030680F
:100E7000002920F4802030607AD0FFF7C9FB0546B6
:100E8000306880033FF5CAAEFFF7C2FB401B642801
:100E9000F6D9032002B0BDE8F08100BF7068E169B7
:100EA00000F480028A4221D1216A00F03F028A4286
:100EB0001CD147F6C071626A0140B1EB821F15D1A7
:100EC000A16A4FF6FF73C903994300F44032A1F5BC
:100ED00080318A420AD1E16A00F07060B0EB016FA4
:100EE00004D1002002B0BDE8F08100BF012002B0B3
:100EF000BDE8F08104F11C052FCD084340EA8210C3
:100F0000D9034FF6FF729143A1F5803140EA0560A5
:100F10000843706001203866FFF77AFB044600BF83
:100F200030688001DDD4FFF773FB001B02284FF00F
:100F30000300F5D95BE700BFFFF76AFB054641F206
:100F4000883700BF306F800708D5FFF761FB401B73
:100F5000B8424FF00300F5D949E700BFB8F1000FE0
:100F60003FF581AE306C20F0805030647BE600BFEE
:100F7000FFF74EFB054600BF306880037FF54EAE9D
:100F8000FFF746FB401B64284FF00300F4D92EE71F
:100F9000411E0020B0EB116F1CBF012070474EF2C4
:100FA0001002CEF2000251604EF62351CEF2000143
:100FB000F0230B70072190601160704790F83C207F
:100FC000012A04BF02207047B0B501F108053CCDED
:100FD000D1E900CE23F47C5322F470521A432EF44C
:100FE000F0431A432CF4E0431A4324F4C0431A4359
:100FF0002A43C96922F480420368114359640021DD
:1010000080F83C100020B0BD90F83C20012A4FF041
:10101000020241D010B580F83D200268D2F804E009
:10102000D2F808C00C682EF07003234340F6FF345A
:10103000C4F20004A242536010DCB2F1804F1ED013
:1010400040F20043C4F200039A4218D040F6000375
:10105000C4F200039A4212D016E000BF40F60043EB
:10106000C4F200039A420AD044F20003C4F201031E
:101070009A4204D00023C4F201039A4204D1496881
:101080002CF08003194391600121002280F83D106B
:1010900080F83C20BDE8104010467047002804BF8F
:1010A0000120704710B5044690F83D0028B9002093
:1010B00084F83C00204600F01FF8022084F83D0030
:1010C0002068211D00F0E6FB012084F8460084F82A
:1010D0003E0084F83F0084F8400084F8410084F822
:1010E000420084F8430084F8440084F8450084F802
:1010F0003D00002010BD000000680021C4F2010185
:10110000884218BF704781B00020009043F6440029
:10111000C4F20200016841F001010160006800F0C2
:1011200001000090009801B07047000090F83C204A
:10113000012A4FF002026CD080B580F83D20D0F833
:1011400000C04FF67772DCF8083023EA0202CCF8D0
:1011500008200B684F2B29DC1F2B45DD202B46D0A8
:10116000302B44D0402B40F0AF80D1F804E0C96868
:10117000DCF82030DCF8202022F00102CCF820201E
:10118000DCF8182022F0F00242EA011123F00A02F2
:1011900042EA0E02CCF81810CCF82020DCF8081037
:1011A00041F0470121F0300128E000BF6F2B33DD13
:1011B000B3F5005F74D0B3F5805F21D0702B40F0A1
:1011C0008380D1E901E3C968DCF8082043EA0E0313
:1011D00022F47F4243EA01211143CCF80810DCF8E5
:1011E000081041F0770109E00BB1102B6CD1DCF84D
:1011F000081021F07001194341F00701CCF80810E4
:101200000022012180F83D10002180F83C10BDE84B
:1012100080401046704700BF502B21D0602B53D127
:10122000D1F804E0C968DCF82030DCF8202022F096
:101230001002CCF82020DCF8182022F4704242EA98
:10124000013123F0A00242EA0E12CCF81810CCF8BB
:101250002020DCF8081041F0670121F01001CDE7F3
:10126000D1F804E0C968DCF82030DCF8202022F056
:101270000102CCF82020DCF8182022F0F00242EA2B
:10128000011123F00A0242EA0E02CCF81810CCF841
:101290002020DCF8081041F0570121F02001ADE7D3
:1012A000D1E901E3C968DCF8082043EA0E0322F41F
:1012B0007F4243EA01211143CCF80810DCF8081002
:1012C00041F480419AE700BF01229AE7002804BF59
:1012D000012070472DE9F047044690F83D000D4687
:1012E00028B9002084F83C00204600F049F802208C
:1012F00084F83D00206844F20702816891438160D0
:10130000211D00F0C7FA20684FF6FF7881688269D6
:10131000D0F820C0D5E9003ED5E9026A43EA0109C8
:10132000AB6922EA080246EA03234FF6FC46B343C0
:10133000D5E9076742EA0A0229691A4342EA062206
:1013400042EA01112CF0AA026B6942EA0E0241EA5C
:10135000073142EA0312C0F808908161026201205D
:1013600084F8460084F83E0084F83F0084F8420088
:1013700084F8430084F83D000020BDE8F0870000B9
:1013800080B586B0006840F20042C4F2000200213D
:101390009042CDE90411CDE9021101911ED0B0F1C6
:1013A000804F42D1002043F630010090C4F2020188
:1013B0000A6942F001020A610A6902F00102009220
:1013C000009A0090086840F0010008600868032156
:1013D00000F0010000900098012019E043F6300071
:1013E0000091C4F20200026942F002020261026945
:1013F00002F002020092009A0091016841F001019E
:1014000001600068C02100F00100009000980220F7
:10141000019102210291002105900020CDE90311E4
:10142000C4F2020001A9FFF71DF806B080BD00005C
:1014300080B586B000210068C4F201010022884214
:101440000592CDE903220292019201D006B080BD3F
:1014500043F630000092C4F20200036843F0010337
:101460000360006800F00100009000984FF44070A5
:1014700001900220CDE902020120059001F58030A3
:1014800001A90492FEF7EEFF06B080BD90F83C3053
:10149000012B04BF022070474FEAB202032A00F278
:1014A000ED802DE9F043DFE802F003A3397300BFBC
:1014B000036800261D6A1A6AC4F2010622F00102BE
:1014C0001A621A465C6852F818CFB3428E68D1F897
:1014D00000E025F0020545EA06050CD1CE68D1E909
:1014E000057824F4407425F00C0526F004063C43EE
:1014F000354344EA08042CF0730747EA0E075C60A2
:101500009F614F6809695F631D629F6947F0080723
:101510009F619F6927F004079F61A4E0036800268C
:101520001D6A1A6AC4F2010622F480721A621A460F
:10153000D3F804C052F81CEFB3428E680C6825F44F
:10154000007545EA06250FD1CE68D1E90598360227
:1015500040F2FF4725F44065BE4335432CF4405725
:1015600048EA090647EA061C2EF073072743C3F82A
:1015700004C0DF614F680969DF631D62DF6947F0FE
:101580000807DF61DF6927F00407DF616BE000BF58
:1015900003680027D3F820C01A6AC4F2010722F4B6
:1015A00080521A621A465C6852F81C5FD1F800E05B
:1015B0008E68BB4204D14F6924F4804444EA871406
:1015C0002CF4005747EA063725F4E64646EA0E268D
:1015D0005C60DE614E6809691E641F62DF6947F462
:1015E0000067DF61DF6927F48067DF613AE000BFF1
:1015F000036800261D6A1A6AC4F2010622F010026E
:101600001A621A46D3F804C052F8184FB3428E68D3
:10161000D1F800E025F0200545EA06150FD1CE6887
:10162000D1E905986FF0400725F0C00507EA0616D6
:1016300035432CF4406748EA090647EA860C24F44F
:10164000E64444EA0E27C3F804C09F614F68096965
:101650009F631D629F6947F400679F619F6927F43C
:1016600080679F6109021368194311600021BDE87A
:10167000F043002280F83C200846704701210022F8
:1016800080F83C2008467047002804BF01207047BE
:1016900010B5044690F83D0028B9002084F83C00BD
:1016A000204600F01FF8022084F83D002068211D2C
:1016B00000F0F0F8012084F8460084F83E0084F839
:1016C0003F0084F8400084F8410084F8420084F828
:1016D000430084F8440084F8450084F83D0000206D
:1016E00010BD000070470000002804BF01207047B3
:1016F00010B5044690F8410028B9002084F8400055
:10170000204600F021F8242084F841002068C168B8
:1017100021F40051C160204600F03CF920680169C5
:1017200021F490410161416921F02A014161C168C0
:1017300041F40051C16000202021606484F8411010
:1017400084F84210606310BD80B586B041F200415C
:101750000068C4F20101002288420592CDE903220B
:101760000292019202D006B080BD00BF43F6300065
:101770000092C4F20200436943F0200343614369CD
:1017800003F020030093009B0092036843F00103E1
:101790000360006800F00100009000984FF4C05012
:1017A00001900220CDE90202032004900820059058
:1017B00001F56C4001A9FEF755FE06B080BD0000A2
:1017C000FEE70000FEE70000FEE7000070470000B3
:1017D00070470000FFF74EB870B592B006AC2046D7
:1017E0003021FEF7D7FD002543F640000595CDE9F1
:1017F0000355CDE901550095C4F2020001680226A7
:1018000041F080510160006800F080500090009825
:1018100047F200000095C4F20000016841F4404125
:101820000160006800F4404000900098012006909C
:101830004FF4803007904FF480000D900C200E90F4
:101840006020CDE90F060420119020460C96FFF78A
:10185000C9F918B172B600BFFEE700BF0F20CDE98D
:1018600001064FF48050CDE9040501A8032103953A
:10187000FFF7A6F810B172B6FEE700BF12B070BD58
:101880004EF68850CEF20000016841F4700101600C
:101890007047000010B540F2FF7E0368C4F2000EEE
:1018A00040F2000C7045C4F2010C1DDD40F6000250
:1018B000C4F20002904220D060451ED040F60042A3
:1018C000C4F20002904218D04FF6FF72C4F2000238
:1018D00090421CDC704525DCB0F1804F3AD040F2DC
:1018E0000042C4F2000233E0B0F1804F05D040F274
:1018F0000042C4F200029042E6D14A6823F070032D
:1019000013434FF6FF72C4F200029042E2DD44F24C
:10191000FF32C4F20102904210DC60451AD044F25A
:10192000000213E040F60002C4F20002904211D01F
:1019300040F60042C4F200020AE000BF44F6000292
:10194000C4F20102904205D044F20042C4F2010206
:10195000904203D1CA6823F44073134323F08002FA
:101960004B69D1F800E08C681A4360450260C4629C
:10197000C0F828E002D10969CCF83010012141619A
:101980000169C90708BF10BD016921F001010161AA
:1019900010BD0000B0B50446006804F108030ECB8A
:1019A0000569194325F440552A4302616269E369D8
:1019B0001143C268194349F20C639A431143C16051
:1019C0004169A26921F4407141F20043114340F49E
:1019D0008062C4F201039A42416103D1FFF7B6F875
:1019E00002E000BFFFF79EF8E1694FF69C7563685F
:1019F0001922C0F6FF75B1F5004FA0FB02011FD1FF
:101A00005A00DB0FFEF74EFC48F21F51C5F2EB11F6
:101A1000A0FB01235A0905F1805302FB0300322386
:101A200003EBC000A0FB01014FF4F87000EA1110B5
:101A300000EB0210C1F34211084421688860B0BD78
:101A40009A009B0FFEF72EFC48F21F51C5F2EB11D6
:101A5000A0FB01235A0902FB0500322303EB00100F
:101A6000A0FB0101F02000EA511000EB0210C1F3CD
:101A70004311084421688860B0BD0000FEE7000003
:101A800098B040F20008C4F20208FEF701FFFFF729
:101A9000A3FE002443F630001394CDE91144CDE9B0
:101AA0000F440094C4F20200016808F5006641F09A
:101AB000040101600168002201F004010091009915
:101AC000009401684FF4005741F080010160016803
:101AD00001F08001009100990094016841F001013A
:101AE0000160016801F00101009100990094016812
:101AF00041F00201016000684FF4005100F0020063
:101B0000009000983046FEF77DFD404638210022C7
:101B10004FF03809FEF776FD08F5806528464FF24C
:101B2000030100224FF2030AFEF76CFD0F970FAF7F
:101B30004FF0010B30463946CDE910B41294FEF750
:101B400091FC04200F904FF48810CDE9100440461A
:101B50003946FEF787FC40463946CDE90F9BCDE973
:101B60001144FEF77FFC28463946CDE90FABCDE99D
:101B70001144FEF777FC40F27000A8F5D631C2F2AE
:101B8000000048F2A0624FF48045C0F2010280E8F4
:101B90001600C0E90345C0E90544C0E90744FEF763
:101BA0003DFD18B172B600BFFEE700BF40F2C400B1
:101BB000A8F5D431C2F2000041F68022C0F206023C
:101BC00080E81600C0E90345C0E90544C0E90744C0
:101BD000FEF724FD10B172B6FEE700BF40F2181008
:101BE0000021A8F58032C2F20000632340F2E737FB
:101BF0000E91CDE90C11CDE908111591C0E9002332
:101C0000C0E90217C0E904118161FFF747FA18B172
:101C100072B600BFFEE700BF4FF480500B9040F259
:101C20001810C2F200000BA9FFF780FA10B172B6CB
:101C3000FEE700BF40F21810C2F20000FFF724FDDB
:101C400010B172B6FEE700BF40F21810C2F20000F9
:101C500008A9FFF7D9F918B172B600BFFEE700BFB7
:101C6000602000900020CDE90100CDE90300CDE91E
:101C7000050040F21810C2F2000069460022FFF78A
:101C800005FC18B172B600BFFEE700BF40F21810A5
:101C9000C2F2000069460422FFF7F8FB10B172B6E9
:101CA000FEE700BF4FF40050149040F218100024DB
:101CB000C2F200000FA91394CDE91144CDE90F44FD
:101CC0001694FFF77BF918B172B600BFFEE700BFAC
:101CD00040F21810C2F20000FFF7AAFB40F26010B9
:101CE000C2F200004FF08041C0E900140321CDE9A9
:101CF0000F1401214FF0FF32CDE91114CDE9151475
:101D00000FA9CDE90044C0E9024204618461CDE934
:101D100013441794FFF7DAFA10B172B6FEE700BF6A
:101D200040F26010C2F200006946FFF76DF908B199
:101D300072B6FEE740F2A8100021A8F5FE32C2F20A
:101D40000000C0E9002103224FF6FF73CDE90F2107
:101D50000122CDE90011C0E9021301618161CDE9E1
:101D60001121CDE91311CDE9152117910FA9FFF725
:101D7000ADFA08B172B6FEE740F2A810C2F2000058
:101D80006946FFF741F908B172B6FEE740F2F0107C
:101D9000A8F56C41C2F2000000230C274FF4E13299
:101DA00080E80E00C0E90333C0E90573C361FFF7A3
:101DB0009BFC08B172B6FEE7FEE7F1EE100A4FF6A3
:101DC000FF71C0F2C03120EA010040F04070E1EE46
:101DD000100A704700000000000000000102030428
:101DE000060708090000000001020304101E000895
:101DF0000000002010000000FC010008201E000868
:101E000010000020300800001C0200080000000044
:101E100001000000100000000024F4000000000099
:040000050800019955
:00000001FF
